:100000000C942B000C94060A0C944B0A0C9453008D
:100010000C9453000C9453000C94E80B0C94530074
:100020000C9453000C94D9020C9423040C945600A5
:100030000C94C5010C94B1010C9453000C94530022
:100040000C9453000C9453000C9453000C945300E4
:100050000C945300930911241FBECFE5D4E0DEBFFA
:10006000CDBF10E0A0E6B0E0E4EEFDE102C00590F7
:100070000D92A23CB107D9F711E0A2ECB0E001C0AB
:100080001D92AB36B107E1F710E0C6E5D0E004C041
:100090002297FE010E94ED0EC435D107C9F70E94D8
:1000A000330E0C94F10E0C94000008951F920F92E1
:1000B0000FB60F9211242F933F934F938F939F93DB
:1000C0005F9B45C13CB1332321F480E080932A013A
:1000D0003EC120912A01422F263009F489C02730E1
:1000E00080F02A3009F495C02B3058F5283009F4F7
:1000F000B2C0293008F4A0C03C3209F0C7C08AE081
:10010000E5CF223009F45FC0233018F1243009F420
:10011000B3C0253008F48CC0313408F4E6C037345D
:1001200008F0E3C03753832F9927395C8295807F8D
:1001300080933001422F96E04930F0F0892F9927C3
:10014000C5CF2C3009F12C3030F12D30D9F08DE0B5
:10015000BDCF2223C9F02130D1F7313408F4CEC00D
:10016000373408F0CBC03753832F9927395C8295F9
:10017000807F80932E0192E080912B01830F8093EA
:100180002B01DCCF10922A013A3309F4D6C04091FA
:100190002A019DE0D1CF313408F49CC0373408F0F7
:1001A00099C040912C013753832F9927395C942FA4
:1001B000982B90932C0180912B01981709F4C5C0BE
:1001C000422F9DE0B9CF313408F478C0373408F0BD
:1001D00075C020912E013753832F9927395C822BCC
:1001E00080932E01853011F09DE0C6CF93E0C4CFFF
:1001F000313408F458C0373408F055C0209130012C
:100200003753832F9927395C282B2093300197E0AF
:10021000B3CF313408F47BC0373408F078C037539B
:10022000832F99278295807F80932C018BE04ECF7E
:100230003C32D1F694E0A0CF313458F1373448F550
:100240003753832F9927395C8295807F80932F01C4
:10025000422F98E071CF313408F463C0373408F08E
:1002600060C020912F013753832F9927395C282BA9
:1002700020932F0199E080CF313408F4B5CF3B357E
:1002800008F0B2CF30932D0195E076CF8DE090E06D
:100290001DCF832F80538A3020F43A3388F6992774
:1002A000D3CF9DE049CF832F80538A30D0F7209160
:1002B00030013A3308F0A4CF9927A6CF932F90535B
:1002C0009A3078F720912E013A3308F084CF892FA5
:1002D000992785CF832F80538A3018F740912C01BE
:1002E0003A3308F060CF992762CF832F80538A304A
:1002F000C0F63A3308F016CF992718CF832F8053D2
:100300008A3078F63A3308F02ECF992730CF832FF2
:1003100080538A3008F0BACF3A3308F080CF99275B
:1003200081CF832F80538A3008F0BBCF20912F01DB
:100330003A3308F098CF99279ACF10923001109253
:100340002F0110922B0181E0C1CE8CE0BFCE9F9196
:100350008F914F913F912F910F900FBE0F901F9053
:1003600018951F920F920FB60F9211248F938091C0
:100370005E01833021F410925E018DE08CB98F9183
:100380000F900FBE0F901F9018951F920F920FB6EF
:100390000F9211248F939F93EF93FF9380915E01AF
:1003A0008230A1F0833018F0853010F50DC088231D
:1003B00041F08130E9F48AE38CB982E080935E01F8
:1003C00017C084E080935E01559812C090915D0142
:1003D0009C3250F4E92FFF27EF5CFE4F80819F5F36
:1003E00090935D018CB904C083E080935E015598C1
:1003F000FF91EF919F918F910F900FBE0F901F90E3
:1004000018950F931F93CF93DF93EC018B018A8193
:10041000833009F444C0843088F0853009F445C045
:100420008530C0F4E881F9810280F381E02D4B81B1
:10043000B801CE01099586E08A8376C0813039F112
:10044000823080F08D8181111A828C818823C9F5D8
:100450001A826AC08630E1F78E81882309F064C071
:100460001A8262C0E881F9810190F081E02D60E09C
:10047000CE0109958B83882309F456C081E08A83D5
:1004800082E08C8383E08D838CE78E834DC08D81E9
:10049000882399F583E08A8383E18D8345C08E812B
:1004A0008823F1F485E08A833FC0E881F9810190D7
:1004B000F081E02D6B81CE0109958823A9F51A8280
:1004C00033C0E881F9810190F081E02D6B81CE018C
:1004D0000995882349F181E08A8382E08C8324C0D6
:1004E000E881F9810190F081E02D6B81CE010995C1
:1004F0008823B1F484E08A8395CFE881F981019063
:10050000F081E02D6B81CE010995882369F48C81FF
:10051000882309F09DCF82E08A8388E08C8304C021
:100520008A81843009F47ECFDF91CF911F910F91A2
:100530000895CF93DF93EC019A819130D1F09130FF
:1005400030F09230E1F0933081F01A822FC0E881D0
:10055000F9810190F081E02DCE010995882331F1D8
:100560008EE18C8381E08A8321C08C81882369F3AA
:100570001DC08C81882389F482E08A839B83E88173
:10058000F9810190F081E02DCE010995882371F465
:100590008EE18C8383E08A8309C0E881F981019030
:1005A000F081E02DCE010995882379F2DF91CF917A
:1005B00008951F920F920FB60F9211242F933F931D
:1005C0008F939F932091680130E0822F9927877045
:1005D0009070892B09F031E02F5F209368018091A2
:1005E0000301882319F08150809303018091040155
:1005F000882319F0332309F45DC080910501882315
:1006000019F0332309F452C080910A01882319F0AC
:10061000815080930A0180910B01882319F03323C4
:1006200009F440C080910C01882379F1332309F04B
:1006300045C0815080930C0180911101882329F0DD
:1006400080911101815080931101809116018823BE
:1006500029F08091160181508093160180911B0131
:10066000882329F080911B01815080931B01809188
:100670002001882389F4809128018F3FF9F080912F
:1006800028018F5F8093280119C03323B9F480912A
:1006900011018823D1F2D4CF809120018150809321
:1006A0002001E9CF815080930B01BCCF8150809312
:1006B0000501AACF8150809304019FCF9F918F9114
:1006C0003F912F910F900FBE0F901F901895FC0136
:1006D000E05BFF4F8381E055F0408823F1F4EB5A53
:1006E000FF4F8381E555F0408823B9F4EA5BFF4F63
:1006F0008381E654F040882381F4ED59FF4F8081D7
:10070000E356F0408C3049F0E65AFF4F868120E0F6
:1007100030E0853029F0C901089581E090E0089526
:1007200021E030E0F8CFCF93DF93EC018E8988236E
:1007300091F01E8A6E981C8AE881F9810190F081FF
:10074000E02DCE010995E881F9810280F381E02D49
:1007500060E0CE010995DF91CF910895CF93DF93AB
:10076000DC01EC018E89882309F44BC08F89882332
:1007700081F5FD01308DE30FF11D9281ED012A8D90
:100780008091C000882311F0992339F11092C000A4
:10079000E92FFF27ED01898D853029F1E05AFF4FC0
:1007A000808180958FB9832F8F5FFD01808F82318B
:1007B00010F081E0878BED018A8D8F5F8A8F833007
:1007C00000F11A8E81E08093C000898D8F5F898F40
:1007D00018C0CD010E94930314C02230B8F690E1F6
:1007E000E0E1F0E0D7CF2223C9F69A30B8F68B8D3E
:1007F0008823A1F2E05AFF4F8FE79081891B8FB9C0
:10080000D2CFDF91CF910895CF93DF93EC018C8904
:100810008823B1F08E89882399F46E9A6C9AE881C6
:10082000F9810280F381E02D61E0CE01099581E03C
:100830008E8B1F8A188E198E1A8ECE010E94AE03DF
:10084000DF91CF9108951F920F920FB60F9211244E
:100850000F931F932F933F934F935F936F937F93C8
:100860008F939F93AF93BF93EF93FF9303EE10E0AB
:10087000C8010E94AE03C8014C970E94AE03FF91CD
:10088000EF91BF91AF919F918F917F916F915F9108
:100890004F913F912F911F910F910F900FBE0F908D
:1008A0001F901895DC0183E0689FB00111246E5FF2
:1008B0007F4FFB01EA0FFB1F6250704082818F5F08
:1008C000828382818A30F4F01282FB013196EA0F32
:1008D000FB1F82818F5F82838281992787FD90959C
:1008E000242F332727FD3095281739075CF412820F
:1008F000FB01EA0FFB1F82818F5F828382818A3036
:100900000CF0128281E0FD01848B0895DC0183E00C
:10091000689F900111242F5F3F4FF901EA0FFB1FE1
:100920002150304082818F5F82838281992787FDA9
:100930009095552747FD5095481759075CF412824A
:10094000F901EA0FFB1F82818F5F828382818A30E7
:100950000CF0128281E0FD01848B0895DC0183E0BC
:10096000689FF0011124EA0FFB1F82818F5F828351
:1009700082818A300CF0128281E0FD01848B08951F
:10098000DC0183E0689F900111242E5F3F4FF90145
:10099000EA0FFB1F22503040828181508283828186
:1009A00087FF1AC099E09283F9013196EA0FFB1F85
:1009B000828181508283828187FF0EC04283F90148
:1009C000EA0FFB1F828181508283828187FF04C0EE
:1009D000928381E0FD01858B81E0FD01848B089588
:1009E000DC0183E0689FF0011124EA0FFB1F828184
:1009F00081508283828187FF02C089E0828381E007
:100A0000FD01848B0895CF93DF9323E0629FF00173
:100A10001124DF01A80FB91FED012A813196DF01F2
:100A2000A80FB91FED016A813196E80FF91F828185
:100A3000992787FD9095332727FD30955527F90194
:100A4000E49F9001E59F300DF49F300D1124820F3B
:100A5000931F2AE06202B0011124860F971FDF91D5
:100A6000CF9108958F929F92AF92BF92CF92DF92D3
:100A7000EF92FF920F931F937C0144E660E00E9487
:100A800003054C0144E661E0C7010E9403058C01A7
:100A900044E662E0C7010E9403055C0144E663E0AE
:100AA000C7010E9403056C0144E664E0C7010E948F
:100AB0000305080D191D0A0D1B1D0C0D1D1D800FB2
:100AC000911F1F910F91FF90EF90DF90CF90BF90FB
:100AD000AF909F908F900895EF92FF920F931F9386
:100AE000CF93DF93EC01062F7A01CA016AE070E030
:100AF0000E94D80E23E0029F80011124F801329653
:100B0000EC0FFD1F8283C7016AE070E00E94D80EDF
:100B10009B01CB016AE070E00E94D80EF80131968B
:100B2000EC0FFD1F8283C9016AE070E00E94D80EBD
:100B30009B01CB016AE070E00E94D80EF801EC0F37
:100B4000FD1F8283882321F437FF02C081E1828365
:100B500081E08C8BDF91CF911F910F91FF90EF90EF
:100B60000895CF93DF939C0183E0689FF0011124E7
:100B7000DF01A20FB31FED011A823196DF01A20F30
:100B8000B31FED011A823196E20FF31F128281E04A
:100B9000F901848BDF91CF910895CF93DF939C016E
:100BA00083E0689FF0011124DF01A20FB31F81E1F0
:100BB000ED018A833196DF01A20FB31FED014A8355
:100BC0003196E20FF31F828381E0F901848BDF917C
:100BD000CF910895DC01FC01128281E090E0FC01DC
:100BE000EA0FFB1F1282019682319105C1F7FD01C8
:100BF000158A81E0848B168A838F6E980895FC0194
:100C00008085863009F48DC08730B8F0893009F4CA
:100C10009CC08A3038F18B3009F48DC08B30A8F13C
:100C20008C3029F5662309F4C6C0828181608283F5
:100C300080818F5F808381E01BC0823009F467C0B0
:100C40008330C8F0843009F44CC0853048F1662305
:100C500009F0A5C081818D7F818386E0808780E057
:100C600090E0ADC0873009F447C0883021F180E0C2
:100C700010869927A4C0882349F18130C1F7638386
:100C800082E0808780E090E09AC0662309F08FC000
:100C900082818B7F82838BE0808780E090E08FC0B1
:100CA000662309F080C08181877F818384E080870B
:100CB00080E090E084C0662309F06DC082818F7E61
:100CC000828389E0808780E090E079C0662309F024
:100CD0005EC082818F7B828381E0808780E090E0AC
:100CE0006EC0662309F04FC081818B7F818385E0D0
:100CF000808780E090E063C0662309F040C0828175
:100D00008F7D828388E0808780E090E058C06623F2
:100D100091F581818F7E818383E0808780E090E000
:100D20004EC0662321F581818E7F818387E0808795
:100D300080E090E044C06623B1F482818D7F82839D
:100D40008CE0808780E090E03AC0662341F48281A5
:100D5000877F82838AE0808780E090E030C0828154
:100D600088608283F7CF828182608283E9CF81812C
:100D700081608183DBCF818180618183CDCF82815E
:100D800080628283BFCF818184608183B0CF828182
:100D900080648283A1CF82818061828392CF8181AE
:100DA000826081835ACF8181886081837FCF8281F5
:100DB0008460828370CF82818E7F828339CF089551
:100DC000CF93DF93EC018F81883010F46F3620F0E1
:100DD0001E82188681E03BC06F3290F46E30C0F006
:100DE00090E08E81823051F1833060F4882391F05D
:100DF000813071F49130D1F0992351F482E027C011
:100E000091E0EFCF843081F0843030F0853051F0C4
:100E100086E01DC080E01BC0913091F09923C1F79E
:100E200084E015C085E013C0992391F760E0CE01FE
:100E30000E94FF058823B1F783E009C0992341F799
:100E400061E0CE010E94FF05882361F781E08E8377
:100E50001F82DF91CF9108952CB53DB54091C5001B
:100E60005091C6004217530770F4B901641B750B0B
:100E70003093C6002093C5006F3F710561F058F0B4
:100E80006FEF70E008C02B5C334FB901641B750B2A
:100E900025533C40EDCF865A9F4F0E94E0060895AF
:100EA000FC018681853019F080E090E00895828110
:100EB0009927262F332782179307B1F7442349F048
:100EC00082818483838185831682108681E090E00D
:100ED000089594818281981799F795818381981755
:100EE00079F7E2CF8093C2008091C2008093C30063
:100EF0006093C40085B5836085BD8DE783BD08958B
:100F0000FB019A01CA016AE070E00E94C40E805D94
:100F10008283C9016AE070E00E94C40E9B01862FA3
:100F20006AE00E94B80E905D9183822F0E94B80EF5
:100F30000E94B80E905D908308957F928F929F9249
:100F4000AF92BF92CF92DF92EF92FF920F931F93D7
:100F5000CF93DF93EC01AEE9CA2ED12CC80ED91E77
:100F6000F6018081882309F4B5C0C156DF4F88801F
:100F7000259749915991A880B98023979880C9599C
:100F8000D040BE01625E7F4F9E012E5F3F4FF3E671
:100F9000EF2EF12CEC0EFD1EF70184A9823009F42E
:100FA00099C084A9813009F495C08E0106591F4F5C
:100FB00082E3F8018083C559DF4F86E389938CE291
:100FC0008883CC56D040DE01A359BF4F80E090E02B
:100FD00011C0EEE2EC93FB01E80FF91FE081EA306B
:100FE000B8F0EEE27E2EFD017786019611968F30E5
:100FF0009105C1F0F901E80FF91FE081EA3048F7E7
:10100000E05DEC93FB01E80FF91FE081EA3048F75F
:10101000F0E37F2E7E0EFD017786019611968F30CC
:10102000910541F7F9E1F91508F04BC08EE2C5577B
:10103000DF4F8883CB58D040BE0164577F4FC70134
:101040000E948007BE0161577F4FA501C7010E9422
:101050008007882D81548A3190F18EE2CE56DF4F81
:101060008883C259D040F801219191E08191280FE5
:101070009F5F9932D9F7CD56DF4F8CE28883C359F1
:10108000D040822F82958F708A3008F1895C992731
:10109000CC56DF4F8883C459D040822F8F708A305E
:1010A00098F0895C9927CB56DF4F89935598188221
:1010B00081E0F70184AB559AF60110820BC0882DB0
:1010C000CDCF892D8F5BB3CF805D9927ECCF805D2D
:1010D0009927DECFDF91CF911F910F91FF90EF9075
:1010E000DF90CF90BF90AF909F908F907F900895AA
:1010F0000895089580B3829586958695837080952E
:1011000081709927089580B3829586958770809520
:1011100081709927089580B382958F708095817032
:101120009927089586B3809581709927089589B38A
:101130008095806E282F33277727C9018623972330
:10114000892B99F423FD13C021FD09C020FD12C095
:1011500022FD08C024FF11C080E190E0089582E0E4
:1011600090E0089584E090E00895CB01089588E030
:1011700090E0089581E090E0089580E090E0089587
:1011800043B340954760242F33277727C90186232F
:101190009723892B81F424FD10C026FD11C047FD43
:1011A00015C025FD05C023FF0EC088E090E008951E
:1011B00080E290E00895CB01089580E190E00895E9
:1011C00080E490E0089580E090E0089580E890E069
:1011D0000895C29A10926A0181E080936A01109288
:1011E0006A01C2980895C49A1092690181E08093BF
:1011F000690110926901C4980895019709F0089552
:101200006F5F7F4FE1F721E02093DB001092DC005D
:101210001092DD002093E20086E790E09093C800F2
:101220008093C700BC9AC498BB9AC3982093F700D8
:101230001092F8001092F9002093FE0086E890E0EA
:101240009093E4008093E300BA9AC298BB9AC39843
:10125000109201018EE890E0909300018093FF00CE
:1012600084B3877084BB85B3886F85BB10920801F7
:101270008EE990E090930701809306018AB3807E07
:101280008ABB8BB38F618BBB10920F0186EA90E013
:1012900090930E0180930D01B898C09A109214019A
:1012A00082EB90E090931301809312018C98949AB2
:1012B0001092190188EB90E0909318018093170128
:1012C0008D98959A10921E018EEB90E090931D01DF
:1012D00080931C018E98969A1092270110922701F4
:1012E00010922901109225011092260180EC8BBFEB
:1012F0008EE085BF10922A0110925E0110BC8CE036
:1013000089B988ED8AB910925F0110926001BF9A85
:10131000BE98BD9A709882ED8DB91092C20088E196
:1013200085BD8F9A08956FEF7FEF81E090E00E9476
:10133000FD080895FF920F931F93CF93DF938B01C6
:10134000F42EC42FDD27C4FD21C0C6FD12C0F7FC5A
:1013500017C0C5FD08C0C3FF1FC049E064E0C80155
:101360000E94520419C049E063E0C8010E9452047F
:10137000F2CF49E061E0C8010E945204F7FEE9CFD4
:1013800049E062E0C8010E945204E3CF49E060E016
:10139000C8010E945204D9CFDF91CF911F910F91C4
:1013A000FF9008950F931F93CF93DF938B01C42F6A
:1013B000DD27C3FD20C0C1FD18C0C0FD10C0C2FDA7
:1013C00008C0C4FF1EC049E064E0C8010E94520486
:1013D00018C049E063E0C8010E945204F2CF49E01E
:1013E00062E0C8010E945204EACF49E061E0C8010E
:1013F0000E945204E2CF49E060E0C8010E9452041A
:10140000DACFDF91CF911F910F9108951F920F9224
:101410000FB60F9211242F933F934F935F936F93C7
:101420007F938F939F93AF93BF93EF93FF938CB56D
:101430009DB52091C5003091C6002817390770F47A
:10144000BC01621B730B9093C6008093C5006F3F75
:10145000710561F058F06FEF70E008C08B5C934F3E
:10146000BC01621B730B85539C40EDCF81E291E080
:101470000E94E006FF91EF91BF91AF919F918F91F4
:101480007F916F915F914F913F912F910F900FBE80
:101490000F901F9018951F920F920FB60F92112464
:1014A0002F933F934F935F936F937F938F939F936C
:1014B000AF93BF93EF93FF938CB59DB52091C5007B
:1014C0003091C6002817390770F4BC01621B730BFA
:1014D0009093C6008093C5006F3F710561F058F08E
:1014E0006FEF70E008C08B5C934FBC01621B730B05
:1014F00085539C40EDCF81E291E00E94E006FF9190
:10150000EF91BF91AF919F918F917F916F915F917B
:101510004F913F912F910F900FBE0F901F901895F4
:10152000EF92FF920F931F93CF93DF93EC01FC0197
:10153000EB5AFF4F8381882309F4FFC013821AE519
:10154000E12EF12CEC0EFD1E65E0CE010E94AE04F2
:101550004CE365E0CE010E940305C656DF4F998338
:101560008883CA59D0408E0102561F4FF8018081EE
:10157000882369F48081882309F00EC181E0F80195
:101580008083C156DF4F89E48883CF59D04040E043
:1015900061E1C7010E945007882309F089C0FE015C
:1015A000ED59FF4F80818C3009F479C0FE01E05B7A
:1015B000FF4F8381882309F4A7C01382FE01E756F9
:1015C000FF4F8081882309F467C080E080834081D9
:1015D000465F65E0CE014C960E94CD058E01025615
:1015E0001F4FF8018081882371F4F80180818823DE
:1015F00009F0D6C081E0F8018083C156DF4F8DE449
:101600008883CF59D040FE01EA5BFF4F8381882356
:1016100009F4B1C013824CE365E0CE010E940305DA
:10162000FE01E656FF4F9183808380819181892B53
:1016300021F484EB90E09183808380819181C45672
:10164000DF4F99838883CC59D0402081318184E653
:1016500090E0AC01249FC001259F900D349F900D18
:1016600011246CE370E00E94D80EAB0165E0CE015E
:101670000E946C0544E665E0CE010E940305AC01C2
:1016800065E0CE014C960E946C0565E0CE010E949B
:10169000B10581E090E095C080818F5F97CFCA59F6
:1016A000DF4F8881C656D040843409F07FCF108246
:1016B00045E065E0CE010E94F0044CE365E0CE0118
:1016C0000E940305C656DF4F99838883CA59D040CC
:1016D0008E0102561F4FF8018081882309F066CFE2
:1016E0008081882309F069C081E0F8018083C156B8
:1016F000DF4F84E48883CF59D040FE01E05BFF4F89
:101700008381882309F059CF40E066E5C7010E9434
:101710005007882309F052CFFE01ED59FF4F808119
:101720008C3009F070CFCA59DF4F8881C656D0403F
:101730008D3409F068CF108241CFBAE5EB2EF12C41
:10174000EC0EFD1E40E060E1C7010E9450078823B7
:1017500009F0FACEFE01ED59FF4F80818C3009F07F
:1017600016CFCA59DF4F8881C656D040893409F058
:101770000ECF1082E9CE40E062E1C7010E9450071F
:10178000882309F048CFFE01ED59FF4F80818C304E
:1017900059F080E090E015C0CE010E949D07EECE8A
:1017A000CE010E949D0726CFCA59DF4F8881C656B9
:1017B000D040823471F710822ECFCE010E949D0757
:1017C00093CFDF91CF911F910F91FF90EF900895EC
:1017D0001F920F920FB60F9211241F932F933F93D6
:1017E0004F935F936F937F938F939F93AF93BF9329
:1017F000EF93FF9310916701112321F480915F0112
:10180000813091F18091C200882341F48091C4001D
:101810008823A9F485B5887F85BD05C08091C20065
:1018200081508093C20010FF05C081E08093F700D3
:101830008093DB001930B0F4812F8F5F52C080910C
:10184000C40081508093C4008091C40080FFE2CF27
:101850008091C3008093C20085B5836085BD8DE70C
:1018600083BDE1CF80E03DC080916501882351F4C4
:1018700080916501882381F581E08093650184E58D
:10188000809366018091610190916201019790932C
:1018900062018093610145E065E087EC90E00E9481
:1018A000520445E065E083EE90E00E94C004809120
:1018B0006001813009F0A6CF8091610190916201B1
:1018C0006EE170E00E94C40E892B09F09BCF63E0AB
:1018D00083E00E94720796CF87EC90E00E949D07FC
:1018E000CBCF80936701FF91EF91BF91AF919F9113
:1018F0008F917F916F915F914F913F912F911F91A8
:101900000F900FBE0F901F901895CF92DF92EF921D
:10191000FF920F931F93CF93DF93EC0108E9E02E22
:10192000F12CE80EF91EF701C080FC01E55BFF4FCA
:101930008381882309F4DAC01382F70110821092A0
:10194000C20088E185BD8F9ACE014C960E94EA05BF
:10195000CE010E94EA05FE01EA5BFF4F138212826C
:10196000FE01E05BFF4F13821282FE01EB5AFF4F34
:1019700013821282C656DF4F19821882CA59D0408C
:101980008E0102561F4FF8018081882309F0C9C0DB
:1019900081E0F8018083C156DF4F88E48883CF5906
:1019A000D040F7018081823009F4D2C0833030F119
:1019B000833009F448C0843009F48AC0F7011082EA
:1019C000F70180812C2D332799272817390709F42F
:1019D00041C18E0102561F4FF8018081882309F012
:1019E00039C1F8018081882309F0AEC081E0F80197
:1019F0008083C156DF4F85E488832CC1882309F09A
:101A000094C0CE010E94900A8823D1F2DD24D394A1
:101A1000F701D0828E0102561F4FF8018081882382
:101A200009F010C1F801D082C156DF4F82E48883EB
:101A300061E086E00E947207CE55D0401882C15402
:101A4000D0401AAEBDCFFE01E65AFF4F1682108677
:101A5000CE010E943205AC01F3E0883E9F0708F4F6
:101A6000B1C06AE070E00E94C40EAB0165E0CE0137
:101A70000E946C058E01045E1F4FC8010E94320552
:101A8000AC0183E0483E580708F49AC0CA016AE0F6
:101A900070E00E94C40EAB0165E0C8010E946C05B5
:101AA0008E0102561F4FF8018081882309F08CC0F7
:101AB00081E0F8018083C156DF4F82E58883CF59EA
:101AC000D04061E08AE00E94720784E0F7018083E1
:101AD000CE010E946703882309F472CFCE010E94D1
:101AE000EA05CE014C960E94EA0568CF40E06CE41E
:101AF000CE01865A9F4F0E945007882309F01DCFC0
:101B0000FE01ED59FF4F80818C3009F04ACFCA5950
:101B1000DF4F8881C656D040883409F042CF10820A
:101B20000CCFCE010E949D0733CF813009F046CF04
:101B3000C656DF4F88819981CA59D040892B21F53B
:101B400083E0F70180833CCFCE010E949D074ECFFA
:101B5000FE01EA5BFF4F83818823D1F1138281E08C
:101B6000F70180838E0102561F4FF8018081882380
:101B700009F049C081E0F8018083C156DF4F82E45B
:101B80008883CF59D0401CCFFE01EA5BFF4F838191
:101B90008823E9F1138282E0F70180838E010256E7
:101BA0001F4FF8018081882309F050C081E0F801BF
:101BB0008083C156DF4F80E58883CF59D04000CF66
:101BC0001FAA6ACF1B8E52CFCE010E949D0770CFF5
:101BD00040E062E1CE01865A9F4F0E945007882361
:101BE00009F0BDCFFE01ED59FF4F80818C3009F027
:101BF000E7CECA59DF4F8881C656D040823409F0FB
:101C0000DFCE1082ACCFCE010E949D07B3CF40E063
:101C100062E1CE01865A9F4F0E945007882309F047
:101C2000BACFFE01ED59FF4F80818C3009F0C8CE4C
:101C3000CA59DF4F8881C656D040823409F0C0CEE1
:101C40001082A9CFCE010E949D07ECCECE010E944A
:101C50009D07ACCFDF91CF911F910F91FF90EF9037
:101C6000DF90CF900895CFE5D4E0DEBFCDBF89B738
:101C7000816189BF1FBC8CE08EBD81E083BF85E39D
:101C80009CE09BBD8ABD789463EE662E60E0762E64
:101C900053E2252E312C260C371CE3016C9748E3C8
:101CA000442E512C4C0E5D1E3DE0832E31E0932ED0
:101CB00022E1A22E21E0B22E97E1C92E91E0D92E89
:101CC0008CE1E82E81E0F82E01E211E080915F01C5
:101CD000813081F11092080110920101C4010E942B
:101CE0009902C5010E949902C6010E949902C7018A
:101CF0000E949902CE010E949D0741E06DE4C80157
:101D00000E945007882329F580912A018C30D9F050
:101D1000CE010E94850C8091DD00882329F18091FD
:101D2000F900882399F6CE010E94040480915F0196
:101D3000813081F6B301C1010E940102BE01C201DE
:101D40000E940102CBCF80912D01833509F71092BB
:101D50002A0161E082E00E947207CE010E94850C98
:101D60008091DD008823D9F6C3010E940404D7CFF7
:101D7000991B79E004C0991F961708F0961B881FDD
:101D80007A95C9F780950895AA1BBB1B51E107C03E
:101D9000AA1FBB1FA617B70710F0A61BB70B881FFB
:101DA000991F5A95A9F780959095BC01CD0108958A
:101DB00097FB092E07260AD077FD04D0E5DF06D071
:101DC00000201AF4709561957F4F0895F6F790956D
:101DD00081959F4F0895EE0FFF1F0590F491E02D20
:041DE0000994FFCF94
:101DE4005F4237766A7C7D467F7E6F791D733D2D19
:101DF400002000000000F3087908000000005500EE
:101E0400550000000000E908780800000000C00840
:101E14009A090000000055005500000000009708D2
:101E2400D2090000000092080000000055000000E4
:101E340000008B08000000008308000000007A08FE
:021E4400010F8C
:00000001FF
