:100000000C942B000C94E40A0C94290B0C945300D0
:100010000C9453000C9453000C94160D0C94530044
:100020000C9453000C9441020C948B030C945600D6
:100030000C94C5010C94B1010C9453000C94530022
:100040000C9453000C9453000C9453000C945300E4
:100050000C9453008F0911241FBECFE5D4E0DEBFFE
:10006000CDBF10E0A0E6B0E0E6E2F1E202C005900C
:100070000D92AE3DB107D9F711E0AEEDB0E001C091
:100080001D92A139B107E1F710E0C6E5D0E004C048
:100090002297FE010E948E10C435D107C9F70E9435
:1000A0006A0F0C9492100C94000008951F920F9206
:1000B0000FB60F9211242F933F934F938F939F93DB
:1000C0005F9B45C13CB1332321F480E08093500114
:1000D0003EC120915001422F263009F489C02730BB
:1000E00080F02A3009F495C02B3058F5283009F4F7
:1000F000B2C0293008F4A0C03C3209F0C7C08AE081
:10010000E5CF223009F45FC0233018F1243009F420
:10011000B3C0253008F48CC0313408F4E6C037345D
:1001200008F0E3C03753832F9927395C8295807F8D
:1001300080935601422F96E04930F0F0892F99279D
:10014000C5CF2C3009F12C3030F12D30D9F08DE0B5
:10015000BDCF2223C9F02130D1F7313408F4CEC00D
:10016000373408F0CBC03753832F9927395C8295F9
:10017000807F8093540192E080915101830F80939E
:100180005101DCCF109250013A3309F4D6C04091AE
:1001900050019DE0D1CF313408F49CC0373408F0D1
:1001A00099C0409152013753832F9927395C942F7E
:1001B000982B9093520180915101981709F4C5C072
:1001C000422F9DE0B9CF313408F478C0373408F0BD
:1001D00075C0209154013753832F9927395C822BA6
:1001E00080935401853011F09DE0C6CF93E0C4CFD9
:1001F000313408F458C0373408F055C02091560106
:100200003753832F9927395C282B2093560197E089
:10021000B3CF313408F47BC0373408F078C037539B
:10022000832F99278295807F809352018BE04ECF58
:100230003C32D1F694E0A0CF313458F1373448F550
:100240003753832F9927395C8295807F809355019E
:10025000422F98E071CF313408F463C0373408F08E
:1002600060C0209155013753832F9927395C282B83
:100270002093550199E080CF313408F4B5CF3B3558
:1002800008F0B2CF3093530195E076CF8DE090E047
:100290001DCF832F80538A3020F43A3388F6992774
:1002A000D3CF9DE049CF832F80538A30D0F7209160
:1002B00056013A3308F0A4CF9927A6CF932F905335
:1002C0009A3078F7209154013A3308F084CF892F7F
:1002D000992785CF832F80538A3018F74091520198
:1002E0003A3308F060CF992762CF832F80538A304A
:1002F000C0F63A3308F016CF992718CF832F8053D2
:100300008A3078F63A3308F02ECF992730CF832FF2
:1003100080538A3008F0BACF3A3308F080CF99275B
:1003200081CF832F80538A3008F0BBCF20915501B5
:100330003A3308F098CF99279ACF1092560110922D
:1003400055011092510181E0C1CE8CE0BFCE9F914A
:100350008F914F913F912F910F900FBE0F901F9053
:1003600018951F920F920FB60F9211248F938091C0
:100370008401833021F4109284018DE08CB98F9137
:100380000F900FBE0F901F9018951F920F920FB6EF
:100390000F9211248F939F93EF93FF938091840189
:1003A0008230A1F0833018F0853010F50DC088231D
:1003B00041F08130E9F48AE38CB982E080938401D2
:1003C00017C084E080938401559812C090918301F6
:1003D0009C3250F4E92FFF27E95AFE4F80819F5F3E
:1003E000909383018CB904C083E080938401559875
:1003F000FF91EF919F918F910F900FBE0F901F90E3
:100400001895CF93DF93EC019A819130D1F0913020
:1004100030F09230E1F0933081F01A822FC0E88101
:10042000F9810190F081E02DCE010995882331F109
:100430008EE18C8381E08A8321C08C81882369F3DB
:100440001DC08C81882389F482E08A839B83E881A4
:10045000F9810190F081E02DCE010995882371F496
:100460008EE18C8383E08A8309C0E881F981019061
:10047000F081E02DCE010995882379F2DF91CF91AB
:1004800008951F920F920FB60F9211242F933F934E
:100490008F939F9320918E0130E0822F9927877050
:1004A0009070892B09F031E02F5F20938E018091AD
:1004B0002101882319F0815080932101809122012C
:1004C000882319F0332309F45DC080912301882328
:1004D00019F0332309F452C080912801882319F0C0
:1004E00081508093280180912901882319F03323BA
:1004F00009F440C080912A01882379F1332309F05F
:1005000045C0815080932A0180913701882329F0CA
:100510008091370181508093370180913C0188237D
:1005200029F080913C01815080933C0180914101F0
:10053000882329F08091410181508093410180916D
:100540004601882389F480914E018F3FF9F0809114
:100550004E018F5F80934E0119C03323B9F480910F
:1005600037018823D1F2D4CF809146018150809306
:100570004601E9CF815080932901BCCF81508093FF
:100580002301AACF8150809322019FCF9F918F9109
:100590003F912F910F900FBE0F901F901895FC0167
:1005A000E85AFF4F8381E855F0408823F1F4E35A7D
:1005B000FF4F8381ED55F0408823B9F4E25BFF4F94
:1005C0008381EE54F040882381F4E559FF4F808108
:1005D000EB56F0408C3049F0EE59FF4F868120E019
:1005E00030E0853029F0C901089581E090E0089558
:1005F00021E030E0F8CFCF93DF93EC018E898823A0
:1006000091F01E8A6E981C8AE881F9810190F08130
:10061000E02DCE010995E881F9810280F381E02D7A
:1006200060E0CE010995DF91CF910895CF93DF93DC
:10063000DC01EC018E89882309F44BC08F89882363
:1006400081F5FD01308DE30FF11D9281ED012A8DC1
:100650008091DC00882311F0992339F11092DC009D
:10066000E92FFF27ED01898D853029F1E05AFF4FF1
:10067000808180958FB9832F8F5FFD01808F8231BC
:1006800010F081E0878BED018A8D8F5F8A8F833038
:1006900000F11A8E81E08093DC00898D8F5F898F55
:1006A00018C0CD010E94FB0214C02230B8F690E1C0
:1006B000E0E1F0E0D7CF2223C9F69A30B8F68B8D6F
:1006C0008823A1F2E05AFF4F8FE79081891B8FB9F1
:1006D000D2CFDF91CF910895CF93DF93EC018C8936
:1006E0008823B1F08E89882399F46E9A6C9AE881F8
:1006F000F9810280F381E02D61E0CE01099581E06E
:100700008E8B1F8A188E198E1A8ECE010E941603A8
:10071000DF91CF9108951F920F920FB60F9211247F
:100720000F931F932F933F934F935F936F937F93F9
:100730008F939F93AF93BF93EF93FF9301E011E0EB
:10074000C8010E941603C8014C970E941603FF912E
:10075000EF91BF91AF919F918F917F916F915F9139
:100760004F913F912F911F910F910F900FBE0F90BE
:100770001F901895DC0183E0689FB00111246E5F23
:100780007F4FFB01EA0FFB1F6250704082818F5F39
:10079000828382818A30F4F01282FB013196EA0F63
:1007A000FB1F82818F5F82838281992787FD9095CD
:1007B000242F332727FD3095281739075CF4128240
:1007C000FB01EA0FFB1F82818F5F828382818A3067
:1007D0000CF0128281E0FD01848B0895DC0183E03E
:1007E000689F900111242F5F3F4FF901EA0FFB1F13
:1007F0002150304082818F5F82838281992787FDDB
:100800009095552747FD5095481759075CF412827B
:10081000F901EA0FFB1F82818F5F828382818A3018
:100820000CF0128281E0FD01848B0895DC0183E0ED
:10083000689FF0011124EA0FFB1F82818F5F828382
:1008400082818A300CF0128281E0FD01848B089550
:10085000DC0183E0689F900111242E5F3F4FF90176
:10086000EA0FFB1F225030408281815082838281B7
:1008700087FF1AC099E09283F9013196EA0FFB1FB6
:10088000828181508283828187FF0EC04283F90179
:10089000EA0FFB1F828181508283828187FF04C01F
:1008A000928381E0FD01858B81E0FD01848B0895B9
:1008B000DC0183E0689FF0011124EA0FFB1F8281B5
:1008C00081508283828187FF02C089E0828381E038
:1008D000FD01848B0895CF93DF9323E0629FF001A5
:1008E0001124DF01A80FB91FED012A813196DF0124
:1008F000A80FB91FED016A813196E80FF91F8281B7
:10090000992787FD9095332727FD30955527F901C5
:10091000E49F9001E59F300DF49F300D1124820F6C
:10092000931F2AE06202B0011124860F971FDF9106
:10093000CF9108958F929F92AF92BF92CF92DF9204
:10094000EF92FF920F931F937C0144E660E00E94B8
:100950006B044C0144E661E0C7010E946B048C010A
:1009600044E662E0C7010E946B045C0144E663E078
:10097000C7010E946B046C0144E664E0C7010E9459
:100980006B04080D191D0A0D1B1D0C0D1D1D800F7C
:10099000911F1F910F91FF90EF90DF90CF90BF902C
:1009A000AF909F908F900895EF92FF920F931F93B7
:1009B000CF93DF93EC01062F7A01CA016AE070E061
:1009C0000E94791023E0029F80011124F8013296E1
:1009D000EC0FFD1F8283C7016AE070E00E9479106E
:1009E0009B01CB016AE070E00E947910F80131961A
:1009F000EC0FFD1F8283C9016AE070E00E9479104C
:100A00009B01CB016AE070E00E947910F801EC0FC5
:100A1000FD1F8283882321F437FF02C081E1828396
:100A200081E08C8BDF91CF911F910F91FF90EF9020
:100A30000895CF93DF939C0183E0689FF001112418
:100A4000DF01A20FB31FED011A823196DF01A20F61
:100A5000B31FED011A823196E20FF31F128281E07B
:100A6000F901848BDF91CF910895CF93DF939C019F
:100A700083E0689FF0011124DF01A20FB31F81E121
:100A8000ED018A833196DF01A20FB31FED014A8386
:100A90003196E20FF31F828381E0F901848BDF91AD
:100AA000CF910895DC01FC01128281E090E0FC010D
:100AB000EA0FFB1F1282019682319105C1F7FD01F9
:100AC000158A81E0848B168A838F6E980895FC01C5
:100AD0008085863009F48DC08730B8F0893009F4FC
:100AE0009CC08A3038F18B3009F48DC08B30A8F16E
:100AF0008C3029F5662309F4C6C082818160828327
:100B000080818F5F808381E01BC0823009F467C0E1
:100B10008330C8F0843009F44CC0853048F1662336
:100B200009F0A5C081818D7F818386E0808780E088
:100B300090E0ADC0873009F447C0883021F180E0F3
:100B400010869927A4C0882349F18130C1F76383B7
:100B500082E0808780E090E09AC0662309F08FC031
:100B600082818B7F82838BE0808780E090E08FC0E2
:100B7000662309F080C08181877F818384E080873C
:100B800080E090E084C0662309F06DC082818F7E92
:100B9000828389E0808780E090E079C0662309F055
:100BA0005EC082818F7B828381E0808780E090E0DD
:100BB0006EC0662309F04FC081818B7F818385E001
:100BC000808780E090E063C0662309F040C08281A6
:100BD0008F7D828388E0808780E090E058C0662324
:100BE00091F581818F7E818383E0808780E090E032
:100BF0004EC0662321F581818E7F818387E08087C7
:100C000080E090E044C06623B1F482818D7F8283CE
:100C10008CE0808780E090E03AC0662341F48281D6
:100C2000877F82838AE0808780E090E030C0828185
:100C300088608283F7CF828182608283E9CF81815D
:100C400081608183DBCF818180618183CDCF82818F
:100C500080628283BFCF818184608183B0CF8281B3
:100C600080648283A1CF82818061828392CF8181DF
:100C7000826081835ACF8181886081837FCF828126
:100C80008460828370CF82818E7F828339CF089582
:100C9000CF93DF93EC018F81883010F46F3620F012
:100CA0001E82188681E03BC06F3290F46E30C0F037
:100CB00090E08E81823051F1833060F4882391F08E
:100CC000813071F49130D1F0992351F482E027C042
:100CD00091E0EFCF843081F0843030F0853051F0F6
:100CE00086E01DC080E01BC0913091F09923C1F7D0
:100CF00084E015C085E013C0992391F760E0CE0130
:100D00000E9467058823B1F783E009C0992341F762
:100D100061E0CE010E946705882361F781E08E8340
:100D20001F82DF91CF9108952CB53DB54091E3002E
:100D30005091E4004217530770F4B901641B750B1E
:100D40003093E4002093E3006F3F710561F058F0A9
:100D50006FEF70E008C02B5C334FB901641B750B5B
:100D600025533C40EDCF8E599F4F0E944806089571
:100D7000FC018681853019F080E090E00895828141
:100D80009927262F332782179307B1F7442349F079
:100D900082818483838185831682108681E090E03E
:100DA000089594818281981799F795818381981786
:100DB00079F7E2CF8093E0008091E0008093E1003A
:100DC0006093E20085B5836085BD8DE783BD08959E
:100DD000FB019A01CA016AE070E00E946510805D23
:100DE0008283C9016AE070E00E9465109B01862F32
:100DF0006AE00E945910905D9183822F0E945910E1
:100E00000E945910905D908308957F928F929F92D7
:100E1000AF92BF92CF92DF92EF92FF920F931F9308
:100E2000CF93DF93EC01A6EACA2ED12CC80ED91EAF
:100E3000F6018081882309F4B5C0C955DF4F888049
:100E4000259749915991A880B98023979880C15AD4
:100E5000D040BE01625E7F4F9E012E5F3F4FFBE69A
:100E6000EF2EF12CEC0EFD1EF70184A9823009F45F
:100E700099C084A9813009F495C08E010E581F4F86
:100E800082E3F8018083CD58DF4F86E389938CE2BB
:100E90008883C457D040DE01AB58BF4F80E090E05C
:100EA00011C0EEE2EC93FB01E80FF91FE081EA309C
:100EB000B8F0EEE27E2EFD017786019611968F3016
:100EC0009105C1F0F901E80FF91FE081EA3048F718
:100ED000E05DEC93FB01E80FF91FE081EA3048F791
:100EE000F0E37F2E7E0EFD017786019611968F30FE
:100EF000910541F7F9E1F91508F04BC08EE2CD56A6
:100F0000DF4F8883C359D040BE016C567F4FC70165
:100F10000E94E806BE0169567F4FA501C7010E94E5
:100F2000E806882D81548A3190F18EE2C656DF4F53
:100F30008883CA59D040F801219191E08191280F0E
:100F40009F5F9932D9F7C556DF4F8CE28883CB5922
:100F5000D040822F82958F708A3008F1895C992762
:100F6000C456DF4F8883CC59D040822F8F708A308F
:100F700098F0895C9927C356DF4F8993559818825A
:100F800081E0F70184AB559AF60110820BC0882DE1
:100F9000CDCF892D8F5BB3CF805D9927ECCF805D5E
:100FA0009927DECFDF91CF911F910F91FF90EF90A6
:100FB000DF90CF90BF90AF909F908F907F900895DB
:100FC000662311F0DF9A0895DF980895662311F0E3
:100FD000DD9A0895DD980895662311F0A89A089582
:100FE000A8980895662311F0AA9A0895AA980895DA
:100FF0006330C9F0643038F0643079F0653051F016
:1010000080E090E00895613059F06230C9F784E0E3
:1010100090E0089588E090E0089582E090E00895DF
:1010200080E190E0089581E090E008956330C9F098
:10103000643038F0643079F0653051F080E090E051
:101040000895613059F06230C9F780E290E0089568
:1010500080E190E0089580E490E0089588E090E0D9
:10106000089580E890E008950895089580B38295EA
:10107000869586958370809581709927089580B3B1
:10108000829586958770809581709927089580B3A1
:1010900082958F70809581709927089586B3809589
:1010A0008170992708950F931F93DC01062F19B3C0
:1010B0001095106E662301F5612F772763FD13C02D
:1010C00061FD14C060FD15C062FD0AC0CB019295A0
:1010D00082958F7089279F708927817090701BC0BF
:1010E00082E090E018C085E090E015C084E090E0D8
:1010F00012C083E090E00FC0ED91FC910480F58177
:10110000E02D09959927612F772786239723892B2F
:10111000A9F2802F99271F910F9108950F931F9384
:10112000DC01062F13B3109517606623E9F4612FD5
:10113000772764FD13C066FD14C017FD25C065FD4B
:101140000AC0CB0196958795969587959695879534
:10115000817090701BC082E090E018C085E090E044
:1011600015C084E090E012C0ED91FC910480F581FF
:10117000E02D09959927612F772786239723892BBF
:10118000C1F2802F992702C083E090E01F910F9158
:101190000895C29A1092900181E08093900110927C
:1011A0009001C2980895C49A10928F0181E08093B3
:1011B0008F0110928F01C4980895019709F0089546
:1011C0006F5F7F4FE1F721E02093F9001092FA0062
:1011D0001092FB002093000186E790E09093E600D8
:1011E0008093E500BC9AC498BB9AC39820931501DC
:1011F000109216011092170120931C0186E890E0CE
:101200009093020180930101BA9AC298BB9AC39845
:1012100010921F018EE890E090931E0180931D01B3
:1012200084B3877084BB85B3886F85BB1092260119
:1012300080EA90E090932501809324018AB3807E18
:101240008ABB8BB38F618BBB1092DE001092DF00E4
:101250008AEA90E090932C0180932B01A09AA898A1
:10126000A29AAA981092DE001092DF008AEB90E01A
:101270009093300180932F01D79ADF98D59ADD980B
:101280001092350182EC90E0909334018093330109
:10129000B898C09A10923A018EEC90E09093390180
:1012A000809338018C98949A10923F0184ED90E0DD
:1012B00090933E0180933D018D98959A1092440140
:1012C0008AED90E090934301809342018E98969A24
:1012D00010924D0110924D0110924F0110924B014E
:1012E00010924C0180EC8BBF8EE085BF10925001B4
:1012F0001092840110BC8CE089B988ED8AB91092F3
:10130000850110928601BF9ABE98BD9A709882EDB1
:101310008DB91092E00088E185BD8F9A08956FEF36
:101320007FEF81E090E00E94DD080895CB0143301B
:10133000F9F0443028F0443089F0453051F00895F8
:10134000413089F04230D9F749E063E00E94BA03A6
:10135000089549E060E00E94BA03089549E061E021
:101360000E94BA03089549E064E00E94BA03089518
:1013700049E062E00E94BA030895CB014330F9F0DE
:10138000443028F0443089F0453051F00895413020
:1013900089F04230D9F749E063E00E94BA0308952A
:1013A00049E060E00E94BA03089549E061E00E94CC
:1013B000BA03089549E064E00E94BA03089549E041
:1013C00062E00E94BA030895DC01623039F16430B2
:1013D00061F0FC018381882309F042C0FD01828114
:1013E0008823D9F0815082830895FC01838186305F
:1013F00090F18091DE00882381F48091DF008823C2
:1014000061F0ED91FC9111970280F381E02D61E094
:10141000CD01099582E08093DE000895FC01828170
:10142000863020F48F5F82838430B8F38091DE00B1
:10143000882399F78091DF00882379F3ED91FC915F
:1014400011970190F081E02D61E0CD01099582E0D6
:101450008093DE0008958F5F8383843050F6089573
:1014600081508383BBCFEF92FF920F931F93CF9353
:10147000DF93EC018B017A018A81833009F458C033
:101480008430B8F0853009F465C0853070F5E881A6
:10149000F9810280F381E02D4B81B801CE010995DD
:1014A0006B81C7010E94E40986E08A8381E090E0B5
:1014B00084C0813009F444C08230E8F08D8181110C
:1014C0001A828C81882399F0E881F9810190F0815A
:1014D000E02D6B81CE010995882339F181E08A8363
:1014E00082E08C8380E090E068C08630F1F11A825F
:1014F00080E090E062C0E881F9810190F081E02D08
:1015000060E0CE0109958B83882379F081E08A839E
:1015100082E08C8383E08D838CE78E8380E090E093
:101520004CC08A81843009F4B2CF80E090E045C09D
:101530008E818823A1F585E08A8380E090E03DC01C
:101540008D818823B9F483E08A8383E18D8380E0F1
:1015500090E033C0E881F9810190F081E02D6B814A
:10156000CE010995882319F2E0CF8E81882309F4F2
:10157000BECFDBCFE881F9810190F081E02D6B8156
:10158000CE010995882389F68C81882309F0AFCF95
:1015900082E08A8388E08C8380E090E00EC0E8815E
:1015A000F9810190F081E02D6B81CE0109958823AE
:1015B00009F0B7CF84E08A836ACFDF91CF911F9182
:1015C0000F91FF90EF9008951F920F920FB60F9218
:1015D00011242F933F934F935F936F937F938F9338
:1015E0009F93AF93BF93EF93FF938CB59DB52091DD
:1015F000E3003091E4002817390770F4BC01621B46
:10160000730B9093E4008093E3006F3F710561F0EA
:1016100058F06FEF70E008C08B5C934FBC01621B09
:10162000730B85539C40EDCF87E491E00E94480600
:10163000FF91EF91BF91AF919F918F917F916F91AA
:101640005F914F913F912F910F900FBE0F901F9080
:1016500018951F920F920FB60F9211242F933F935C
:101660004F935F936F937F938F939F93AF93BF93AA
:10167000EF93FF938CB59DB52091E3003091E4008A
:101680002817390770F4BC01621B730B9093E400B8
:101690008093E3006F3F710561F058F06FEF70E0E9
:1016A00008C08B5C934FBC01621B730B85539C403D
:1016B000EDCF87E491E00E944806FF91EF91BF9142
:1016C000AF919F918F917F916F915F914F913F91DA
:1016D0002F910F900FBE0F901F901895EF92FF92D1
:1016E0000F931F93CF93DF93EC01FC01E35AFF4F5D
:1016F0008381882309F460C1138282E6E82EF12CED
:10170000EC0EFD1E65E0CE010E9416044CE365E080
:10171000CE010E946B04CE55DF4F99838883C25A55
:10172000D0408E010A551F4FF8018081882369F44B
:101730008081882309F05EC181E0D8018C93C9556E
:10174000DF4F89E48883C75AD04040E061E1C70198
:101750000E94B806882309F0D4C0FE01E559FF4F66
:1017600080818C3009F4C4C0FE01E85AFF4F8381A8
:10177000882309F4F2C01382FE01EF55FF4F8081E8
:10178000882309F4B2C080E080834081465F65E031
:10179000CE014C960E9435058E010A551F4FD80187
:1017A0008C91882371F4F8018081882309F026C187
:1017B00081E0F8018083C955DF4F8DE48883C75AE3
:1017C000D040FE01E25BFF4F8381882309F4E3C030
:1017D00013824CE365E0CE010E946B04FE01EE55DE
:1017E000FF4F9183808380819181892B21F484EB49
:1017F00090E09183808380819181CC55DF4F9983E4
:101800008883C45AD0400190F081E02DCF016CE371
:1018100070E00E94791084E690E0689F9001699FD3
:10182000300D789F300D1124CF016CE370E00E94E1
:101830007910280F391FA90165E0CE010E94D40458
:1018400044E665E0CE010E946B04AC0165E0CE0188
:101850004C960E94D40465E0CE010E941905C45B39
:10186000DF4F19921882CD54D0401092DE008E01C5
:10187000065B1F4FD801ED91FC910190F081E02DA6
:1018800060E0C8010995D801ED91FC910280F381D7
:10189000E02D60E0C8010995C85BDF4F19921882FE
:1018A000C954D0401092DE008E010A5B1F4FD80150
:1018B000ED91FC910190F081E02D60E0C801099567
:1018C000D801ED91FC910280F381E02D60E0C80128
:1018D0000995CF55DF4F8881882309F057C081E0F3
:1018E0008093DF0081E090E09AC080818F5F4CCFD1
:1018F000C259DF4F8881CE56D040843409F034CFAE
:10190000108245E065E0CE010E9458044CE365E09A
:10191000CE010E946B04CE55DF4F99838883C25A53
:10192000D0408E010A551F4FD8018C91882309F0B1
:101930001BCF8C91882309F06EC081E0F801808371
:10194000C955DF4F84E48883C75AD040FE01E85A66
:10195000FF4F8381882309F00ECF40E066E5C70181
:101960000E94B806882309F007CFFE01E559FF4F12
:1019700080818C3009F025CFC259DF4F8881CE5647
:10198000D0408D3409F01DCF1082F6CE1092DF00CA
:1019900081E090E044C040E062E1C7010E94B806E7
:1019A000882309F016CFFE01E559FF4F80818C3066
:1019B00049F180E090E033C002E6E02EF12CEC0E1D
:1019C000FD1E40E060E1C7010E94B806882309F0CF
:1019D00099CEFE01E559FF4F80818C3009F0B5CEDC
:1019E000C259DF4F8881CE56D040893409F0ADCE40
:1019F000108288CECE010E9405079ECECE010E94A5
:101A00000507D6CEC259DF4F8881CE56D0408234EA
:101A100081F61082DECECE010E9405078ECFDF91C7
:101A2000CF911F910F91FF90EF9008951F920F9209
:101A30000FB60F9211241F932F933F934F935F93F1
:101A40006F937F938F939F93AF93BF93EF93FF9386
:101A500010918D01112321F4809185018130D9F1FC
:101A60008091E000882341F48091E2008823F1F422
:101A700085B5887F85BD05C08091E0008150809349
:101A8000E0008091DE00882329F08091DE00815003
:101A90008093DE0010FF05C081E0809315018093E4
:101AA000F9001930B0F4812F8F5F52C08091E200AD
:101AB00081508093E2008091E20080FFD9CF809135
:101AC000E1008093E00085B5836085BD8DE783BD2F
:101AD000D8CF80E03DC080918B01882351F4809164
:101AE0008B01882381F581E080938B0184E58093CD
:101AF0008C018091870190918801019790938801D2
:101B00008093870145E065E085EE90E00E94BA038E
:101B100045E065E081E091E00E9428048091860123
:101B2000813009F09DCF80918701909188016EE10D
:101B300070E00E946510892B09F092CF63E083E08A
:101B40000E94DA068DCF85EE90E00E940507CBCF8C
:101B500080938D01FF91EF91BF91AF919F918F91F4
:101B60007F916F915F914F913F912F911F910F90B6
:101B70000FBE0F901F901895CF92DF92EF92FF92B9
:101B80000F931F93CF93DF93EC0190EAE92EF12C92
:101B9000EC0EFD1EF701C080FE01ED5AFF4F838160
:101BA000882309F4DAC01382F70110821092E00052
:101BB00088E185BD8F9ACE014C960E945205CE01D8
:101BC0000E945205FE01E25BFF4F13821282FE016A
:101BD000E85AFF4F13821282FE01E35AFF4F13822D
:101BE0001282CE55DF4F19821882C25AD0408E0120
:101BF0000A551F4FF8018081882309F0C9C081E090
:101C0000F8018083C955DF4F88E48883C75AD040E4
:101C1000F7018081823009F4D2C0833030F1833003
:101C200009F448C0843009F48AC0F7011082F70132
:101C300080812C2D332799272817390709F441C1B2
:101C40008E010A551F4FF8018081882309F039C1A0
:101C5000F8018081882309F0AEC081E0F80180831B
:101C6000C955DF4F85E488832CC1882309F094C0CF
:101C7000CE010E946E0B8823D1F2DD24D394F701AC
:101C8000D0828E010A551F4FF8018081882309F008
:101C900010C1F801D082C955DF4F82E4888361E02A
:101CA00086E00E94DA06C656D0401882C154D04061
:101CB0001AAEBDCFFE01EE59FF4F16821086CE013F
:101CC0000E949A04AC01F3E0883E9F0708F4B1C07B
:101CD0006AE070E00E946510AB0165E0CE010E94F1
:101CE000D4048E01045E1F4FC8010E949A04AC0107
:101CF00083E0483E580708F49AC0CA016AE070E0E1
:101D00000E946510AB0165E0C8010E94D4048E01F9
:101D10000A551F4FF8018081882309F08CC081E0AB
:101D2000F8018083C955DF4F82E58883C75AD040C8
:101D300061E08AE00E94DA0684E0F7018083CE0148
:101D40000E94CF02882309F472CFCE010E9452056F
:101D5000CE014C960E94520568CF40E06CE4CE0163
:101D60008E599F4F0E94B806882309F01DCFFE01AF
:101D7000E559FF4F80818C3009F04ACFC259DF4FBF
:101D80008881CE56D040883409F042CF10820CCFE3
:101D9000CE010E94050733CF813009F046CFCE55E2
:101DA000DF4F88819981C25AD040892B21F583E089
:101DB000F70180833CCFCE010E9405074ECFFE0184
:101DC000E25BFF4F83818823D1F1138281E0F70129
:101DD00080838E010A551F4FF8018081882309F006
:101DE00049C081E0F8018083C955DF4F82E48883D0
:101DF000C75AD0401CCFFE01E25BFF4F838188238E
:101E0000E9F1138282E0F70180838E010A551F4FAA
:101E1000F8018081882309F050C081E0F8018083B7
:101E2000C955DF4F80E58883C75AD04000CF1FAA2D
:101E30006ACF1B8E52CFCE010E94050770CF40E0C3
:101E400062E1CE018E599F4F0E94B806882309F0A7
:101E5000BDCFFE01E559FF4F80818C3009F0E7CE00
:101E6000C259DF4F8881CE56D040823409F0DFCE90
:101E70001082ACCFCE010E940507B3CF40E062E1F3
:101E8000CE018E599F4F0E94B806882309F0BACF21
:101E9000FE01E559FF4F80818C3009F0C8CEC25950
:101EA000DF4F8881CE56D040823409F0C0CE1082F8
:101EB000A9CFCE010E940507ECCECE010E940507F6
:101EC000ACCFDF91CF911F910F91FF90EF90DF90FA
:101ED000CF900895CFE5D4E0DEBFCDBF89B7816153
:101EE00089BF1FBC8CE08EBD81E083BF85E39CE091
:101EF0009BBD8ABD7894EFE2EE2EE1E0FE2E72EDFE
:101F0000272E7FEF372E2E0C3F1C870104501040E8
:101F1000C5EED0E063E3462E61E0562E58E3652E11
:101F200051E0752E4DE3842E41E0942E32E4C32E11
:101F300031E0D32E27E4A22E21E0B22E809185013C
:101F40008130E9F11092260110921F01C2010E9416
:101F50000102C3010E940102C4010E940102C601E4
:101F60000E940102CE010E9405078091DE008823B5
:101F700009F482C08091DE00882309F468C041E042
:101F80006DE4C5010E94B806882309F050C0809115
:101F900050018C3009F444C0CE010E94BC0D8091E8
:101FA000FB00882309F44FC080911701882331F684
:101FB000CE010E946C0380918501813019F6A70142
:101FC000B10184E291E00E94330A882379F0809184
:101FD0008B01882359F480918B01882309F061C01B
:101FE00081E080938B018BE480938C01A801BE017A
:101FF0008DE191E00E94330A882309F4A7CF8091F4
:102000008B01882309F0A2CF80918B01882309F0EE
:102010004CC081E080938B018BE480938C0196CF40
:1020200080915301833509F0B7CF1092500161E0E0
:1020300082E00E94DA06CE010E94BC0D8091FB0076
:10204000882309F0B1CFC1010E946C03ADCFE091AC
:102050002B01F0912C010190F081E02D60E0C8018E
:102060000995E0912B01F0912C010280F381E02D84
:1020700060E0C801099583CFE0912F01F091300114
:102080000190F081E02D60E0C7010995E0912F01FA
:10209000F09130010280F381E02D60E0C7010995E5
:1020A00069CFCE010E9405079BCFCE010E94050794
:1020B000B0CF991B79E004C0991F961708F0961BC2
:1020C000881F7A95C9F780950895AA1BBB1B51E11B
:1020D00007C0AA1FBB1FA617B70710F0A61BB70B98
:1020E000881F991F5A95A9F780959095BC01CD013D
:1020F000089597FB092E07260AD077FD04D0E5DF67
:1021000006D000201AF4709561957F4F0895F6F778
:10211000909581959F4F0895EE0FFF1F0590F491C4
:06212000E02D0994FFCF41
:102126005F4237766A7C7D467F7E6F791D733D2DD3
:10213600002000000000D30835080000000055000C
:10214600550000000000C9083408000000008E0891
:102156009609160800000000550055000000000012
:102166005308BD09F80700000000EC07F20700005D
:1021760000005500550000000000E007E6070000DB
:1021860000004E080000000055000000000047084F
:0E219600000000003F08000000003608010FA6
:00000001FF
