:100000000C942B000C94FE0B0C94430C0C9453009A
:100010000C9453000C9453000C94ED060C94530074
:100020000C9453000C9400020C949D090C94550000
:100030000C94C4010C94B0010C9453000C94530024
:100040000C9453000C9453000C9453000C945300E4
:100050000C945300F70B11241FBECFE5D4E0DEBF94
:10006000CDBF10E0A0E6B0E0E0E9F0E202C005900C
:100070000D92A838B107D9F711E0A8E8B0E001C0A7
:100080001D92AF31B107E1F710E0C6E5D0E004C042
:100090002297FE010E944310C435D107C9F70E9480
:1000A000870F0C9447100C9400001F920F920FB60C
:1000B0000F9211242F933F934F938F939F935F9BA6
:1000C00045C13CB1332321F480E08093E0003EC180
:1000D0002091E000422F263009F489C0273080F0BB
:1000E0002A3009F495C02B3058F5283009F4B2C0F5
:1000F000293008F4A0C03C3209F0C7C08AE0E5CF3F
:10010000223009F45FC0233018F1243009F4B3C061
:10011000253008F48CC0313408F4E6C0373408F0D8
:10012000E3C03753832F9927395C8295807F809372
:10013000E600422F96E04930F0F0892F9927C5CF8D
:100140002C3009F12C3030F12D30D9F08DE0BDCFBD
:100150002223C9F02130D1F7313408F4CEC037342E
:1001600008F0CBC03753832F9927395C8295807F65
:100170008093E40092E08091E100830F8093E1009E
:10018000DCCF1092E0003A3309F4D6C04091E00091
:100190009DE0D1CF313408F49CC0373408F099C0C9
:1001A0004091E2003753832F9927395C942F982B85
:1001B0009093E2008091E100981709F4C5C0422FA6
:1001C0009DE0B9CF313408F478C0373408F075C0F9
:1001D0002091E4003753832F9927395C822B809339
:1001E000E400853011F09DE0C6CF93E0C4CF3134F8
:1001F00008F458C0373408F055C02091E600375352
:10020000832F9927395C282B2093E60097E0B3CF02
:10021000313408F47BC0373408F078C03753832F6B
:1002200099278295807F8093E2008BE04ECF3C320D
:10023000D1F694E0A0CF313458F1373448F5375334
:10024000832F9927395C8295807F8093E500422F28
:1002500098E071CF313408F463C0373408F060C0DF
:100260002091E5003753832F9927395C282B209361
:10027000E50099E080CF313408F4B5CF3B3508F084
:10028000B2CF3093E30095E076CF8DE090E01DCFC4
:10029000832F80538A3020F43A3388F69927D3CFBE
:1002A0009DE049CF832F80538A30D0F72091E6001C
:1002B0003A3308F0A4CF9927A6CF932F90539A30C2
:1002C00078F72091E4003A3308F084CF892F9927FA
:1002D00085CF832F80538A3018F74091E2003A335C
:1002E00008F060CF992762CF832F80538A30C0F601
:1002F0003A3308F016CF992718CF832F80538A30CE
:1003000078F63A3308F02ECF992730CF832F8053D9
:100310008A3008F0BACF3A3308F080CF992781CFDE
:10032000832F80538A3008F0BBCF2091E5003A3309
:1003300008F098CF99279ACF1092E6001092E50026
:100340001092E10081E0C1CE8CE0BFCE9F918F91F1
:100350004F913F912F910F900FBE0F901F901895C6
:100360001F920F920FB60F9211248F938091140158
:10037000833021F4109214018DE08CB98F910F908D
:100380000FBE0F901F9018951F920F920FB60F92ED
:1003900011248F939F93EF93FF93809114018230E8
:1003A000A1F0833018F0853010F50DC0882341F09E
:1003B0008130E9F48AE38CB982E08093140117C09C
:1003C00084E080931401559812C0909113019C32DF
:1003D00050F4E92FFF27E951FF4F80819F5F9093F1
:1003E00013018CB904C083E0809314015598FF91E8
:1003F000EF919F918F910F900FBE0F901F901895C6
:100400001F920F920FB60F9211242F933F938F9349
:100410009F9320911E0130E0822F99278770907062
:10042000892B09F031E02F5F20931E018091C500D8
:10043000882319F0332309F466C08091C60088230D
:1004400019F0332309F453C08091C900882319F0AF
:10045000332309F448C08091CA008823B9F13323BB
:1004600009F055C090918E00992319F08150809326
:10047000CA0081E0982790938E008091CD00882358
:1004800029F08091CD0081508093CD008091D000E3
:10049000882329F08091D00081508093D0008091F2
:1004A000D300882329F08091D30081508093D3001A
:1004B0008091D600882389F48091DE008F3F39F146
:1004C0008091DE008F5F8093DE0021C03323F9F43A
:1004D0008091CD008823D1F2D4CF8091D600815075
:1004E0008093D600E9CF81508093C900B4CF90911A
:1004F0008D00992319F081508093C60081E09827E0
:1005000090938D00A1CF81508093C50096CF9F918D
:100510008F913F912F910F900FBE0F901F901895C4
:10052000FC01EE5BFF4F8181E254F0408823E1F44F
:10053000EB5BFF4F8181E554F0408823A9F4FC96E2
:100540008181FC97882381F4EF5AFF4F8081E15528
:10055000F0408C3049F0E85BFF4F868120E030E0CE
:10056000853029F0C901089581E090E0089521E0E7
:1005700030E0F8CFFC018085863009F48DC08730EB
:10058000B8F0893009F49CC08A3038F18B3009F416
:100590008DC08B30A8F18C3029F5662309F4C6C0D4
:1005A00082818160828380818F5F808381E01BC034
:1005B000823009F467C08330C8F0843009F44CC03D
:1005C000853048F1662309F0A5C081818D7F818344
:1005D00086E0808780E090E0ADC0873009F447C0B6
:1005E000883021F180E010869927A4C0882349F142
:1005F0008130C1F7638382E0808780E090E09AC019
:10060000662309F08FC082818B7F82838BE0808795
:1006100080E090E08FC0662309F080C08181877FF1
:10062000818384E0808780E090E084C0662309F0C5
:100630006DC082818F7E828389E0808780E090E038
:1006400079C0662309F05EC082818F7B828381E05E
:10065000808780E090E06EC0662309F04FC0818102
:100660008B7F818385E0808780E090E063C0662394
:1006700009F040C082818F7D828388E0808780E09E
:1006800090E058C0662391F581818F7E818383E05D
:10069000808780E090E04EC0662321F581818E7FC7
:1006A000818387E0808780E090E044C06623B1F4D6
:1006B00082818D7F82838CE0808780E090E03AC0E9
:1006C000662341F48281877F82838AE0808780E08D
:1006D00090E030C0828188608283F7CF828182601F
:1006E0008283E9CF818181608183DBCF81818061D9
:1006F0008183CDCF828180628283BFCF81818460FC
:100700008183B0CF828180648283A1CF8281806126
:10071000828392CF8181826081835ACF8181886078
:1007200081837FCF82818460828370CF82818E7F3C
:10073000828339CF0895CF93DF93EC018F81883086
:1007400010F46F3620F01E82188681E03BC06F32B5
:1007500090F46E30C0F090E08E81823051F18330A1
:1007600060F4882391F0813071F49130D1F09923B5
:1007700051F482E027C091E0EFCF843081F08430E3
:1007800030F0853051F086E01DC080E01BC0913014
:1007900091F09923C1F784E015C085E013C0992337
:1007A00091F760E0CE010E94BA028823B1F783E09E
:1007B00009C0992341F761E0CE010E94BA02882363
:1007C00061F781E08E831F82DF91CF9108952CB570
:1007D0003DB540918B0050918C004217530770F447
:1007E000B901641B750B30938C0020938B006F3F15
:1007F000710561F058F06FEF70E008C02B5C334F6B
:10080000B901641B750B25533C40EDCF885B9F4FAE
:100810000E949B030895FC018681853019F080E0D9
:1008200090E0089582819927262F33278217930716
:10083000B1F7442349F082818483838185831682C2
:10084000108681E090E0089594818281981799F74D
:1008500095818381981779F7E2CF80938800809102
:1008600088008093890060938A0085B5836085BD88
:100870008DE783BD0895FB019A01CA016AE070E02B
:100880000E941A10805D8283C9016AE070E00E94B4
:100890001A109B01862F6AE00E940E10905D9183D2
:1008A000822F0E940E100E940E10905D908308957A
:1008B0009F92AF92BF92CF92DF92EF92FF920F93EF
:1008C0001F93CF93DF93EC019CE8C92ED12CCC0E63
:1008D000DD1EF6018081882309F4AFC0C357DF4FC6
:1008E0009880259749915991A880B980239768816C
:1008F000C758D0409E01265E3F4F81E5E82EF12C7F
:10090000EC0EFD1EF70184A9823009F496C084A97B
:10091000813009F492C08E01085A1F4F82E3F8011A
:100920008083C75ADF4F86E389938CE28883CA5558
:10093000D040DE01A55ABF4F80E090E010C0EEE24B
:10094000EC93F901E80FF91FE081EA30B0F07EE2A4
:10095000FD017787019611968F309105B9F0FE0160
:10096000E80FF91FE081EA3050F7E05DEC93F90100
:10097000E80FF91FE081EA3050F77E2F705DFD012E
:100980007787019611968F30910549F76A3108F4FF
:100990004BC08EE2C758DF4F8883C957D040BE0195
:1009A00066587F4FC7010E943B04BE0163587F4FCA
:1009B000A501C7010E943B04892D81548A3190F121
:1009C0008EE2C058DF4F8883C058D040F801219193
:1009D00091E08191280F9F5F9932D9F7CF57DF4F70
:1009E0008CE28883C158D040822F82958F708A30E4
:1009F00008F1895C9927CE57DF4F8883C258D040D1
:100A0000822F8F708A3098F0895C9927CD57DF4FFD
:100A100089935598188281E0F70184AB559AF601C5
:100A200010820BC0892DCDCF862F8F5BB3CF805D19
:100A30009927ECCF805D9927DECFDF91CF911F9171
:100A40000F91FF90EF90DF90CF90BF90AF909F906D
:100A50000895FC0190819130A1F0913030F09230F6
:100A6000B1F0933049F010820895B099FDCF8EE136
:100A7000828381E08083089582818823A9F7108290
:100A8000F3CF8281882351F482E080839183B09BED
:100A9000EBCF8EE1828383E080830895B09BE4CF27
:100AA00010820895FC0190819130A1F0913030F0D6
:100AB0009230B1F0933049F0108208958499FDCFBF
:100AC0008EE1828381E08083089582818823A9F763
:100AD0001082F3CF8281882351F482E08083918356
:100AE000849BEBCF8EE1828383E080830895849B97
:100AF000E4CF10820895FC0190819130A1F09130F3
:100B000030F09230B1F0933049F010820895859919
:100B1000FDCF8EE1828381E08083089582818823E6
:100B2000A9F71082F3CF8281882351F482E0808379
:100B30009183859BEBCF8EE1828383E08083089550
:100B4000859BE4CF10820895FC0190819130A1F043
:100B5000913030F09230B1F0933049F01082089526
:100B60008699FDCF8EE1828381E080830895828122
:100B70008823A9F71082F3CF8281882351F482E081
:100B800080839183869BEBCF8EE1828383E0808399
:100B90000895869BE4CF10820895EF92FF920F9301
:100BA0001F93CF93DF93EC01062F7A01CA016AE00D
:100BB00070E00E942E1023E0029F80011124F801B2
:100BC0003296EC0FFD1F8083C7016AE070E00E943F
:100BD0002E109B01CB016AE070E00E942E10F801FC
:100BE0003196EC0FFD1F8083C9016AE070E00E941E
:100BF0002E109B01CB016AE070E00E942E10FE01D6
:100C0000E00FF11F8083882321F437FF02C081E1C8
:100C1000808381E08A8BDF91CF911F910F91FF90AC
:100C2000EF900895EF92FF920F931F93CF93DF936E
:100C3000EC01062F7A01CA016AE070E00E942E10D2
:100C400023E0029F80011124F8013296EC0FFD1F72
:100C50008083C7016AE070E00E942E109B01CB01E7
:100C60006AE070E00E942E10F8013196EC0FFD1F33
:100C70008083C9016AE070E00E942E109B01CB01C5
:100C80006AE070E00E942E10FE01E00FF11F8083E9
:100C9000882321F437FF02C081E1808381E08A8BC1
:100CA000DF91CF911F910F91FF90EF900895FC017C
:100CB0008281882311F0662381F48381882361F087
:100CC000662351F090918D00992311F08150838318
:100CD00081E0982790938D00089581508283EDCF15
:100CE000FC018281882311F0662381F483818823AB
:100CF00061F0662351F090918E00992311F081509C
:100D0000838381E0982790938E0008958150828399
:100D1000EDCFDC0183E0689FB00111246E5F7F4F4F
:100D2000FD01E60FF71F6250704080818F5F808366
:100D300080818A30F4F01082FB013196EA0FFB1FAC
:100D400080818F5F80838081992787FD9095242FF4
:100D5000332727FD3095281739075CF41082FB01F3
:100D6000EA0FFB1F80818F5F808380818A300CF0C7
:100D7000108281E0FD01828B0895DC0183E0689F91
:100D8000900111242E5F3F4FFD01E20FF31F22500F
:100D90003040808181508083808187FF1AC099E034
:100DA0009083F9013196EA0FFB1F80818150808387
:100DB000808187FF0EC04083F901EA0FFB1F80810D
:100DC00081508083808187FF04C0908381E0FD0192
:100DD000838B81E0FD01828B08951F920F920FB6E5
:100DE0000F9211241F932F933F934F935F936F9311
:100DF0007F938F939F93AF93BF93EF93FF93109144
:100E00001D01112321F480911501813061F1809140
:100E10008800882359F480918A00882389F485B555
:100E2000887F85BD193048F080E05AC080918800E5
:100E30008150809388001930B8F7812F8F5F50C0A0
:100E400080918A00815080938A0080918A0080FF7F
:100E5000E6CF809189008093880085B5836085BD49
:100E60008DE783BDE8CF80911B01882351F48091E9
:100E70001B01882381F581E080931B0184E5809329
:100E80001C0180911701909118010197909318010E
:100E90008093170145E065E08FE890E00E948906A5
:100EA00045E065E089EA90E00E94BD068091160168
:100EB000813009F0ACCF80911701909118016EE15B
:100EC00070E00E941A10892B09F0A1CF63E083E043
:100ED0000E942D049CCF8FE890E00E945804CBCF55
:100EE00080931D01FF91EF91BF91AF919F918F91E1
:100EF0007F916F915F914F913F912F911F910F9033
:100F00000FBE0F901F901895DC011C9281E090E0BD
:100F1000FD01E80FF91F1082019682319105C1F79A
:100F2000FD01138A81E0828B148A818F6E98089567
:100F3000DC011C9281E090E0FD01E80FF91F1082B6
:100F4000019682319105C1F7FD01138A81E0828B00
:100F5000148A818F6E980895DC0183E0689FF00108
:100F60001124EA0FFB1F80818F5F808380818A308C
:100F70000CF0108281E0FD01828B0895DC0183E09A
:100F8000689FF0011124EA0FFB1F8081815080834C
:100F9000808187FF02C089E0808381E0FD01828B30
:100FA000089523E0629FF0011124DC01AE0FBF1F02
:100FB0002C913196DC01AE0FBF1F6C913196E80F7A
:100FC000F91F8081992787FD9095332727FD30955C
:100FD0005527F901E49F9001E59F300DF49F300DF6
:100FE0001124820F931F2AE06202B0011124860FA0
:100FF000971F08958F929F92AF92BF92CF92DF92E8
:10100000EF92FF920F931F937C0144E660E00E94F1
:10101000D1074C0144E661E0C7010E94D1078C0171
:1010200044E662E0C7010E94D1075C0144E663E048
:10103000C7010E94D1076C0144E664E0C7010E9429
:10104000D107080D191D0A0D1B1D0C0D1D1D800F4C
:10105000911F1F910F91FF90EF90DF90CF90BF9065
:10106000AF909F908F9008959C0183E0689FF0015E
:101070001124D901AE0FBF1F1C923196D901AE0FBA
:10108000BF1F1C923196E20FF31F108281E0F9011D
:10109000828B089523E0629FF0011124DC01AE0FE2
:1010A000BF1F2C913196DC01AE0FBF1F6C913196A2
:1010B000E80FF91F8081992787FD9095332727FD39
:1010C00030955527F901E49F9001E59F300DF49F7D
:1010D000300D1124820F931F2AE06202B001112407
:1010E000860F971F08958F929F92AF92BF92CF92D3
:1010F000DF92EF92FF920F931F937C0144E660E032
:101100000E944A084C0144E661E0C7010E944A0877
:101110008C0144E662E0C7010E944A085C0144E693
:1011200063E0C7010E944A086C0144E664E0C7011D
:101130000E944A08080D191D0A0D1B1D0C0D1D1DCE
:10114000800F911F1F910F91FF90EF90DF90CF9034
:10115000BF90AF909F908F900895FC018489882361
:1011600049F0148A6E98C29A128A81E0828B128AA0
:10117000C298C3980895CF93DF93DC01EC018C896A
:10118000882309F44BC08D89882381F5FD013689B8
:10119000E30FF11DE081ED01288D8091720088231D
:1011A00011F0EE2339F19E2F10927200FF27ED010E
:1011B0008F89853029F1E05AFF4F808180958FB962
:1011C000832F8F5FFD01868B823110F081E0858B4C
:1011D000ED01888D8F5F888F833000F1188E81E05C
:1011E000809372008F898F5F8F8B18C0CD010E9412
:1011F000AD0814C02230B8F690E1E0E1F0E0D7CFBE
:101200002223C9F69A30B8F6898D8823A1F2E05AD4
:10121000FF4F8FE79081891B8FB9D2CFDF91CF919C
:101220000895FC018289882311F084898111089531
:101230006E9A6C9AC39A81E0848B158A168A178AF3
:10124000108ECF010E94BB080895FC018489882379
:1012500049F0148A6E98C49A128A81E0828B128AAD
:10126000C498C3980895CF93DF93DC01EC018C8977
:10127000882309F44BC08D89882381F5FD013689C7
:10128000E30FF11DE081ED01288D80918500882319
:1012900011F0EE2339F19E2F10928500FF27ED010A
:1012A0008F89853029F1ED58FF4F808180958FB966
:1012B000832F8F5FFD01868B823110F081E0858B5B
:1012C000ED01888D8F5F888F833000F1188E81E06B
:1012D000809385008F898F5F8F8B18C0CD010E940E
:1012E000250914C02230B8F690E1E0E1F0E0D7CF54
:1012F0002223C9F69A30B8F6898D8823A1F2ED58D9
:10130000FF4F8FE79081891B8FB9D2CFDF91CF91AB
:101310000895FC018289882311F084898111089540
:101320006E9A6C9AC39A81E0848B158A168A178A02
:10133000108ECF010E94330908951F920F920FB6AD
:101340000F9211240F931F932F933F934F935F930B
:101350006F937F938F939F93AF93BF93EF93FF937D
:1013600009EA10E0C8010E94BB08C8014A970E9420
:101370003309FF91EF91BF91AF919F918F917F9131
:101380006F915F914F913F912F911F910F910F900E
:101390000FBE0F901F9018959C0183E0689FF0018D
:1013A0001124D901AE0FBF1F81E18C933196D90171
:1013B000AE0FBF1F4C933196E20FF31F808381E085
:1013C000F901828B0895DC0183E0689FB00111244C
:1013D0006E5F7F4FFD01E60FF71F62507040808106
:1013E0008F5F808380818A30F4F01082FB01319618
:1013F000EA0FFB1F80818F5F80838081992787FDA3
:101400009095242F332727FD3095281739075CF452
:101410001082FB01EA0FFB1F80818F5F8083808138
:101420008A300CF0108281E0FD01828B08950F93C9
:101430001F93CF93DF93EC018B018881823009F4F5
:101440005AC08330E0F0843009F443C0843068F53A
:101450008A81882309F041C08981282F332724FD00
:1014600086C026FD7DC087FD92C0992785FD70C08E
:1014700083FD68C085E0888389EF8A8392C08823D2
:1014800081F423B320952760822F992784FD46C0DD
:1014900086FD55C027FD78C085FF72C080E2898334
:1014A0003FC0813041F018827CC08530E1F78A81ED
:1014B0008823C9F376C08A818823B9F183B38095E4
:1014C000876099272981332782239323892B59F316
:1014D00068C083E088838AE08A8383B380958760CD
:1014E00099272981332782239323892B09F459C013
:1014F00082E0888356C08A818823F1F083B3809587
:10150000876099272981332782239323892B09F028
:1015100048C083E088838AE08A8343C080E189836E
:1015200082E08A8381E088833CC083E088838AE00C
:101530008A838CE98B8335C084E0888332C080E461
:101540008983EECF49E064E0C8010E94890692CF0A
:1015500049E063E0C8010E9489068981992788CF04
:1015600049E061E0C8010E94890689817CCF49E099
:1015700060E0C8010E9489068981282F332771CF36
:1015800083FD0CC019820DC080E88983C9CF49E072
:1015900062E0C8010E948906898167CF88E089835B
:1015A000BFCFDF91CF911F910F9108950F931F939C
:1015B000CF93DF93EC018B018881823009F453C013
:1015C0008330C0F08430E9F1843038F58A81882393
:1015D000E1F58981992783FD8BC081FD81C080FD64
:1015E00071C082FD67C084FD75C085E0888389EF86
:1015F0008A8392C0882369F489B38095806E992785
:1016000083FD44C081FD53C080FF7AC081E089839F
:101610003FC0813041F018827FC08530E1F78A8178
:101620008823C9F379C08A818823B9F189B3809569
:10163000806E99272981332782239323892B59F39D
:101640006BC083E088838AE08A8389B38095806E4B
:1016500099272981332782239323892B09F45CC09E
:1016600082E0888359C08A818823F1F089B380950C
:10167000806E99272981332782239323892B09F0B0
:101680004BC083E088838AE08A8346C088E08983F0
:1016900082E08A8381E088833FC083E088838AE098
:1016A0008A838CE98B8338C084E0888335C082E0EC
:1016B0008983EECF49E063E0C8010E94E309898194
:1016C000992791CF49E062E0C8010E94E30989812E
:1016D000992787CF49E064E0C8010E94E30985CFDC
:1016E00049E061E0C8010E94E3098981992777CF29
:1016F00049E060E0C8010E94E309898199276DCF24
:1017000082FF03C084E08983C3CF84FD02C01982B5
:1017100003C080E18983BCCFDF91CF911F910F91EE
:101720000895019709F008956F5F7F4FE1F781E019
:101730008093A1001092A2001092A3008093A800B1
:10174000BC9AC498BB9AC3988093BB001092BC000B
:101750001092BD008093C200BA9AC298BB9AC398F7
:101760001092C30084B3877084BB85B3886F85BB38
:101770001092C7008AB3807E8ABB8BB38F618BBB0C
:101780001092CB00B898C09A1092CE008C98949A80
:101790001092D1008D98959A1092D4008E98969AB6
:1017A0001092DD001092DD001092DF001092DB003D
:1017B0001092DC0080EC8BBF8EE085BF1092E000C1
:1017C0001092140110BC8CE089B988ED8AB910928E
:1017D000150110921601BF9ABE98BD9A709882EDBD
:1017E0008DB91092880088E185BD8F9A08956FEFBA
:1017F0007FEF81E090E00E94910B08951F920F927D
:101800000FB60F9211242F933F934F935F936F93D3
:101810007F938F939F93AF93BF93EF93FF938CB579
:101820009DB520918B0030918C002817390770F4FA
:10183000BC01621B730B90938C0080938B006F3FF5
:10184000710561F058F06FEF70E008C08B5C934F4A
:10185000BC01621B730B85539C40EDCF87ED90E07C
:101860000E949B03FF91EF91BF91AF919F918F9148
:101870007F916F915F914F913F912F910F900FBE8C
:101880000F901F9018951F920F920FB60F92112470
:101890002F933F934F935F936F937F938F939F9378
:1018A000AF93BF93EF93FF938CB59DB520918B00C1
:1018B00030918C002817390770F4BC01621B730B40
:1018C00090938C0080938B006F3F710561F058F00E
:1018D0006FEF70E008C08B5C934FBC01621B730B11
:1018E00085539C40EDCF87ED90E00E949B03FF91D4
:1018F000EF91BF91AF919F918F917F916F915F9188
:101900004F913F912F910F900FBE0F901F90189500
:10191000EF92FF920F931F93CF93DF93EC01FC01A3
:10192000EB5BFF4F8181882309F4FEC0118238E40C
:10193000E32EF12CEC0EFD1E65E0CE010E94AC07FB
:101940004CE365E0CE010E94D107C857DF4F998371
:101950008883C858D0408E0104571F4FF8018081FA
:10196000882369F48081882309F00DC181E0F801A2
:101970008083C357DF4F89E48883CD58D04040E04F
:1019800061E1C7010E940B04882309F088C0FE01B1
:10199000EF5AFF4F80818C3009F478C0FE01EE5B76
:1019A000FF4F8181882309F4A6C01182FE01E95707
:1019B000FF4F8081882309F466C080E080834081E6
:1019C000465F65E0CE014A960E94CC098E0104571D
:1019D0001F4FF8018081882371F4F80180818823EA
:1019E00009F0D5C081E0F8018083C357DF4F8DE453
:1019F0008883CD58D040FE01FC968181882309F46C
:101A0000B1C011824CE365E0CE010E94D107FE0116
:101A1000E857FF4F9183808380819181892B21F446
:101A200084EB90E09183808380819181C657DF4F62
:101A300099838883CA58D0402081318184E690E020
:101A4000AC01249FC001259F900D349F900D11245F
:101A50006CE370E00E942E10AB0165E0CE010E94A5
:101A6000CD0544E665E0CE010E94D107AC0165E0FA
:101A7000CE014A960E94120665E0CE010E9434080B
:101A800081E090E095C080818F5F98CFCC5ADF4F86
:101A90008881C455D040843409F080CF108245E05D
:101AA00065E0CE010E94BE074CE365E0CE010E94D6
:101AB000D107C857DF4F99838883C858D0408E011B
:101AC00004571F4FF8018081882309F067CF808178
:101AD000882309F069C081E0F8018083C357DF4F94
:101AE00084E48883CD58D040FE01EE5BFF4F8181B6
:101AF000882309F05ACF40E066E5C7010E940B0435
:101B0000882309F053CFFE01EF5AFF4F80818C30BC
:101B100009F071CFCC5ADF4F8881C455D0408D3445
:101B200009F069CF108242CF28E4E22EF12CEC0EAE
:101B3000FD1E40E060E1C7010E940B04882309F00C
:101B4000FBCEFE01EF5AFF4F80818C3009F017CF9A
:101B5000CC5ADF4F8881C455D040893409F00FCF6B
:101B60001082EACE40E062E1C7010E940B048823A4
:101B700009F048CFFE01EF5AFF4F80818C3059F0B9
:101B800080E090E015C0CE010E945804EFCECE0157
:101B90000E94580427CFCC5ADF4F8881C455D040CB
:101BA000823471F710822ECFCE010E94580493CF59
:101BB000DF91CF911F910F91FF90EF900895CF92F9
:101BC000DF92EF92FF920F931F93CF93DF93EC017D
:101BD00046E8E42EF12CE80EF91EF701C080FC0166
:101BE000FF968181882309F4D7C01182F701108202
:101BF0001092880088E185BD8F9ACE014A960E9496
:101C00008407CE010E949807EC961982EC971CAECF
:101C1000FE01EE5BFF4F11821082FE01EB5BFF4F76
:101C200011821082C857DF4F19821882C858D040DD
:101C30008E0104571F4FF8018081882309F0C7C027
:101C400081E0F8018083C357DF4F88E48883CD5853
:101C5000D040F7018081823009F4D0C0833030F168
:101C6000833009F446C0843009F488C0F70110823B
:101C7000F70180812C2D332799272817390709F47C
:101C80003DC18E0104571F4FF8018081882309F060
:101C900035C1F8018081882309F0ACC081E0F801EA
:101CA0008083C357DF4F85E4888328C1882309F0E8
:101CB00092C0CE010E94880C8823D1F2DD24D394F7
:101CC000F701D0828E0104571F4FF80180818823CD
:101CD00009F00CC1F801D082C357DF4F82E488833A
:101CE000CD58D04061E086E00E942D0418AE1CAAB9
:101CF000BFCFFE01E85BFF4F16821086CE010E9427
:101D0000FA07AC01F3E0883E9F0708F4AFC06AE031
:101D100070E00E941A10AB0165E0CE010E94CD0573
:101D20008E01065E1F4FC8010E947308AC0183E05C
:101D3000483E580708F498C0CA016AE070E00E9463
:101D40001A10AB0165E0C8010E9412068E0104570B
:101D50001F4FF8018081882309F08AC081E0F801D3
:101D60008083C357DF4F82E58883CD58D04061E040
:101D70008AE00E942D0484E0F7018083CE010E9456
:101D80009002882309F474CFCE010E949807CE01F7
:101D90004A960E9484076ACF40E06CE4CE01885BDB
:101DA0009F4F0E940B04882309F020CFFE01EF5AB9
:101DB000FF4F80818C3009F04CCFCC5ADF4F8881A7
:101DC000C455D040883409F044CF10820FCFCE01E3
:101DD0000E94580435CF813009F048CFC857DF4FF3
:101DE00088819981C858D040892B19F583E0F70183
:101DF00080833ECFCE010E94580450CFFE01FC9656
:101E000081818823C9F1118281E0F70180838E01ED
:101E100004571F4FF8018081882309F048C081E0F2
:101E2000F8018083C357DF4F82E48883CD58D040C8
:101E30001FCFFE01FC9681818823E9F1118282E0A7
:101E4000F70180838E0104571F4FF801808188239A
:101E500009F050C081E0F8018083C357DF4F80E56F
:101E60008883CD58D04004CF1BAA6CCF198E54CF95
:101E7000CE010E94580472CF40E062E1CE01885B3F
:101E80009F4F0E940B04882309F0BECFFE01EF5A3A
:101E9000FF4F80818C3009F0EBCECC5ADF4F888128
:101EA000C455D040823409F0E3CE1082ADCFCE01CC
:101EB0000E945804B4CF40E062E1CE01885B9F4F9E
:101EC0000E940B04882309F0BACFFE01EF5AFF4F9E
:101ED00080818C3009F0CCCECC5ADF4F8881C4553C
:101EE000D040823409F0C4CE1082A9CFCE010E9426
:101EF0005804F0CECE010E945804ACCFDF91CF91B0
:101F00001F910F91FF90EF90DF90CF900895CFE554
:101F1000D4E0DEBFCDBF89B7816189BF1FBC8CE033
:101F20008EBD81E083BF85E39CE09BBD8ABD789434
:101F3000B9EA6B2EB0E07B2EAEE12A2E312C260CB6
:101F4000371CE3016A97F4E34F2E512C4C0E5D1EB3
:101F5000ECE38E2E912C8C0E9D1E7FE3A72EB12CD0
:101F6000AC0EBD1E61EDC62E60E0D62E54EDE52E02
:101F700050E0F52E07ED10E080911501813081F1E0
:101F80001092C7001092C300C4010E942905C50128
:101F90000E945205C6010E947B05C7010E94A4054C
:101FA000CE010E94580441E06DE4C8010E940B0478
:101FB000882329F58091E0008C30D9F0CE010E9471
:101FC000DF0D8091A300882329F18091BD00882333
:101FD00099F6CE010E94890980911501813081F620
:101FE000B301C1010E94D60ABE01C2010E94170AB4
:101FF000CBCF8091E300833509F71092E00061E0D8
:1020000082E00E942D04CE010E94DF0D8091A3008A
:102010008823D9F6C3010E941109D7CF991B79E013
:1020200004C0991F961708F0961B881F7A95C9F768
:1020300080950895AA1BBB1B51E107C0AA1FBB1FB7
:10204000A617B70710F0A61BB70B881F991F5A9544
:10205000A9F780959095BC01CD01089597FB092EB5
:1020600007260AD077FD04D0E5DF06D000201AF459
:10207000709561957F4F0895F6F7909581959F4FE4
:102080000895EE0FFF1F0590F491E02D0994FFCF06
:102090005F4237766A7C7D467F7E6F791D733D2D6A
:1020A0000020015F4237766A7C7D467F7E6F791D16
:0820B000733D2D0020010F001B
:00000001FF
