:100000000C942B000C947D0B0C94380B0C94530027
:100010000C9453000C9453000C94C20B0C9453009A
:100020000C9453000C9455000C94E2080C9453006B
:100030000C9453000C9453000C9453000C945300F4
:100040000C9453000C9453000C9453000C945300E4
:100050000C945300310B11241FBECFE5D4E0DEBF5A
:10006000CDBF10E0A0E6B0E0E6E0F0E202C005900F
:100070000D92A838B107D9F711E0A8E8B0E001C0A7
:100080001D92AD31B107E1F710E0C6E5D0E004C044
:100090002297FE010E94FE0FC435D107C9F70E94C6
:1000A000420F0C9402100C9400001F920F920FB696
:1000B0000F9211242F933F938F939F9320911C01B4
:1000C00030E0822F992787709070892B09F031E0FA
:1000D0002F5F20931C012091C500222381F0809185
:1000E000C300853009F450C090918D00992319F018
:1000F00021502093C50081E0982790938D00209196
:10010000C800222381F08091C600853009F440C0E8
:1001100090918E00992319F021502093C80081E01E
:10012000982790938E003323B1F58091CB008823DC
:1001300029F08091CB0081508093CB008091CE003C
:10014000882329F08091CE0081508093CE00809149
:10015000D100882329F08091D10081508093D10073
:100160008091D400882351F48091DC008F3F99F076
:100170008091DC008F5F8093DC000DC08091D40003
:1001800081508093D400F0CF332309F0B8CFACCFA7
:10019000332309F4BDCF9F918F913F912F910F9001
:1001A0000FBE0F901F901895FC01E05CFF4F8181FE
:1001B000E054F0408823E1F4ED5BFF4F8181E3548C
:1001C000F0408823A9F4FA968181FA97882381F474
:1001D000E15BFF4F8081EF54F0408C3049F0EA5BE7
:1001E000FF4F868120E030E0853029F0C901089575
:1001F00081E090E0089521E030E0F8CFFC018085B7
:10020000863009F48DC08730B8F0893009F49CC07D
:100210008A3038F18B3009F48DC08B30A8F18C30E6
:1002200029F5662309F4C6C08281816082838081BA
:100230008F5F808381E01BC0823009F467C0833008
:10024000C8F0843009F44CC0853048F1662309F0C9
:10025000A5C081818D7F818386E0808780E090E0EA
:10026000ADC0873009F447C0883021F180E01086A6
:100270009927A4C0882349F18130C1F7638382E0C4
:10028000808780E090E09AC0662309F08FC0828169
:100290008B7F82838BE0808780E090E08FC0662335
:1002A00009F080C08181877F818384E0808780E03E
:1002B00090E084C0662309F06DC082818F7E8283C6
:1002C00089E0808780E090E079C0662309F05EC015
:1002D00082818F7B828381E0808780E090E06EC0A6
:1002E000662309F04FC081818B7F818385E0808701
:1002F00080E090E063C0662309F040C082818F7D7A
:10030000828388E0808780E090E058C0662391F582
:1003100081818F7E818383E0808780E090E04EC082
:10032000662321F581818E7F818387E0808780E04D
:1003300090E044C06623B1F482818D7F82838CE09B
:10034000808780E090E03AC0662341F48281877F15
:1003500082838AE0808780E090E030C0828188607C
:100360008283F7CF828182608283E9CF818181603D
:100370008183DBCF818180618183CDCF8281806267
:100380008283BFCF818184608183B0CF828180648A
:100390008283A1CF82818061828392CF81818260BA
:1003A00081835ACF8181886081837FCF82818460FD
:1003B000828370CF82818E7F828339CF0895CF93DD
:1003C000DF93EC018F818F3010F46F3D20F01E829F
:1003D000188681E03BC0693590F46C31C0F090E044
:1003E0008E81823051F1833060F4882391F0813026
:1003F00071F49130D1F0992351F482E027C091E05B
:10040000EFCF843081F0843030F0853051F086E0D9
:100410001DC080E01BC0913091F09923C1F784E0AA
:1004200015C085E013C0992391F760E0CE010E94CA
:10043000FE008823B1F783E009C0992341F761E00A
:10044000CE010E94FE00882361F781E08E831F8227
:10045000DF91CF9108952CB53DB540918B0050911F
:100460008C004217530770F4B901641B750B30936D
:100470008C0020938B006F3F710561F058F06FEF97
:1004800070E008C02659374EB901641B750B2A5617
:100490003841EDCF8A5B9F4F0E94DF010895FC0138
:1004A0008681853019F080E090E008958281992757
:1004B000262F332782179307B1F7442349F082810F
:1004C0008483838185831682108681E090E008957D
:1004D00094818281981799F795818381981779F78C
:1004E000E2CF809388008091880080938900609398
:1004F0008A0085B5836085BD8AEF83BD0895FB01C1
:100500009A01CA016AE070E00E94D50F805D828383
:10051000C9016AE070E00E94D50F9B01862F6AE056
:100520000E94C90F905D9183822F0E94C90F0E9483
:10053000C90F905D908308959F92AF92BF92CF9222
:10054000DF92EF92FF920F931F93CF93DF93EC0113
:100550002AE8C22ED12CC80ED91EF601808188232C
:1005600009F4BBC0C557DF4F988025974991599131
:10057000A880B98023976881C558D0409E01265E27
:100580003F4F9FE4E92EF12CEC0EFD1EF70184A9EC
:10059000813009F4D7C08E010A5A1F4F82E3F80157
:1005A0008083C95ADF4F86E389938CE28883C855DC
:1005B000D040DE01A75ABF4F80E090E010C0EEE2CD
:1005C000EC93F901E80FF91FE081EA30B0F07EE228
:1005D000FD017787019611968F309105B9F0FE01E4
:1005E000E80FF91FE081EA3050F7E05DEC93F90184
:1005F000E80FF91FE081EA3050F77E2F705DFD01B2
:100600007787019611968F30910549F76A3108F482
:1006100090C08EE2C958DF4F8883C757D040BE01D3
:1006200068587F4FC7010E947F02BE0165587F4F07
:10063000A501C7010E947F02892D81548A3108F4E7
:1006400076C08EE2C258DF4F8883CE57D040F80183
:10065000219191E08191280F9F5F9932D9F7C1587C
:10066000DF4F8CE28883CF57D040822F82958F70E6
:100670008A3008F464C0895C9927C058DF4F8883AA
:10068000C058D040822F8F708A3008F455C0895CE2
:100690009927CF57DF4F899381E0F70184AB188208
:1006A000C258D0408AE38CB9F6011082F70184A9C0
:1006B0008130E1F45D9B1AC0DE01AE57BF4F9C91C3
:1006C0009C3208F067C0FE01E90FF11DEA5AFF4FA6
:1006D00080819F5F9C938CB909C08FE4E82EF12C38
:1006E000EC0EFD1EF70184A9813021F35F9B81C1CF
:1006F0002CB1222321F480E0F70180837AC1F70135
:100700009081963009F4C2C09730F8F09A3009F41D
:10071000ADC09B3008F049C0983009F493C09930BF
:1007200008F47BC02C3209F0FDC08AE0E5CF892DAA
:1007300089CF862F8F5B6ECF805D9927AACF805D92
:1007400099279BCF5D9B27CFCDCF923009F4B2C0C4
:10075000933028F1943009F44DC0953008F4C1C0AD
:10076000213408F419C1273408F016C12753822F09
:100770009927295CCB5ADF4F8295807F8883C555A6
:10078000D040F701908136E0993008F43FC0832FC4
:100790009927B2CF82E0F70184AB1CB8A7CF992389
:1007A00069F0913091F08DE0A7CF9C3039F09C300A
:1007B00008F49DC09D30B9F7F70110822A3309F47F
:1007C00010C1F70190813DE0DFCF213408F4DBC098
:1007D000273408F0D8C02753822F9927295CCD5A97
:1007E000DF4F8295807F8883C355D040F701908189
:1007F00032E0CACF213408F478C02B3508F075C038
:10080000CE5ADF4F2883C255D04035E0FE01E05B71
:10081000FF4F8081820F8083BACF213408F4AAC0B1
:10082000273408F0A7C02753822F9927295CCC5A78
:10083000DF4F8295807F8883C455D040F701908137
:1008400038E0A2CF213408F47FC0273408F07CC000
:10085000FE01EC5AFF4F30812753822F9927295CE4
:10086000382B3083F701908139E08ECF213408F4A2
:1008700078C0273408F075C02753822F9927CF5AA4
:10088000DF4F8295807F88838BE036CF213408F458
:100890004CC0273408F049C0FE01EB5AFF4F3081AD
:1008A0002753822F9927295C382B3083F7019081B9
:1008B00037E06ACF213408F478C0273408F075C0D7
:1008C000FE01ED5AFF4F40812753822F9927295C63
:1008D000842B8083853009F074CFF701908133E059
:1008E00053CF2C3211F434E091CF3DE08FCF21343F
:1008F00008F469C0273408F066C0FE01EF5AFF4FC4
:1009000030812753822F9927295C932F982B90832E
:10091000C05BDF4F8881C055D040981709F051CF98
:100920008CE0EACE8DE090E0E7CE822F80538A30D3
:1009300048F4FE01EB5AFF4F30812A3308F0B0CF64
:100940009927B2CF3DE020CF822F80538A30D0F755
:10095000FE01EC5AFF4F30812A3308F07DCF9927F2
:100960007FCF822F80538A30E8F62A3308F084CF75
:10097000992785CF822F80538A3020F72A3308F0B9
:1009800052CF992754CF822F80538A30D8F62A33FA
:1009900008F021CF992723CF822F80538A3090F6F9
:1009A0002A3308F0E3CE9927E5CE322F30533A3080
:1009B00048F6FE01ED5AFF4F40812A3308F084CFFC
:1009C000832F992785CF822F80538A3008F0BACFA2
:1009D000FE01EF5AFF4F30812A3308F092CF99275A
:1009E00094CFCC5ADF4F198218822497188281E065
:1009F00083CEDF91CF911F910F91FF90EF90DF9009
:100A0000CF90BF90AF909F900895FC01908191305E
:100A1000A1F0913030F09230B1F0933049F0108273
:100A20000895B099FDCF86E4828381E080830895A4
:100A300082818823A9F71082F3CF8281882351F421
:100A400082E080839183B09BEBCF86E4828383E056
:100A500080830895B09BE4CF10820895FC019081BB
:100A60009130A1F0913030F09230B1F0933049F0F4
:100A7000108208958499FDCF86E4828381E080838B
:100A8000089582818823A9F71082F3CF8281882379
:100A900051F482E080839183849BEBCF86E4828350
:100AA00083E080830895849BE4CF10820895FC0145
:100AB00090819130A1F0913030F09230B1F09330CC
:100AC00049F0108208958599FDCF86E4828381E004
:100AD0008083089582818823A9F71082F3CF8281D1
:100AE000882351F482E080839183859BEBCF86E459
:100AF000828383E080830895859BE4CF10820895EC
:100B0000FC0190819130A1F0913030F09230B1F041
:100B1000933049F0108208958699FDCF86E4828350
:100B200081E08083089582818823A9F71082F3CF22
:100B30008281882351F482E080839183869BEBCF6E
:100B400086E4828383E080830895869BE4CF1082CD
:100B50000895EF92FF920F931F93CF93DF93EC01D1
:100B6000062F7A01CA016AE070E00E94E90F23E0D3
:100B7000029F80011124F8013296EC0FFD1F808343
:100B8000C7016AE070E00E94E90F9B01CB016AE0B7
:100B900070E00E94E90FF8013196EC0FFD1F808391
:100BA000C9016AE070E00E94E90F9B01CB016AE095
:100BB00070E00E94E90FFE01E00FF11F808388239F
:100BC00021F437FF02C081E1808381E08A8BDF91CD
:100BD000CF911F910F91FF90EF900895EF92FF92A8
:100BE0000F931F93CF93DF93EC01062F7A01CA0175
:100BF0006AE070E00E94E90F23E0029F8001112467
:100C0000F8013296EC0FFD1F8083C7016AE070E0A7
:100C10000E94E90F9B01CB016AE070E00E94E90F9E
:100C2000F8013196EC0FFD1F8083C9016AE070E086
:100C30000E94E90F9B01CB016AE070E00E94E90F7E
:100C4000FE01E00FF11F8083882321F437FF02C0EB
:100C500081E1808381E08A8BDF91CF911F910F9199
:100C6000FF90EF900895FC012281222369F080819A
:100C7000853059F090918D00992311F021502283F5
:100C800081E0982790938D0008956623E9F3909171
:100C90008D009923A9F3F2CFFC012281222369F070
:100CA0008081853059F090918E00992311F0215068
:100CB000228381E0982790938E0008956623E9F3BC
:100CC00090918E009923A9F3F2CFDC0183E0689F15
:100CD000B00111246E5F7F4FFD01E60FF71F6250D8
:100CE000704080818F5F808380818A30F4F0108231
:100CF000FB013196EA0FFB1F80818F5F808380812B
:100D0000992787FD9095242F332727FD30952817A5
:100D100039075CF41082FB01EA0FFB1F80818F5FB3
:100D2000808380818A300CF0108281E0FD01828B0B
:100D30000895DC0183E0689F900111242E5F3F4FEE
:100D4000FD01E20FF31F22503040808181508083EB
:100D5000808187FF1AC099E09083F9013196EA0FEC
:100D6000FB1F808181508083808187FF0EC040837C
:100D7000F901EA0FFB1F808181508083808187FF0A
:100D800004C0908381E0FD01838B81E0FD01828BB3
:100D90000895DC011C9281E090E0FD01E80FF91F4D
:100DA0001082019682319105C1F7FD01138A81E01D
:100DB000828B148A818F6E980895DC011C9281E0E9
:100DC00090E0FD01E80FF91F108201968231910534
:100DD000C1F7FD01138A81E0828B148A818F6E989E
:100DE0000895DC0183E0689FF0011124EA0FFB1FE6
:100DF00080818F5F808380818A300CF0108281E057
:100E0000FD01828B0895DC0183E0689FF0011124CD
:100E1000EA0FFB1F808181508083808187FF02C0A1
:100E200089E0808381E0FD01828B089523E0629F49
:100E3000F0011124DC01AE0FBF1F2C913196DC01B3
:100E4000AE0FBF1F6C913196E80FF91F8081992773
:100E500087FD9095332727FD30955527F901E49FAD
:100E60009001E59F300DF49F300D1124820F931FE8
:100E70002AE06202B0011124860F971F08958F9215
:100E80009F92AF92BF92CF92DF92EF92FF920F9319
:100E90001F937C0144E660E00E9416074C0144E683
:100EA00061E0C7010E9416078C0144E662E0C701B9
:100EB0000E9416075C0144E663E0C7010E94160722
:100EC0006C0144E664E0C7010E941607080D191D75
:100ED0000A0D1B1D0C0D1D1D800F911F1F910F91E1
:100EE000FF90EF90DF90CF90BF90AF909F908F904A
:100EF00008959C0183E0689FF0011124D901AE0F91
:100F0000BF1F1C923196D901AE0FBF1F1C923196A4
:100F1000E20FF31F108281E0F901828B089523E034
:100F2000629FF0011124DC01AE0FBF1F2C9131969E
:100F3000DC01AE0FBF1F6C913196E80FF91F808165
:100F4000992787FD9095332727FD30955527F9017F
:100F5000E49F9001E59F300DF49F300D1124820F26
:100F6000931F2AE06202B0011124860F971F089593
:100F70008F929F92AF92BF92CF92DF92EF92FF92A9
:100F80000F931F937C0144E660E00E948F074C01A1
:100F900044E661E0C7010E948F078C0144E662E0ED
:100FA000C7010E948F075C0144E663E0C7010E940D
:100FB0008F076C0144E664E0C7010E948F07080DAB
:100FC000191D0A0D1B1D0C0D1D1D800F911F1F915A
:100FD0000F91FF90EF90DF90CF90BF90AF909F90D8
:100FE0008F900895FC018489882349F0148A6E98B3
:100FF000C29A128A81E0828B128AC298C39808959D
:10100000CF93DF93DC01EC018C89882309F44BC07A
:101010008D89882381F5FD013689E30FF11DE0817B
:10102000ED01288D80917200882311F0EE2339F1B3
:101030009E2F10927200FF27ED018F89853029F1D4
:10104000E05AFF4F808180958FB9832F8F5FFD011C
:10105000868B823110F081E0858BED01888D8F5F6A
:10106000888F833000F1188E81E0809372008F8921
:101070008F5F8F8B18C0CD010E94F20714C0223001
:10108000B8F690E1E0E1F0E0D7CF2223C9F69A303C
:10109000B8F6898D8823A1F2E05AFF4F8FE790813F
:1010A000891B8FB9D2CFDF91CF910895FC0182893E
:1010B000882311F08489811108956E9A6C9AC39ADD
:1010C00081E0848B158A168A178A108ECF010E94C0
:1010D00000080895FC018489882349F0148A6E98D9
:1010E000C49A128A81E0828B128AC498C3980895A8
:1010F000CF93DF93DC01EC018C89882309F44BC08A
:101100008D89882381F5FD013689E30FF11DE0818A
:10111000ED01288D80918500882311F0EE2339F1AF
:101120009E2F10928500FF27ED018F89853029F1D0
:10113000ED58FF4F808180958FB9832F8F5FFD0120
:10114000868B823110F081E0858BED01888D8F5F79
:10115000888F833000F1188E81E0809385008F891D
:101160008F5F8F8B18C0CD010E946A0814C0223097
:10117000B8F690E1E0E1F0E0D7CF2223C9F69A304B
:10118000B8F6898D8823A1F2ED58FF4F8FE7908143
:10119000891B8FB9D2CFDF91CF910895FC0182894D
:1011A000882311F08489811108956E9A6C9AC39AEC
:1011B00081E0848B158A168A178A108ECF010E94CF
:1011C000780808951F920F920FB60F9211240F9373
:1011D0001F932F933F934F935F936F937F938F93BF
:1011E0009F93AF93BF93EF93FF9309EA10E0C80179
:1011F0000E940008C8014A970E947808FF91EF9169
:10120000BF91AF919F918F917F916F915F914F911E
:101210003F912F911F910F910F900FBE0F901F9034
:1012200018959C0183E0689FF0011124D901AE0F4D
:10123000BF1F81E18C933196D901AE0FBF1F4C9334
:101240003196E20FF31F808381E0F901828B0895CC
:10125000DC0183E0689FB00111246E5F7F4FFD01C8
:10126000E60FF71F6250704080818F5F808380811E
:101270008A30F4F01082FB013196EA0FFB1F808167
:101280008F5F80838081992787FD9095242F332756
:1012900027FD3095281739075CF41082FB01EA0F0F
:1012A000FB1F80818F5F808380818A300CF01082E9
:1012B00081E0FD01828B08950F931F93CF93DF93FD
:1012C000EC018B018881823009F45CC08330E0F04E
:1012D000843009F443C0843068F58A81882309F09A
:1012E00041C08981282F332724FD81C026FD78C085
:1012F00087FD8DC0992785FD6BC083FD63C085E0A8
:10130000888387EE8A838DC0882381F423B3209558
:101310002760822F992784FD48C086FD50C027FD95
:1013200073C085FF6DC080E2898341C0813041F088
:10133000188277C08530E1F78A818823C9F371C0AC
:101340008A81882369F183B38095876099272981F1
:10135000332782239323892B59F363C083E0888347
:1013600084E18A8383B38095876099272981332715
:1013700082239323892B09F454C088E38A8382E073
:1013800088834FC08A818823B9F083B380958760B2
:1013900099272981332782239323892B09F041C080
:1013A00083E0888384E18A833CC080E1898384E090
:1013B0008A8381E0888335C084E0888332C080E4FA
:1013C0008983F5CF49E064E0C8010E94650697CFA4
:1013D00049E063E0C8010E946506898199278DCFA5
:1013E00049E061E0C8010E946506898181CF49E03A
:1013F00060E0C8010E9465068981282F332776CFD7
:1014000083FD0CC019820DC080E88983D0CF49E0EC
:1014100062E0C8010E94650689816CCF88E08983FB
:10142000C6CFDF91CF911F910F9108950F931F9316
:10143000CF93DF93EC018B018881823009F455C092
:101440008330C0F08430E9F1843038F58A81882314
:10145000E1F58981992783FD86C081FD7CC080FDEF
:1014600072C082FD68C084FD60C085E0888387EE1D
:101470008A838DC0882369F489B38095806E99270B
:1014800083FD46C081FD4EC080FF75C081E0898329
:1014900041C0813041F018827AC08530E1F78A81FD
:1014A0008823C9F374C08A81882369F189B3809540
:1014B000806E99272981332782239323892B59F31F
:1014C00066C083E0888384E18A8389B38095806ED7
:1014D00099272981332782239323892B09F457C025
:1014E00088E38A8382E0888352C08A818823B9F0A6
:1014F00089B38095806E992729813327822393238E
:10150000892B09F044C083E0888384E18A833FC04B
:1015100088E0898384E08A8381E0888338C084E01E
:10152000888335C082E08983F5CF49E064E0C80153
:101530000E9428099ACF49E063E0C8010E94280967
:101540008981992790CF49E062E0C8010E9428096B
:101550008981992786CF49E061E0C8010E94280966
:10156000898199277CCF49E060E0C8010E94280961
:101570008981992772CF82FF03C084E08983CACF13
:1015800084FD02C0198203C080E18983C3CFDF914B
:10159000CF911F910F910895019709F008956F5F02
:1015A0007F4FE1F781E08093A1001092A20010929A
:1015B000A3008093A800BC9AC498BB9AC398809358
:1015C000BB001092BC001092BD008093C200BA9A7A
:1015D000C298BB9AC3981092C30084B3877084BB2F
:1015E00085B3886F85BB1092C6008AB3807E8ABBA4
:1015F0008BB38F618BBB1092C900B898C09A1092C0
:10160000CC008C98949A1092CF008D98959A109255
:10161000D2008E98969A1092DB001092DB00109206
:10162000DD001092D9001092DA0080EC8BBF8EE0C2
:1016300085BF1092DE001092120110BC89E189B9B9
:1016400098E19AB91092130110921401BF9ABE98B2
:10165000BD9A709882ED8DB91092880095BD8F9AD1
:1016600008956FEF7FEF81E090E00E94CC0A08952B
:101670001F920F920FB60F9211242F933F934F9307
:101680005F936F937F938F939F93AF93BF93EF93EA
:10169000FF938CB59DB520918B0030918C0028175D
:1016A000390770F4BC01621B730B90938C0080931C
:1016B0008B006F3F710561F058F06FEF70E008C06C
:1016C0008659974EBC01621B730B8A569841EDCF29
:1016D00085ED90E00E94DF01FF91EF91BF91AF9106
:1016E0009F918F917F916F915F914F913F912F913A
:1016F0000F900FBE0F901F9018951F920F920FB66C
:101700000F9211242F933F934F935F936F937F9387
:101710008F939F93AF93BF93EF93FF938CB59DB53A
:1017200020918B0030918C002817390770F4BC0190
:10173000621B730B90938C0080938B006F3F71053D
:1017400061F058F06FEF70E008C08659974EBC0109
:10175000621B730B8A569841EDCF85ED90E00E9495
:10176000DF01FF91EF91BF91AF919F918F917F9199
:101770006F915F914F913F912F910F900FBE0F90FE
:101780001F9018951F920F920FB60F9211241F935E
:101790002F933F934F935F936F937F938F939F9379
:1017A000AF93BF93EF93FF9310911B01112321F48B
:1017B00080911301813061F180918800882359F470
:1017C00080918A00882389F485B5887F85BD19308A
:1017D00048F080E05AC08091880081508093880052
:1017E0001930B8F7812F8F5F50C080918A008150E7
:1017F00080938A0080918A0080FFE6CF80918900E3
:101800008093880085B5836085BD8AEF83BDE8CF6E
:1018100080911901882351F480911901882381F561
:1018200081E08093190184E580931A01809115016C
:10183000909116010197909316018093150145E050
:1018400065E08FE890E00E94650645E065E089EA82
:1018500090E00E94990680911401813009F0ACCF8C
:1018600080911501909116016EE170E00E94D50FF4
:10187000892B09F0A1CF63E083E00E9471029CCF25
:101880008FE890E00E949C02CBCF80931B01FF91D8
:10189000EF91BF91AF919F918F917F916F915F91E8
:1018A0004F913F912F911F910F900FBE0F901F905E
:1018B0001895EF92FF920F931F93CF93DF93EC0154
:1018C000FC01ED5BFF4F8181882309F4E8C01182A0
:1018D00046E4E42EF12CEC0EFD1E65E0CE010E94E4
:1018E000F1068E0106571F4FF8018081882369F4A5
:1018F0008081882309F002C181E0F8018083C55707
:10190000DF4F89E48883CB58D04040E061E1C701D4
:101910000E944F02882309F088C0FE01E15BFF4F5F
:1019200080818C3009F478C0FE01E05CFF4F81813A
:10193000882309F49BC01182FE01EB57FF4F808181
:10194000882309F466C080E080834081465F65E0BB
:10195000CE014A960E9411098E0106571F4FF801C9
:101960008081882371F4F8018081882309F0CAC03E
:1019700081E0F8018083C557DF4F8DE48883CB5821
:10198000D040FE01FA968181882309F4A6C0118215
:101990004CE365E0CE010E941607FE01EA57FF4FB7
:1019A0009183808380819181892B21F484EB90E065
:1019B0009183808380819181C857DF4F9983888389
:1019C000C858D0402081318184E690E0AC01249F4A
:1019D000C001259F900D349F900D11246CE370E0A1
:1019E0000E94E90FAB0165E0CE010E94A90544E623
:1019F00065E0CE010E941607AC0165E0CE014A9673
:101A00000E94EE0565E0CE010E94790781E090E03A
:101A10008AC080818F5F98CFCE5ADF4F8881C255B0
:101A2000D040843409F080CF108245E065E0CE01DB
:101A30000E9403078E0106571F4FF80180818823FB
:101A400009F072CF8081882309F069C081E0F80134
:101A50008083C557DF4F84E48883CB58D040FE0194
:101A6000E05CFF4F8181882309F065CF40E066E5A7
:101A7000C7010E944F02882309F05ECFFE01E15B9F
:101A8000FF4F80818C3009F07CCFCE5ADF4F8881A8
:101A9000C255D0408D3409F074CF10824DCF36E45A
:101AA000E32EF12CEC0EFD1E40E060E1C7010E9428
:101AB0004F02882309F011CFFE01E15BFF4F8081C7
:101AC0008C3009F022CFCE5ADF4F8881C255D040EA
:101AD000893409F01ACF108200CF40E062E1C701DB
:101AE0000E944F02882309F053CFFE01E15BFF4FB4
:101AF00080818C3059F080E090E015C0CE010E94CA
:101B00009C02FACECE010E949C0232CFCE5ADF4F09
:101B10008881C255D040823471F7108239CFCE010E
:101B20000E949C0293CFDF91CF911F910F91FF9064
:101B3000EF900895CF92DF92EF92FF920F931F9351
:101B4000CF93DF93EC0154E8E52EF12CE80EF91E5B
:101B5000F701C080FC01FD968181882309F4D7C07C
:101B60001182F70110821092880088E185BD8F9A5A
:101B7000CE014A960E94C906CE010E94DD06EA9671
:101B80001982EA971AAEFE01E05CFF4F11821082C3
:101B9000FE01ED5BFF4F11821082CA57DF4F1982A1
:101BA0001882C658D0408E0106571F4FF801808119
:101BB000882309F0C7C081E0F8018083C557DF4F53
:101BC00088E48883CB58D040F7018081823009F4C3
:101BD000D0C0833030F1833009F446C0843009F43A
:101BE00088C0F7011082F70180812C2D33279927B7
:101BF0002817390709F43DC18E0106571F4FF80118
:101C00008081882309F035C1F8018081882309F09B
:101C1000ACC081E0F8018083C557DF4F85E488833D
:101C200028C1882309F092C0CE010E94590C882354
:101C3000D1F2DD24D394F701D0828E0106571F4FD5
:101C4000F8018081882309F00CC1F801D082C557C2
:101C5000DF4F82E48883CB58D04061E086E00E9469
:101C600071021FAA1CAABFCFFE01EA5BFF4F1682BA
:101C70001086CE010E943F07AC01F3E0883E9F072B
:101C800008F4AFC06AE070E00E94D50FAB0165E0D8
:101C9000CE010E94A9058E01065E1F4FC8010E9459
:101CA000B807AC0183E0483E580708F498C0CA0161
:101CB0006AE070E00E94D50FAB0165E0C8010E94A8
:101CC000EE058E0106571F4FF8018081882309F029
:101CD0008AC081E0F8018083C557DF4F82E58883A1
:101CE000CB58D04061E08AE00E94710284E0F701A5
:101CF0008083CE010E94D400882309F474CFCE01E2
:101D00000E94DD06CE014A960E94C9066ACF40E0D5
:101D10006CE4CE018A5B9F4F0E944F02882309F03A
:101D200020CFFE01E15BFF4F80818C3009F04CCF6A
:101D3000CE5ADF4F8881C255D040883409F044CF55
:101D400010820FCFCE010E949C0235CF813009F066
:101D500048CFCA57DF4F88819981C658D040892B18
:101D600019F583E0F70180833ECFCE010E949C02EB
:101D700050CFFE01FA9681818823C9F1118281E05A
:101D8000F70180838E0106571F4FF8018081882359
:101D900009F048C081E0F8018083C557DF4F82E435
:101DA0008883CB58D0401FCFFE01FA9681818823CB
:101DB000E9F1118282E0F70180838E0106571F4FFF
:101DC000F8018081882309F050C081E0F801808308
:101DD000C557DF4F80E58883CB58D04004CF1BAA7E
:101DE0006CCF198E54CFCE010E949C0272CF40E07E
:101DF00062E1CE018A5B9F4F0E944F02882309F067
:101E0000BECFFE01E15BFF4F80818C3009F0EBCE4D
:101E1000CE5ADF4F8881C255D040823409F0E3CEDC
:101E20001082ADCFCE010E949C02B4CF40E062E1AF
:101E3000CE018A5B9F4F0E944F02882309F0BACFE0
:101E4000FE01E15BFF4F80818C3009F0CCCECE5A91
:101E5000DF4F8881C255D040823409F0C4CE108251
:101E6000A9CFCE010E949C02F0CECE010E949C021E
:101E7000ACCFDF91CF911F910F91FF90EF90DF904A
:101E8000CF900895CFE5D4E0DEBFCDBF89B78161A3
:101E900089BF1FBC8CE08EBD81E083BF8AE698E1DC
:101EA0009BBD8ABD789419EA612E10E0712EBDE1C8
:101EB0002B2E312C260C371CE3016A97A4E34A2E03
:101EC000512C4C0E5D1EFAE38F2E912C8C0E9D1E14
:101ED000EDE3AE2EB12CAC0EBD1E7FECC72E70E034
:101EE000D72E62EDE62E60E0F62E05ED10E0809133
:101EF0001301813081F11092C6001092C300C40119
:101F00000E940505C5010E942E05C6010E945705C5
:101F1000C7010E948005CE010E949C0241E06DE451
:101F2000C8010E944F02882329F58091DE008C3081
:101F3000D9F0CE010E949A0D8091A300882329F147
:101F40008091BD00882399F6CE010E94CE08809131
:101F50001301813081F6B301C1010E94160ABE014E
:101F6000C2010E945C09CBCF8091E100833509F763
:101F70001092DE0061E082E00E947102CE010E94B8
:101F80009A0D8091A3008823D9F6C3010E945608B8
:101F9000D7CF991B79E004C0991F961708F0961BBC
:101FA000881F7A95C9F780950895AA1BBB1B51E13C
:101FB00007C0AA1FBB1FA617B70710F0A61BB70BB9
:101FC000881F991F5A95A9F780959095BC01CD015E
:101FD000089597FB092E07260AD077FD04D0E5DF88
:101FE00006D000201AF4709561957F4F0895F6F79A
:101FF000909581959F4F0895EE0FFF1F0590F491E6
:06200000E02D0994FFCF62
:102006005F4237766A7C7D467F7E6F791D733D2DF4
:102016000020015F4237766A7C7D467F7E6F791DA0
:08202600733D2D0020010F00A5
:00000001FF
