:100000002CC03ECB83CB50C04FC04EC0B4C44CC0FC
:100010004BC04BC097C748C047C046C045C044C04E
:1000200043C0FAC008C10FC11DC12BC139C147C1AE
:1000300055C163C171C17FC18CC199C158CEF7CE82
:10004000E2CEABCEA0CEBFCEADCECDCE86CE80CED4
:1000500070CE58CE4CCE49CE3A0B11241FBECFE500
:10006000D2E0DEBFCDBF10E0A0E6B0E0E6ECFFE1FD
:1000700003C0C89531960D92A838B107D1F711E0A9
:10008000A8E8B0E001C01D92AD31B107E1F710E082
:10009000CAE5D0E004C02297FD2FEC2F8DDFC835D4
:1000A000D107C9F7E3DC8ECFABCF1F920F920FB60B
:1000B0000F9211242F933F938F939F9320911C01B4
:1000C00030E0822F992787709070892B09F031E0FA
:1000D0002F5F20931C012091C500222381F0809185
:1000E000C300853009F450C090918D00992319F018
:1000F00021502093C50081E0982790938D00209196
:10010000C800222381F08091C600853009F440C0E8
:1001100090918E00992319F021502093C80081E01E
:10012000982790938E003323B1F58091CB008823DC
:1001300029F08091CB0081508093CB008091CE003C
:10014000882329F08091CE0081508093CE00809149
:10015000D100882329F08091D10081508093D10073
:100160008091D400882351F48091DC008F3F99F076
:100170008091DC008F5F8093DC000DC08091D40003
:1001800081508093D400F0CF332309F0B8CFACCFA7
:10019000332309F4BDCF9F918F913F912F910F9001
:1001A0000FBE0F901F901895F92FE82FE05CFF4FBE
:1001B0008181E054F0408823B1F4ED5BFF4F8181F1
:1001C000E354F040882379F4FA968181FA978823E2
:1001D00051F4EA5BFF4F868120E030E0853031F05A
:1001E000932F822F089581E090E0089521E030E080
:1001F000F7CFB92FA82FF92FE82F8085E82FFF27F9
:10020000ED30F10530F080E0FB2FEA2F10869927C2
:1002100002C1EF5EFF4F0994662309F0F6C0FB2F81
:10022000EA2F82818F7B828381E0FB2FEA2F8087F8
:1002300080E090E0F0C0FB2FEA2F638382E08087AC
:1002400080E090E0E8C0662309F0D9C0FB2FEA2FD8
:1002500081818F7E818383E0FB2FEA2F808780E07E
:1002600090E0D9C0662309F0C4C0FB2FEA2F81813A
:10027000877F818384E0FB2FEA2F808780E090E0F6
:10028000CAC0662309F0AFC0FB2FEA2F81818B7FA4
:10029000818385E0FB2FEA2F808780E090E0BBC060
:1002A000662309F09AC0FB2FEA2F81818D7F81831D
:1002B00086E0FB2FEA2F808780E090E0ACC06623C9
:1002C00009F085C0FB2FEA2F81818E7F818387E033
:1002D000FB2FEA2F808780E090E09DC0662309F025
:1002E00070C0FB2FEA2F82818F7D828388E0FB2FF5
:1002F000EA2F808780E090E08EC0662309F05BC023
:10030000FB2FEA2F82818F7E828389E0FB2FEA2FE9
:10031000808780E090E07FC0662309F046C0FB2F15
:10032000EA2F8281877F82838AE0FB2FEA2F8087F2
:1003300080E090E070C0662391F5FB2FEA2F828168
:100340008B7F82838BE0FB2FEA2F808780E090E019
:1003500062C06623F1F4FB2FEA2F82818D7F8283B6
:100360008CE0FB2FEA2F808780E090E054C066236A
:1003700051F4FB2FEA2F82818E7F82838C918F5FD5
:100380008C9381E041CFFB2FEA2F828181608283B1
:10039000F5CFFB2FEA2F828182608283E1CFFB2F92
:1003A000EA2F828184608283CDCFFB2FEA2F828166
:1003B00088608283B9CFFB2FEA2F8281806182839C
:1003C000A4CFFB2FEA2F8281806282838FCFFB2F05
:1003D000EA2F8181816081837ACFFB2FEA2F81818F
:1003E0008260818365CFFB2FEA2F818184608183C6
:1003F00050CFFB2FEA2F8181886081833BCFFB2F79
:10040000EA2F81818061818326CFFB2FEA2F8281B1
:100410008064828309CF0895CF93DF93D92FC82FAB
:100420008F81883010F46F3620F01E82188681E0AC
:100430003BC06F3290F46E30C0F090E08E8182301D
:1004400051F1833060F4882391F0813071F4913060
:10045000D1F0992351F482E027C091E0EFCF8430AE
:1004600081F0843030F0853051F086E01DC080E0AE
:100470001BC0913091F09923C1F784E015C085E04D
:1004800013C0992391F760E08C2F9D2FB2DE882353
:10049000B1F783E009C0992341F761E08C2F9D2FCC
:1004A000A8DE882361F781E08E831F82DF91CF91E0
:1004B00008952CB53DB540918B0050918C004217AA
:1004C000530778F4732F622F641B750B30938C00E5
:1004D00020938B006F3F710569F060F06FEF70E063
:1004E00009C02B5C334F732F622F641B750B255390
:1004F0003C40ECCF8A5B9F4F8FDF0895F92FE82FA8
:100500008681853019F080E090E0089582819927F6
:10051000262F332782179307B1F7442349F08281AE
:100520008483838185831682108681E090E008951C
:1005300094818281981799F795818381981779F72B
:10054000E2CF809388008091880080938900609337
:100550008A0085B5836085BD8DE783BD0895F72F3B
:10056000E62F242F352F952F842F6AE070E0F9DCD9
:10057000805D8283932F822F6AE070E0F2DC262F69
:10058000372F862F6AE0E1DC905D9183822FDDDCDE
:10059000DCDC905D90830895F92FE82F90819130F5
:1005A000A1F0913030F09230B1F0933049F01082E8
:1005B0000895B099FDCF8EE1828381E08083089514
:1005C00082818823A9F71082F3CF8281882351F496
:1005D00082E080839183B09BEBCF8EE1828383E0C6
:1005E00080830895B09BE4CF10820895F92FE82FFF
:1005F00090819130A1F0913030F09230B1F0933091
:1006000049F0108208958499FDCF8EE1828381E0C4
:100610008083089582818823A9F71082F3CF828195
:10062000882351F482E080839183849BEBCF8EE119
:10063000828383E080830895849BE4CF10820895B1
:10064000F92FE82F90819130A1F0913030F0923065
:10065000B1F0933049F0108208958599FDCF8EE175
:10066000828381E08083089582818823A9F71082A4
:10067000F3CF8281882351F482E080839183859B2C
:10068000EBCF8EE1828383E080830895859BE4CF66
:1006900010820895F92FE82F90819130A1F09130C8
:1006A00030F09230B1F0933049F01082089586997D
:1006B000FDCF8EE1828381E080830895828188234B
:1006C000A9F71082F3CF8281882351F482E08083DE
:1006D0009183869BEBCF8EE1828383E080830895B4
:1006E000869BE4CF10820895EF92FF920F931F93A1
:1006F000CF93DF93D92FC82F262FE42EF52E952FD9
:10070000842F6AE070E043DC3327022F132F000FA1
:10071000111F020F131FF12FE02F3296EC0FFD1F58
:1007200080839F2D8E2D6AE070E031DC262F372FDD
:10073000972F862F6AE070E02ADCF12FE02F3196A8
:10074000EC0FFD1F8083932F822F6AE070E01FDC87
:10075000262F372F972F862F6AE070E018DCFD2FA9
:10076000EC2FE00FF11F8083882321F437FF02C0B4
:1007700081E1808381E08A8BDF91CF911F910F917E
:10078000FF90EF900895EF92FF920F931F93CF93F6
:10079000DF93D92FC82F262FE42EF52E952F842FE7
:1007A0006AE070E0F4DB3327022F132F000F111FD4
:1007B000020F131FF12FE02F3296EC0FFD1F8083E5
:1007C0009F2D8E2D6AE070E0E2DB262F372F972FCA
:1007D000862F6AE070E0DBDBF12FE02F3196EC0F23
:1007E000FD1F8083932F822F6AE070E0D0DB262FDD
:1007F000372F972F862F6AE070E0C9DBFD2FEC2F93
:10080000E00FF11F8083882321F437FF02C081E1CC
:10081000808381E08A8BDF91CF911F910F91FF90B0
:10082000EF900895F92FE82F2281222369F080812B
:10083000853059F090918D00992311F02150228339
:1008400081E0982790938D0008956623E9F39091B5
:100850008D009923A9F3F2CFF92FE82F22812223CB
:1008600069F08081853059F090918E00992311F0C4
:100870002150228381E0982790938E00089566236B
:10088000E9F390918E009923A9F3F2CFCF93DF93F0
:10089000D92FC82F7727B72FA62FAA0FBB1FA60FB8
:1008A000B71F1296F92FE82FEA0FFB1F12978081CE
:1008B0008F5F808380818A3004F11082FB2FEA2FC2
:1008C0003196EC0FFD1F80818F5F80838081992797
:1008D00087FD9095242F332727FD3095281739075A
:1008E00064F41082FB2FEA2FEC0FFD1F80818F5FD5
:1008F000808380818A300CF0108281E08A8BDF91C6
:10090000CF910895B92FA82F7727262F372F220FA1
:10091000331F260F371F2E5F3F4FF92FE82FE20FAF
:10092000F31F22503040808181508083808187FF77
:100930001DC099E09083F32FE22F3196EA0FFB1F41
:10094000808181508083808187FF10C04083F32F96
:10095000E22FEA0FFB1F808181508083808187FF17
:1009600005C0908381E0FB2FEA2F838B81E0FB2F72
:10097000EA2F828B08951F920F920FB60F921124C7
:100980001F932F933F934F935F936F937F938F9317
:100990009F93AF93BF93EF93FF9310911B0111238C
:1009A00021F490911301913061F1809188008823A6
:1009B00059F480918A00882389F485B5887F85BDA4
:1009C000193048F080E04CC08091880081508093BD
:1009D00088001930B8F7812F8F5F42C080918A005C
:1009E000815080938A0080918A0080FFE6CF8091B9
:1009F00089008093880085B5836085BD8DE783BDC0
:100A0000E8CF80911901882329F49093190184E596
:100A100080931A018091150190911601019790938E
:100A200016018093150145E065E08FE890E02EDF28
:100A300045E065E089EA90E065DF8091140181304E
:100A400009F0B3CF80911501909116016EE170E02D
:100A500088DA892B09F0A9CF63E083E072DDA5CFA6
:100A600080931B01FF91EF91BF91AF919F918F9167
:100A70007F916F915F914F913F912F911F910F90B7
:100A80000FBE0F901F901895B92FA82F1C9281E0D0
:100A900090E0FB2FEA2FE80FF91F108201968231B8
:100AA0009105B9F7FB2FEA2F138A81E0828B148A14
:100AB000818F6E980895B92FA82F1C9281E090E045
:100AC000FB2FEA2FE80FF91F108201968231910562
:100AD000B9F7FB2FEA2F138A81E0828B148A818F6A
:100AE0006E980895B92FA82F7727F72FE62FEE0FCE
:100AF000FF1FE60FF71FEA0FFB1F80818F5F8083C8
:100B000080818A300CF0108281E0FB2FEA2F828BEB
:100B10000895B92FA82F7727F72FE62FEE0FFF1F85
:100B2000E60FF71FEA0FFB1F8081815080838081D1
:100B300087FF02C089E0808381E0FB2FEA2F828B50
:100B400008957727F72FE62FEE0FFF1FE60FF71F09
:100B5000B92FA82FAE0FBF1F6C913196B92FA82FB8
:100B6000AE0FBF1FAC913196E80FF91F20813327DC
:100B700027FD30955527862F992787FD9095752F4E
:100B8000642FD1D9280F391FBB27A7FDB0958A2F15
:100B90009B2F880F991F880F991F8A0F9B1F880F03
:100BA000991F820F931F08958F929F92AF92BF92C9
:100BB000CF92DF92EF92FF920F931F93E82EF92EC0
:100BC00044E660E0BEDF882E992E44E661E09F2D6A
:100BD0008E2DB7DF082F192F44E662E09F2D8E2D52
:100BE000B0DFA82EB92E44E663E09F2D8E2DA9DF3D
:100BF000C82ED92E44E664E09F2D8E2DA2DF080D6D
:100C0000191D0A0D1B1D0C0D1D1D800F911F1F911D
:100C10000F91FF90EF90DF90CF90BF90AF909F909B
:100C20008F900895282F392F7727F72FE62FEE0F73
:100C3000FF1FE60FF71FB92FA82FAE0FBF1F1C9283
:100C40003196B92FA82FAE0FBF1F1C923196E80F17
:100C5000F91F108281E0F32FE22F828B089577270E
:100C6000F72FE62FEE0FFF1FE60FF71FB92FA82F64
:100C7000AE0FBF1F6C913196B92FA82FAE0FBF1FBB
:100C8000AC913196E80FF91F2081332727FD30956D
:100C90005527862F992787FD9095752F642F43D967
:100CA000280F391FBB27A7FDB0958A2F9B2F880FD0
:100CB000991F880F991F8A0F9B1F880F991F820FFA
:100CC000931F08958F929F92AF92BF92CF92DF921F
:100CD000EF92FF920F931F93E82EF92E44E660E007
:100CE000BEDF882E992E44E661E09F2D8E2DB7DF62
:100CF000082F192F44E662E09F2D8E2DB0DFA82E1D
:100D0000B92E44E663E09F2D8E2DA9DFC82ED92E83
:100D100044E664E09F2D8E2DA2DF080D191D0A0DFB
:100D20001B1D0C0D1D1D800F911F1F910F91FF901A
:100D3000EF90DF90CF90BF90AF909F908F900895ED
:100D4000F92FE82F8489882349F0148A6E98C29A73
:100D5000128A81E0828B128AC298C3980895CF9339
:100D6000DF93B92FA82FD92FC82F8C89882309F496
:100D700050C08D898823A9F5FB2FEA2F3689E30F10
:100D8000F11DE081DB2FCA2F288D8091730088230D
:100D900011F0EE2351F19E2F10927300FF27DB2FED
:100DA000CA2F8F89853039F1EF59FF4F80818095A7
:100DB0008FB9832F8F5FFB2FEA2F868B823110F044
:100DC00081E0858BDB2FCA2F888D8F5F888F8330E2
:100DD00000F1188E81E0809373008F898F5F8F8B75
:100DE00018C08A2F9B2FACDF14C02230A0F690E1F0
:100DF000E0E1F0E0D4CF2223B9F69A30A8F6898D4D
:100E0000882391F2EF59FF4F8FE79081891B8FB9AB
:100E1000D0CFDF91CF910895F92FE82F82898823D1
:100E200011F08489811108956E9A6C9AC39A81E0B9
:100E3000848B158A168A178A108E8E2F9F2F8FDF2C
:100E40000895F92FE82F8489882349F0148A6E9831
:100E5000C49A128A81E0828B128AC498C39808953A
:100E6000CF93DF93B92FA82FD92FC82F8C89882330
:100E700009F450C08D898823A9F5FB2FEA2F368904
:100E8000E30FF11DE081DB2FCA2F288D80918600B2
:100E9000882311F0EE2351F19E2F10928600FF2738
:100EA000DB2FCA2F8F89853039F1EC58FF4F8081B5
:100EB00080958FB9832F8F5FFB2FEA2F868B82312E
:100EC00010F081E0858BDB2FCA2F888D8F5F888F94
:100ED000833000F1188E81E0809386008F898F5FC8
:100EE0008F8B18C08A2F9B2FACDF14C02230A0F646
:100EF00090E1E0E1F0E0D4CF2223B9F69A30A8F6F1
:100F0000898D882391F2EC58FF4F8FE79081891BE0
:100F10008FB9D0CFDF91CF910895F92FE82F828933
:100F2000882311F08489811108956E9A6C9AC39A6E
:100F300081E0848B158A168A178A108E8E2F9F2F38
:100F40008FDF08951F920F920FB60F9211240F9307
:100F50001F932F933F934F935F936F937F938F9341
:100F60009F93AF93BF93EF93FF9309EA10E0912F04
:100F7000802FF5DE912F802F4A9772DFFF91EF913E
:100F8000BF91AF919F918F917F916F915F914F91A1
:100F90003F912F911F910F910F900FBE0F901F90B7
:100FA0001895282F392F7727F72FE62FEE0FFF1FE1
:100FB000E60FF71FB92FA82FAE0FBF1F81E18C934B
:100FC0003196B32FA22FAE0FBF1F4C933196E20F75
:100FD000F31F808381E0F32FE22F828B08950F931C
:100FE0001F93CF93DF93D92FC82FF92FE82FED5BF5
:100FF000FF4F8181882309F4E2C011820C2F1D2F3D
:101000000A5B1F4F65E08C2F9D2F6CDDFD2FEC2FB1
:10101000E657FF4F8081882309F480C040E061E1FA
:10102000912F802F6BDA882309F088C0FD2FEC2FD9
:10103000E15BFF4F80818C3009F4B7C0FD2FEC2FAE
:10104000E05CFF4F8181882309F495C01182FD2F58
:10105000EC2FEB57FF4F8081882309F45CC080E0C0
:1010600080834081465F65E08C2F9D2F4A9699DFF3
:10107000FD2FEC2FE657FF4F8081882341F481E05C
:101080008083C557DF4F8DE48883CB58D040FD2F38
:10109000EC2FFA968181882309F4AFC011824CE3CA
:1010A00065E08C2F9D2F4DDDFD2FEC2FEA57FF4F74
:1010B0009183808380819181892B21F484EB90E05E
:1010C0009183808380819181C857DF4F9983888382
:1010D000C858D0408081918164E670E024D76CE3E9
:1010E00070E055D7462F572F65E08C2F9D2FFCDAE7
:1010F00044E665E08C2F9D2F24DD482F592F65E0B5
:101100008C2F9D2F4A963FDB65E08C2F9D2F8ADD2B
:1011100081E090E08DC080818F5FA2CF81E08083ED
:10112000C557DF4F89E48883CB58D04040E061E168
:10113000912F802FE3D9882309F478CF45E065E02B
:101140008C2F9D2FE6DCFD2FEC2FE657FF4F808183
:10115000882309F073CF81E08083C557DF4F84E493
:101160008883CB58D040FD2FEC2FE05CFF4F81816E
:10117000882309F06BCF40E066E5912F802FBED920
:10118000882309F064CFFD2FEC2FE15BFF4F8081B6
:101190008C3009F07CCFCE5ADF4F8881C255D040C9
:1011A0008D3409F074CF108252CFCE5ADF4F888130
:1011B000C255D040843409F041CF1082BFCF0C2FEC
:1011C0001D2F0A5B1F4F40E060E1912F802F96D9C1
:1011D000882309F017CFFD2FEC2FE15BFF4F8081B3
:1011E0008C3009F01BCFCE5ADF4F8881C255D040DA
:1011F000893409F013CF108205CF40E062E1912FCE
:10120000802F7CD9882309F04ACFFD2FEC2FE15B9A
:10121000FF4F80818C3019F080E090E009C0CE5AF9
:10122000DF4F8881C255D0408234B1F7108237CF6A
:10123000DF91CF911F910F910895CF93DF93D92F15
:10124000C82F7727B72FA62FAA0FBB1FA60FB71F30
:101250001296FD2FEC2FEA0FFB1F129780818F5FF4
:10126000808380818A3004F11082FB2FEA2F31962F
:10127000EC0FFD1F80818F5F80838081992787FD20
:101280009095242F332727FD30952817390764F4CC
:101290001082FB2FEA2FEC0FFD1F80818F5F808370
:1012A00080818A300CF0108281E08A8BDF91CF91AF
:1012B00008950F931F93CF93DF93D92FC82F062F35
:1012C000172F8881823009F45CC08330E0F08430CD
:1012D00009F443C0843068F58A81882309F041C04D
:1012E0008981282F332724FD86C026FD7DC087FDF8
:1012F00092C0992785FD70C083FD68C085E0888312
:1013000080EF8A8392C0882381F423B320952760DD
:10131000822F992784FD48C086FD55C027FD78C0DF
:1013200085FF72C080E2898341C0813041F018821C
:101330007CC08530E1F78A818823C9F376C08A8131
:101340008823C9F183B38095876099272981332742
:1013500082239323892B59F368C083E088838EE12D
:101360008A8383B3809587609927298133278223D5
:101370009323892B09F459C086E98A8382E0888304
:1013800054C08A818823E1F083B3809587609927D0
:101390002981332782239323892B09F046C083E0D8
:1013A00088838EE18A8341C080E1898386E08A83D5
:1013B00081E088833AC083E088838FE08A8335C0E8
:1013C00084E0888332C080E48983F0CF49E064E020
:1013D000912F802F5BDA92CF49E063E0912F802F2D
:1013E00055DA8981992788CF49E061E0912F802FD4
:1013F0004DDA89817CCF49E060E0912F802F46DA79
:101400008981282F332771CF83FD0CC019820DC02D
:1014100080E88983CBCF49E062E0912F802F36DAD4
:10142000898167CF88E08983C1CFDF91CF911F91F8
:101430000F9108950F931F93CF93DF93D92FC82F48
:10144000062F172F8881823009F455C08330C0F0F1
:101450008430E9F1843038F58A818823E1F5898187
:10146000992783FD8BC081FD81C080FD71C082FD05
:1014700067C084FD75C085E0888380EF8A8392C051
:10148000882369F489B38095806E992783FD46C0CF
:1014900081FD53C080FF7AC081E0898341C08130E3
:1014A00041F018827FC08530E1F78A818823C9F333
:1014B00079C08A818823C9F189B38095806E992784
:1014C0002981332782239323892B59F36BC083E02F
:1014D00088838EE18A8389B38095806E99272981DC
:1014E000332782239323892B09F45CC086E98A83FE
:1014F00082E0888357C08A818823E1F089B3809590
:10150000806E99272981332782239323892B09F021
:1015100049C083E088838EE18A8344C088E0898360
:1015200086E08A8381E088833DC083E088838FE002
:101530008A8338C084E0888335C082E08983F0CF15
:1015400049E063E0912F802F78DE8981992791CF40
:1015500049E062E0912F802F70DE8981992787CF43
:1015600049E064E0912F802F68DE85CF49E061E09B
:10157000912F802F62DE8981992777CF49E060E043
:10158000912F802F5ADE898199276DCF82FF03C06A
:1015900084E08983C5CF84FD02C0198203C080E145
:1015A0008983BECFDF91CF911F910F91089501974D
:1015B00009F008956F5F7F4FE1F781E08093A1000C
:1015C0001092A2001092A3008093A800BC9AC49825
:1015D000BB9AC3988093BB001092BC001092BD00D0
:1015E0008093C200BA9AC298BB9AC3981092C30063
:1015F00084B3877084BB85B3886F85BB1092C600A7
:101600008AB3807E8ABB8BB38F618BBB1092C9007B
:10161000B898C09A1092CC008C98949A1092CF00EF
:101620008D98959A1092D2008E98969A1092DB001F
:101630001092DB001092DD001092D9001092DA00B7
:1016400080EC8BBF8EE085BF1092DE0010921201FD
:101650008CE089B998E19AB91092130110921401A3
:10166000BF9ABE98BD9A82ED8DB91092880095BD43
:101670008F9A08956FEF7FEF81E090E098DF0895F3
:101680001F920F920FB60F9211242F933F934F93F7
:101690005F936F937F938F939F93AF93BF93EF93DA
:1016A000FF938CB59DB520918B0030918C0028174D
:1016B000390778F4682F792F621B730B90938C0095
:1016C00080938B006F3F710569F060F06FEF70E001
:1016D00009C08B5C934F682F792F621B730B855366
:1016E0009C40ECCF85ED90E097D6FF91EF91BF91B4
:1016F000AF919F918F917F916F915F914F913F91AA
:101700002F910F900FBE0F901F9018951F920F9260
:101710000FB60F9211242F933F934F935F936F93C4
:101720007F938F939F93AF93BF93EF93FF938CB56A
:101730009DB520918B0030918C002817390778F4E3
:10174000682F792F621B730B90938C0080938B0012
:101750006F3F710569F060F06FEF70E009C08B5C5E
:10176000934F682F792F621B730B85539C40ECCFEE
:1017700085ED90E051D6FF91EF91BF91AF919F9190
:101780008F917F916F915F914F913F912F910F902A
:101790000FBE0F901F901895DF92EF92FF920F935C
:1017A0001F93CF93DF93D92FC82F082F192F0C57D2
:1017B0001F4FF12FE02FD080F92FE82FFD96818168
:1017C000882309F4B7C01182F12FE02F1082109204
:1017D000880088E185BD8F9A8C2F9D2F4A9654D919
:1017E0008C2F9D2F68D9EA961982EA971AAEFD2FA1
:1017F000EC2FE05CFF4F11821082FD2FEC2FED5B90
:10180000FF4F11821082CA57DF4F19821882249627
:1018100081E0899388E48883CB58D040F12FE02F72
:101820008081823009F4B9C0833008F1833091F1AE
:10183000843009F471C0F12FE02F1082F12FE02FD6
:1018400080812D2D332799272817390709F406C1E0
:10185000FD2FEC2FE657FF4F8081882309F0FEC053
:1018600081E08083C557DF4F85E48883F7C08823F4
:1018700009F47CC08130F9F6CA57DF4F888199811D
:10188000C658D040892B09F09BC083E0F12FE02F90
:101890008083D4CFFD2FEC2FEA5BFF4F168210869A
:1018A0008C2F9D2F81D9482F592FF3E0883E9F0719
:1018B00008F49CC06AE070E054D3462F572F65E0CF
:1018C0008C2F9D2F11D79AE1E92EF12CEC0EFD1EE5
:1018D0009F2D8E2DF7D9482F592F83E0483E58076A
:1018E00008F482C0952F842F6AE070E03AD3462F27
:1018F000572F65E09F2D8E2D46D7C657DF4F81E0CD
:10190000899382E58883CB58D04061E08AE019D67C
:1019100084E0F12FE02F80838C2F9D2F45D48823E6
:1019200009F48CCF8C2F9D2FC6D88C2F9D2F4A96D3
:10193000ABD881CF40E06CE48C2F9D2F8A5B9F4F0A
:10194000DDD5882309F040CFFD2FEC2FE15BFF4F61
:1019500080818C3009F062CFCE5ADF4F8881C2552A
:10196000D040883409F05ACF10822ECF8C2F9D2F73
:1019700036DB882309F462CF81E0F12FE02F8083EA
:10198000C657DF4F899382E48883CB58D04061E00B
:1019900086E0D7D51FAA1CAA51CFFD2FEC2FFA96AF
:1019A0008181882329F1118281E0F12FE02F80834A
:1019B000C657DF4F899382E48883CB58D0403ECF0F
:1019C000FD2FEC2FFA968181882369F1118282E044
:1019D000F12FE02F8083C657DF4F81E0899380E5A8
:1019E0008883CB58D0402ACF1BAA83CF198E67CFCC
:1019F00040E062E18C2F9D2F8A5B9F4F7FD588232B
:101A000099F6FD2FEC2FE15BFF4F80818C3009F0C0
:101A100015CFCE5ADF4F8881C255D040823409F0AD
:101A20000DCF1082C1CF40E062E18C2F9D2F8A5BE9
:101A30009F4F64D5882359F6FD2FEC2FE15BFF4FB4
:101A400080818C3009F0FACECE5ADF4F8881C255A2
:101A5000D040823409F0F2CE1082B9CFDF91CF911D
:101A60001F910F91FF90EF90DF900895CDE5D2E0A8
:101A7000DEBFCDBF89B7816189BF1FBC8CE08EBD41
:101A800081E083BF85E39CE09BBD8ABD7894E9EA51
:101A9000CE2EE0E0DE2E76EEE72E7FEFF72EEC0C7A
:101AA000FD1C6AE3A62EB12CAE0CBF1C5DE3852E97
:101AB000912C8E0C9F1C4FEC642E40E0742E32ED66
:101AC000432E30E0532E2EED222E20E0322E809138
:101AD0001301813009F4C1C01092C6001092C300F6
:101AE0009B2D8A2D59D5992D882D80D5972D862D02
:101AF000A7D5952D842DCED580911901882309F481
:101B00007FC010911A0140911501509116018091EA
:101B10001701909118019A83898390911401809103
:101B20001201813009F495C182E38093E50086E3D8
:101B30008093E6008CE28093E700ADE9B0E028EE08
:101B400030E014C08EE2F32FE22F8083FB2FEA2FC8
:101B5000828D8A3080F08EE2F32FE22F87871197F3
:101B60002F5F3F4FF0E0273F3F0739F08C918A30DD
:101B700048F7805DE8CF805DEFCF9A3108F4AFC0C1
:101B80008EE28093060167E071E0932D822DE7D409
:101B900049815A816AE071E0932D822DE0D4812F32
:101BA00081548A3108F492C08EE280930D01E5EEF3
:101BB000F0E090E08191980F81E0EE30F807D1F7E6
:101BC0008CE280930E01892F82958F708A3008F401
:101BD00082C0895C282F332720930F01892F8F70B3
:101BE0008A3008F475C0895C99278093100181E0E0
:101BF00080931201109211018AE38CB9109219019D
:101C000080911201813009F450C05F9B07C02CB154
:101C1000222309F041C080E08093DE0041E06DE4C2
:101C200085ED90E06BD4882349F58091DE008C30FF
:101C3000F9F09F2D8E2DB0DD8091A300882341F116
:101C40008091BD00882309F042CF9F2D8E2D65D94C
:101C500080911301813009F03FCF7D2D6C2D86ECF2
:101C600090E0E8DB7F2D6E2D83EC90E022DB38CF17
:101C70008091E1008335E9F61092DE0061E082E0B8
:101C800060D49F2D8E2D88DD8091A3008823C1F61E
:101C90009D2D8C2DC1D8D4CF3091DE00E32FFF27AE
:101CA000EE30F105F8F08DE0B7CF5D9BAECF9091AF
:101CB00011019C3208F0D0C0E92FFF27EB51FF4FF4
:101CC00080819F5F909311018CB99FCF812F6DCF41
:101CD000805D99278ACF805D282F33277DCF892F7C
:101CE0008F5B4FCFE25EFF4F09941092DE002A33E4
:101CF00009F411C13091DE009DE03930F0F1892FF7
:101D000099278ACF213408F4C5C0273408F0C2C00F
:101D10004091E0002753822F9927295C942F982B1C
:101D20009093E0008091DF00981709F490C09DE047
:101D3000E4CF213408F4C7C0273408F0C4C02753C7
:101D4000822F99278295807F8093E0008BE064CF7B
:101D50002C3209F088C08AE05FCF213408F48FC0AC
:101D6000273408F08CC03091E3002753822F992745
:101D7000295C382B3093E30099E08091DF00820FDB
:101D80008093DF00BCCF213408F46BC02B3508F002
:101D900068C02093E10095E0F0CF2C3209F061C0DB
:101DA00094E0EBCF213408F4A0C0273408F09DC0A4
:101DB0003091E4002753822F9927295C382B3093E8
:101DC000E40097E0DACF213408F450C0273408F05B
:101DD0004DC02753822F9927295C8295807F80935D
:101DE000E40096E0CACF213408F48BC0273408F011
:101DF00088C02753822F9927295C8295807F809302
:101E0000E30098E0BACF213408F450C0273408F03A
:101E10004DC04091E2002753822F9927295C842BE3
:101E20008093E200853009F082CF93E066CF2134C1
:101E300008F452C0273408F04FC02753822F992747
:101E4000295C8295807F8093E20092E096CF8CE0BF
:101E5000E3CE5D9B69CED4CE82E0809312011CB8A4
:101E6000D4CE9DE08ACF8DE090E0D6CE822F8053F5
:101E70008A30B8F72A3308F0ACCF9927AECF822F3B
:101E800080538A3070F73091E3002A3308F06DCF29
:101E900099276FCF822F80538A3008F048CF409126
:101EA000E0002A3308F036CF992738CF922F90538D
:101EB0009A3008F03CCF4091E2002A3308F0ABCFD3
:101EC000892F9927ACCF822F80538A3060F62A332E
:101ED00008F035CF992736CF822F80538A3008F605
:101EE0002A3308F0AACF9927ACCF822F80538A30AB
:101EF00008F0B7CF3091E4002A3308F05BCF992780
:101F00005DCF822F80538A3008F0ABCF2A3308F0A0
:101F100070CF992772CF1092E4001092E3001092D4
:101F2000DF0081E079CE5527002480FF02C0060E35
:101F3000571F660F771F6115710521F096958795DC
:101F4000009799F7952F802D0895991B79E004C08B
:101F5000991F961708F0961B881F7A95C9F78095E8
:101F60000895AA1BBB1B51E107C0AA1FBB1FA617E0
:101F7000B70710F0A61BB70B881F991F5A95A9F732
:101F800080959095682F792F8A2F9B2F089597FB26
:101F9000092E07260AD077FD04D0E3DF06D0002003
:101FA0001AF4709561957F4F0895F6F79095819595
:101FB0009F4F0895EE0FFF1FC89531960F92C89559
:061FC0000F920895FFCF0F
:101FC6000F5F4237766A7C7D467F7E6F791D733D53
:101FD6002D0020015F4237766A7C7D467F7E6F79D1
:081FE6001D733D2D00200100D8
:00000001FF
