:100000002CC0EDCA32CB50C04FC04EC06DC44CC0E6
:100010004BC04BC050C748C047C046C045C044C095
:1000200043C0E7C0F5C0FCC00AC118C126C134C135
:1000300042C150C15EC16CC179C186C10DCEACCE8A
:1000400097CE60CE55CE74CE62CE82CE3BCE35CE2C
:1000500025CE0DCE01CEFECDE90A11241FBECFE57F
:10006000D2E0DEBFCDBF10E0A0E6B0E0E0E3FFE10C
:1000700003C0C89531960D92A838B107D1F711E0A9
:10008000A8E8B0E001C01D92AB31B107E1F710E084
:10009000CAE5D0E004C02297FD2FEC2F42DFC8351F
:1000A000D107C9F790DC43CFABCF1F920F920FB6A9
:1000B0000F9211242F933F938F939F9320911A01B6
:1000C00030E0822F992787709070892B09F031E0FA
:1000D0002F5F20931A019091C300992341F08091E2
:1000E000C100853009F43FC091509093C3009091B6
:1000F000C600992339F08091C4008530B9F1915040
:100100009093C6003323A1F58091C900882329F07C
:100110008091C90081508093C9008091CC008823D0
:1001200029F08091CC0081508093CC008091CF0049
:10013000882329F08091CF0081508093CF00809157
:10014000D200882351F48091DA008F3F89F08091AA
:10015000DA008F5F8093DA000BC08091D20081506B
:100160008093D200F0CF332311F6BECF332339F280
:100170009F918F913F912F910F900FBE0F901F90E5
:100180001895F92FE82FE05CFF4F8181E054F04093
:100190008823B1F4ED5BFF4F8181E354F040882365
:1001A00079F4FA968181FA97882351F4EA5BFF4F3C
:1001B000868120E030E0853031F0932F822F089542
:1001C00081E090E0089521E030E0F7CFB92FA82F2B
:1001D000F92FE82F8085E82FFF27ED30F10530F06B
:1001E00080E0FB2FEA2F1086992702C1EF5EFF4FB8
:1001F0000994662309F0F6C0FB2FEA2F82818F7BDA
:10020000828381E0FB2FEA2F808780E090E0F0C0BE
:10021000FB2FEA2F638382E0808780E090E0E8C0D4
:10022000662309F0D9C0FB2FEA2F81818F7E81835D
:1002300083E0FB2FEA2F808780E090E0D9C066231F
:1002400009F0C4C0FB2FEA2F8181877F818384E07E
:10025000FB2FEA2F808780E090E0CAC0662309F078
:10026000AFC0FB2FEA2F81818B7F818385E0FB2F3D
:10027000EA2F808780E090E0BBC0662309F09AC037
:10028000FB2FEA2F81818D7F818386E0FB2FEA2F70
:10029000808780E090E0ACC0662309F085C0FB2F2A
:1002A000EA2F81818E7F818387E0FB2FEA2F808771
:1002B00080E090E09DC0662309F070C0FB2FEA2F1C
:1002C00082818F7D828388E0FB2FEA2F808780E008
:1002D00090E08EC0662309F05BC0FB2FEA2F82817D
:1002E0008F7E828389E0FB2FEA2F808780E090E079
:1002F0007FC0662309F046C0FB2FEA2F8281877FEB
:1003000082838AE0FB2FEA2F808780E090E070C034
:10031000662391F5FB2FEA2F82818B7F82838BE00E
:10032000FB2FEA2F808780E090E062C06623F1F423
:10033000FB2FEA2F82818D7F82838CE0FB2FEA2FB7
:10034000808780E090E054C0662351F4FB2FEA2FB1
:1003500082818E7F82838C918F5F8C9381E041CFED
:10036000FB2FEA2F828181608283F5CFFB2FEA2F5A
:10037000828182608283E1CFFB2FEA2F82818460B9
:100380008283CDCFFB2FEA2F828188608283B9CF11
:10039000FB2FEA2F828180618283A4CFFB2FEA2F7B
:1003A0008281806282838FCFFB2FEA2F81818160DF
:1003B00081837ACFFB2FEA2F81818260818365CF91
:1003C000FB2FEA2F81818460818350CFFB2FEA2F9E
:1003D0008181886081833BCFFB2FEA2F81818061FF
:1003E000818326CFFB2FEA2F82818064828309CF0D
:1003F0000895CF93DF93D92FC82F8F81883010F4C1
:100400006F3620F01E82188681E03BC06F3290F478
:100410006E30C0F090E08E81823051F1833060F414
:10042000882391F0813071F49130D1F0992351F407
:1004300082E027C091E0EFCF843081F0843030F04B
:10044000853051F086E01DC080E01BC0913091F0F6
:100450009923C1F784E015C085E013C0992391F773
:1004600060E08C2F9D2FB2DE8823B1F783E009C0B6
:10047000992341F761E08C2F9D2FA8DE882361F737
:1004800081E08E831F82DF91CF9108952CB53DB519
:1004900040918B0050918C004217530778F4732FD2
:1004A000622F641B750B30938C0020938B006F3F81
:1004B000710569F060F06FEF70E009C02B5C334F9D
:1004C000732F622F641B750B25533C40ECCF8A5B66
:1004D0009F4F8FDF0895F92FE82F8681853019F01F
:1004E00080E090E0089582819927262F3327821794
:1004F0009307B1F7442349F0828184838381858304
:100500001682108681E090E0089594818281981788
:1005100099F795818381981779F7E2CF80938800C6
:10052000809188008093890060938A0085B58360FC
:1005300085BD8DE783BD0895F72FE62F242F352F36
:10054000952F842F6AE070E0C1DC805D8283932F59
:10055000822F6AE070E0BADC262F372F862F6AE000
:10056000A9DC905D9183822FA5DCA4DC905D908353
:100570000895F92FE82F90819130A1F0913030F05B
:100580009230B1F0933049F010820895B099FDCFC8
:100590008EE1828381E08083089582818823A9F798
:1005A0001082F3CF8281882351F482E0808391838B
:1005B000B09BEBCF8EE1828383E080830895B09B74
:1005C000E4CF10820895F92FE82F90819130A1F0A7
:1005D000913030F09230B1F0933049F010820895AC
:1005E0008499FDCF8EE1828381E0808308958281AA
:1005F0008823A9F71082F3CF8281882351F482E007
:1006000080839183849BEBCF8EE1828383E0808320
:100610000895849BE4CF10820895F92FE82F9081EC
:100620009130A1F0913030F09230B1F0933049F038
:10063000108208958599FDCF8EE1828381E08083C9
:10064000089582818823A9F71082F3CF82818823BD
:1006500051F482E080839183859BEBCF8EE182838E
:1006600083E080830895859BE4CF10820895F92F5D
:10067000E82F90819130A1F0913030F09230B1F0BC
:10068000933049F0108208958699FDCF8EE18283E0
:1006900081E08083089582818823A9F71082F3CFB7
:1006A0008281882351F482E080839183869BEBCF03
:1006B0008EE1828383E080830895869BE4CF10825D
:1006C0000895EF92FF920F931F93CF93DF93D92F4B
:1006D000C82F262FE42EF52E952F842F6AE070E088
:1006E0000BDC3327022F132F000F111F020F131FD4
:1006F000F12FE02F3296EC0FFD1F80839F2D8E2D62
:100700006AE070E0F9DB262F372F972F862F6AE0FB
:1007100070E0F2DBF12FE02F3196EC0FFD1F8083AC
:10072000932F822F6AE070E0E7DB262F372F972F79
:10073000862F6AE070E0E0DBFD2FEC2FE00FF11F69
:100740008083882321F437FF02C081E1808381E028
:100750008A8BDF91CF911F910F91FF90EF900895B9
:10076000EF92FF920F931F93CF93DF93D92FC82F50
:10077000262FE42EF52E952F842F6AE070E0BCDB47
:100780003327022F132F000F111F020F131FF12FFA
:10079000E02F3296EC0FFD1F80839F2D8E2D6AE097
:1007A00070E0AADB262F372F972F862F6AE070E0A4
:1007B000A3DBF12FE02F3196EC0FFD1F8083932FE9
:1007C000822F6AE070E098DB262F372F972F862F35
:1007D0006AE070E091DBFD2FEC2FE00FF11F8083CA
:1007E000882321F437FF02C081E1808381E08A8B76
:1007F000DF91CF911F910F91FF90EF900895CF93CC
:10080000DF93D92FC82F7727B72FA62FAA0FBB1F8B
:10081000A60FB71F1296F92FE82FEA0FFB1F1297AA
:1008200080818F5F808380818A3004F11082FB2F6A
:10083000EA2F3196EC0FFD1F80818F5F80838081CE
:10084000992787FD9095242F332727FD309528176A
:10085000390764F41082FB2FEA2FEC0FFD1F808113
:100860008F5F808380818A300CF0108281E08A8BD8
:10087000DF91CF910895B92FA82F7727262F372FF3
:10088000220F331F260F371F2E5F3F4FF92FE82F00
:10089000E20FF31F2250304080818150808380819D
:1008A00087FF1DC099E09083F32FE22F3196EA0F66
:1008B000FB1F808181508083808187FF10C040832F
:1008C000F32FE22FEA0FFB1F80818150808380810C
:1008D00087FF05C0908381E0FB2FEA2F838B81E0A7
:1008E000FB2FEA2F828B08951F920F920FB60F9263
:1008F00011241F932F933F934F935F936F937F9395
:100900008F939F93AF93BF93EF93FF931091190130
:10091000112321F490911101913061F180918800AF
:10092000882359F480918A00882389F485B5887FCB
:1009300085BD193048F080E04CC08091880081501E
:10094000809388001930B8F7812F8F5F42C0809163
:100950008A00815080938A0080918A0080FFE6CFD0
:10096000809189008093880085B5836085BD8DE77F
:1009700083BDE8CF80911701882329F49093170154
:1009800084E58093180180911301909114010197DF
:10099000909314018093130145E065E08DE890E0A9
:1009A0002EDF45E065E087EA90E065DF8091120187
:1009B000813009F0B3CF80911301909114016EE161
:1009C00070E084DA892B09F0A9CF63E083E0A6DD2B
:1009D000A5CF80931901FF91EF91BF91AF919F91A6
:1009E0008F917F916F915F914F913F912F911F91C7
:1009F0000F900FBE0F901F901895B92FA82F1C9223
:100A000081E090E0FB2FEA2FE80FF91F108201969A
:100A100082319105B9F7FB2FEA2F138A81E0828B8F
:100A2000148A818F6E980895B92FA82F1C9281E0A7
:100A300090E0FB2FEA2FE80FF91F10820196823118
:100A40009105B9F7FB2FEA2F138A81E0828B148A74
:100A5000818F6E980895B92FA82F7727F72FE62F4B
:100A6000EE0FFF1FE60FF71FEA0FFB1F80818F5F5E
:100A7000808380818A300CF0108281E0FB2FEA2F86
:100A8000828B0895B92FA82F7727F72FE62FEE0F27
:100A9000FF1FE60FF71FEA0FFB1F80818150808345
:100AA000808187FF02C089E0808381E0FB2FEA2FED
:100AB000828B08957727F72FE62FEE0FFF1FE60FA3
:100AC000F71FB92FA82FAE0FBF1F6C913196B92F0A
:100AD000A82FAE0FBF1FAC913196E80FF91F2081F0
:100AE000332727FD30955527862F992787FD909529
:100AF000752F642FCDD9280F391FBB27A7FDB095BF
:100B00008A2F9B2F880F991F880F991F8A0F9B1F71
:100B1000880F991F820F931F08958F929F92AF9213
:100B2000BF92CF92DF92EF92FF920F931F93E82E26
:100B3000F92E44E660E0BEDF882E992E44E661E09F
:100B40009F2D8E2DB7DF082F192F44E662E09F2DD1
:100B50008E2DB0DFA82EB92E44E663E09F2D8E2D9A
:100B6000A9DFC82ED92E44E664E09F2D8E2DA2DF8A
:100B7000080D191D0A0D1B1D0C0D1D1D800F911F49
:100B80001F910F91FF90EF90DF90CF90BF90AF90AB
:100B90009F908F900895282F392F7727F72FE62FD2
:100BA000EE0FFF1FE60FF71FB92FA82FAE0FBF1FC5
:100BB0001C923196B92FA82FAE0FBF1F1C923196F1
:100BC000E80FF91F108281E0F32FE22F828B089546
:100BD0007727F72FE62FEE0FFF1FE60FF71FB92F2E
:100BE000A82FAE0FBF1F6C913196B92FA82FAE0F53
:100BF000BF1FAC913196E80FF91F2081332727FDE5
:100C000030955527862F992787FD9095752F642F4E
:100C10003FD9280F391FBB27A7FDB0958A2F9B2FDF
:100C2000880F991F880F991F8A0F9B1F880F991F84
:100C3000820F931F08958F929F92AF92BF92CF928F
:100C4000DF92EF92FF920F931F93E82EF92E44E666
:100C500060E0BEDF882E992E44E661E09F2D8E2D48
:100C6000B7DF082F192F44E662E09F2D8E2DB0DFED
:100C7000A82EB92E44E663E09F2D8E2DA9DFC82E45
:100C8000D92E44E664E09F2D8E2DA2DF080D191D9C
:100C90000A0D1B1D0C0D1D1D800F911F1F910F9123
:100CA000FF90EF90DF90CF90BF90AF909F908F908C
:100CB0000895F92FE82F8489882349F0148A6E98C3
:100CC000C29A128A81E0828B128AC298C3980895D0
:100CD000CF93DF93B92FA82FD92FC82F8C898823C2
:100CE00009F450C08D898823A9F5FB2FEA2F368996
:100CF000E30FF11DE081DB2FCA2F288D8091730057
:100D0000882311F0EE2351F19E2F10927300FF27DC
:100D1000DB2FCA2F8F89853039F1EF59FF4F808142
:100D200080958FB9832F8F5FFB2FEA2F868B8231BF
:100D300010F081E0858BDB2FCA2F888D8F5F888F25
:100D4000833000F1188E81E0809373008F898F5F6C
:100D50008F8B18C08A2F9B2FACDF14C02230A0F6D7
:100D600090E1E0E1F0E0D4CF2223B9F69A30A8F682
:100D7000898D882391F2EF59FF4F8FE79081891B6E
:100D80008FB9D0CFDF91CF910895F92FE82F8289C5
:100D9000882311F08489811108956E9A6C9AC39A00
:100DA00081E0848B158A168A178A108E8E2F9F2FCA
:100DB0008FDF0895F92FE82F8489882349F0148A5A
:100DC0006E98C49A128A81E0828B128AC498C39862
:100DD0000895CF93DF93B92FA82FD92FC82F8C89CF
:100DE000882309F450C08D898823A9F5FB2FEA2FA9
:100DF0003689E30FF11DE081DB2FCA2F288D80910A
:100E00008600882311F0EE2351F19E2F1092860068
:100E1000FF27DB2FCA2F8F89853039F1EC58FF4F20
:100E2000808180958FB9832F8F5FFB2FEA2F868B70
:100E3000823110F081E0858BDB2FCA2F888D8F5F88
:100E4000888F833000F1188E81E0809386008F892F
:100E50008F5F8F8B18C08A2F9B2FACDF14C022307E
:100E6000A0F690E1E0E1F0E0D4CF2223B9F69A3089
:100E7000A8F6898D882391F2EC58FF4F8FE7908177
:100E8000891B8FB9D0CFDF91CF910895F92FE82F2B
:100E90008289882311F08489811108956E9A6C9A51
:100EA000C39A81E0848B158A168A178A108E8E2F3A
:100EB0009F2F8FDF08951F920F920FB60F9211246C
:100EC0000F931F932F933F934F935F936F937F9352
:100ED0008F939F93AF93BF93EF93FF9307EA10E035
:100EE000912F802FF5DE912F802F4A9772DFFF918F
:100EF000EF91BF91AF919F918F917F916F915F9192
:100F00004F913F912F911F910F910F900FBE0F9016
:100F10001F901895282F392F7727F72FE62FEE0FE0
:100F2000FF1FE60FF71FB92FA82FAE0FBF1F81E1DC
:100F30008C933196B32FA22FAE0FBF1F4C933196D7
:100F4000E20FF31F808381E0F32FE22F828B08955D
:100F50000F931F93CF93DF93D92FC82FF92FE82F2B
:100F6000ED5BFF4F8181882309F4E2C011820C2FD1
:100F70001D2F0A5B1F4F65E08C2F9D2F6CDDFD2F11
:100F8000EC2FE657FF4F8081882309F480C040E0B2
:100F900061E1912F802F9FDA882309F088C0FD2F0F
:100FA000EC2FE15BFF4F80818C3009F4B7C0FD2F3F
:100FB000EC2FE05CFF4F8181882309F495C01182FA
:100FC000FD2FEC2FEB57FF4F8081882309F45CC085
:100FD00080E080834081465F65E08C2F9D2F4A969C
:100FE00099DFFD2FEC2FE657FF4F8081882341F4D6
:100FF00081E08083C557DF4F8DE48883CB58D04094
:10100000FD2FEC2FFA968181882309F4AFC011825D
:101010004CE365E08C2F9D2F4DDDFD2FEC2FEA5723
:10102000FF4F9183808380819181892B21F484EB10
:1010300090E09183808380819181C857DF4F9983AD
:101040008883C858D0408081918164E670E020D7C1
:101050006CE370E051D7462F572F65E08C2F9D2F02
:1010600030DB44E665E08C2F9D2F24DD482F592F7F
:1010700065E08C2F9D2F4A9673DB65E08C2F9D2FAA
:101080008ADD81E090E08DC080818F5FA2CF81E01A
:101090008083C557DF4F89E48883CB58D04040E038
:1010A00061E1912F802F17DA882309F478CF45E08A
:1010B00065E08C2F9D2FE6DCFD2FEC2FE657FF4FD0
:1010C0008081882309F073CF81E08083C557DF4F8B
:1010D00084E48883CB58D040FD2FEC2FE05CFF4F99
:1010E0008181882309F06BCF40E066E5912F802F46
:1010F000F2D9882309F064CFFD2FEC2FE15BFF4F7D
:1011000080818C3009F07CCFCE5ADF4F8881C25568
:10111000D0408D3409F074CF108252CFCE5ADF4FB9
:101120008881C255D040843409F041CF1082BFCFAE
:101130000C2F1D2F0A5B1F4F40E060E1912F802F85
:10114000CAD9882309F017CFFD2FEC2FE15BFF4FA1
:1011500080818C3009F01BCFCE5ADF4F8881C25579
:10116000D040893409F013CF108205CF40E062E10E
:10117000912F802FB0D9882309F04ACFFD2FEC2F73
:10118000E15BFF4F80818C3019F080E090E009C076
:10119000CE5ADF4F8881C255D0408234B1F71082D9
:1011A00037CFDF91CF911F910F910895CF93DF93A8
:1011B000D92FC82F7727B72FA62FAA0FBB1FA60F8F
:1011C000B71F1296FD2FEC2FEA0FFB1F129780819D
:1011D0008F5F808380818A3004F11082FB2FEA2F99
:1011E0003196EC0FFD1F80818F5F8083808199276E
:1011F00087FD9095242F332727FD30952817390731
:1012000064F41082FB2FEA2FEC0FFD1F80818F5FAB
:10121000808380818A300CF0108281E08A8BDF919C
:10122000CF9108950F931F93CF93DF93D92FC82F9A
:10123000062F172F8881823009F45CC08330E0F0DC
:10124000843009F443C0843068F58A81882309F02A
:1012500041C08981282F332724FD81C026FD78C015
:1012600087FD8DC0992785FD6BC083FD63C085E038
:10127000888386E98A838DC0882381F423B32095EF
:101280002760822F992784FD48C086FD50C027FD26
:1012900073C085FF6DC080E2898341C0813041F019
:1012A000188277C08530E1F78A818823C9F371C03D
:1012B0008A81882369F183B3809587609927298182
:1012C000332782239323892B59F363C083E08883D8
:1012D0008EE18A8383B3809587609927298133279C
:1012E00082239323892B09F454C086E98A8382E000
:1012F00088834FC08A818823B9F083B38095876043
:1013000099272981332782239323892B09F041C010
:1013100083E088838EE18A833CC080E189838EE10B
:101320008A8381E0888335C084E0888332C080E48A
:101330008983F5CF49E064E0912F802F60DA97CF61
:1013400049E063E0912F802F5ADA898199278DCF68
:1013500049E061E0912F802F52DA898181CF49E005
:1013600060E0912F802F4BDA8981282F332776CFA9
:1013700083FD0CC019820DC080E88983D0CF49E07D
:1013800062E0912F802F3BDA89816CCF88E08983DE
:10139000C6CFDF91CF911F910F9108950F931F93A7
:1013A000CF93DF93D92FC82F062F172F8881823034
:1013B00009F455C08330C0F08430E9F1843038F549
:1013C0008A818823E1F58981992783FD86C081FD83
:1013D0007CC080FD72C082FD68C084FD60C085E075
:1013E000888386E98A838DC0882369F489B38095D0
:1013F000806E992783FD46C081FD4EC080FF75C079
:1014000081E0898341C0813041F018827AC0853003
:10141000E1F78A818823C9F374C08A81882369F13E
:1014200089B38095806E992729813327822393235E
:10143000892B59F366C083E088838EE18A8389B360
:101440008095806E99272981332782239323892BC6
:1014500009F457C086E98A8382E0888352C08A8172
:101460008823B9F089B38095806E99272981332725
:1014700082239323892B09F044C083E088838EE183
:101480008A833FC088E089838EE18A8381E08883F4
:1014900038C084E0888335C082E08983F5CF49E095
:1014A00064E0912F802F82DE9ACF49E063E0912F94
:1014B000802F7CDE8981992790CF49E062E0912FCF
:1014C000802F74DE8981992786CF49E061E0912FD2
:1014D000802F6CDE898199277CCF49E060E0912FD5
:1014E000802F64DE8981992772CF82FF03C084E058
:1014F0008983CACF84FD02C0198203C080E1898339
:10150000C3CFDF91CF911F910F910895019709F0FB
:1015100008956F5F7F4FE1F781E080939F00109205
:10152000A0001092A1008093A600BC9AC498BB9A18
:10153000C3988093B9001092BA001092BB008093B8
:10154000C000BA9AC298BB9AC3981092C10084B3E3
:10155000877084BB85B3886F85BB1092C4008AB343
:10156000807E8ABB8BB38F618BBB1092C700B8980B
:10157000C09A1092CA008C98949A1092CD008D98BF
:10158000959A1092D0008E98969A1092D900109247
:10159000D9001092DB001092D7001092D80080EC96
:1015A0008BBF8EE085BF1092DC00109210018CE0A2
:1015B00089B998E19AB91092110110921201BF9A5B
:1015C000BE98BD9A82ED8DB91092880095BD8F9A14
:1015D00008956FEF7FEF81E090E098DF08951F920C
:1015E0000F920FB60F9211242F933F934F935F9357
:1015F0006F937F938F939F93AF93BF93EF93FF93DB
:101600008CB59DB520918B0030918C00281739073F
:1016100078F4682F792F621B730B90938C00809362
:101620008B006F3F710569F060F06FEF70E009C0EB
:101630008B5C934F682F792F621B730B85539C40F3
:10164000ECCF83ED90E0D5D6FF91EF91BF91AF91B4
:101650009F918F917F916F915F914F913F912F91CA
:101660000F900FBE0F901F9018951F920F920FB6FC
:101670000F9211242F933F934F935F936F937F9318
:101680008F939F93AF93BF93EF93FF938CB59DB5CB
:1016900020918B0030918C002817390778F4682F3F
:1016A000792F621B730B90938C0080938B006F3F9C
:1016B000710569F060F06FEF70E009C08B5C934FCB
:1016C000682F792F621B730B85539C40ECCF83ED01
:1016D00090E08FD6FF91EF91BF91AF919F918F9145
:1016E0007F916F915F914F913F912F910F900FBE1E
:1016F0000F901F901895DF92EF92FF920F931F9318
:10170000CF93DF93D92FC82F082F192F0C571F4FB6
:10171000F12FE02FD080F92FE82FFD9681818823CB
:1017200009F4B7C01182F12FE02F108210928800C7
:1017300088E185BD8F9A8C2F9D2F4A965ED98C2F7C
:101740009D2F72D9EA961982EA971AAEFD2FEC2FD7
:10175000E05CFF4F11821082FD2FEC2FED5BFF4FFD
:1017600011821082CA57DF4F19821882249681E0B5
:10177000899388E48883CB58D040F12FE02F808173
:10178000823009F4B7C0833008F1833091F184309E
:1017900009F471C0F12FE02F1082F12FE02F80812A
:1017A0002D2D332799272817390709F404C1FD2F58
:1017B000EC2FE657FF4F8081882309F0FCC081E0C1
:1017C0008083C557DF4F85E48883F5C0882309F4FB
:1017D0007CC08130F9F6CA57DF4F88819981C6589D
:1017E000D040892B09F099C083E0F12FE02F80834E
:1017F000D4CFFD2FEC2FEA5BFF4F168210868C2F83
:101800009D2F8BD9482F592FF3E0883E9F0708F46E
:101810009AC06AE070E05AD3462F572F65E08C2FAC
:101820009D2F4FD79AE1E92EF12CEC0EFD1E9F2D36
:101830008E2D01DA482F592F83E0483E580708F4CF
:1018400080C0952F842F6AE070E040D3462F572F39
:1018500065E09F2D8E2D84D7C657DF4F81E0899399
:1018600082E58883CB58D04061E08AE057D684E097
:10187000F12FE02F80838C2F9D2F83D4882309F4B0
:101880008CCF8C2F9D2FD0D88C2F9D2F4A96B5D8DA
:1018900081CF40E06CE48C2F9D2F8A5B9F4F1BD63D
:1018A000882309F040CFFD2FEC2FE15BFF4F8081B3
:1018B0008C3009F062CFCE5ADF4F8881C255D040BC
:1018C000883409F05ACF10822ECF8C2F9D2F40DB09
:1018D000882309F462CF81E0F12FE02F8083C6577F
:1018E000DF4F899382E48883CB58D04061E086E063
:1018F00015D653CFFD2FEC2FFA968181882329F13D
:10190000118281E0F12FE02F8083C657DF4F89934A
:1019100082E48883CB58D04040CFFD2FEC2FFA963D
:101920008181882369F1118282E0F12FE02F808389
:10193000C657DF4F81E0899380E58883CB58D0403C
:101940002CCF1BAA85CF198E69CF40E062E18C2F86
:101950009D2F8A5B9F4FBFD5882399F6FD2FEC2FD3
:10196000E15BFF4F80818C3009F017CFCE5ADF4FFB
:101970008881C255D040823409F00FCF1082C1CF88
:1019800040E062E18C2F9D2F8A5B9F4FA4D5882376
:1019900059F6FD2FEC2FE15BFF4F80818C3009F071
:1019A000FCCECE5ADF4F8881C255D040823409F038
:1019B000F4CE1082B9CFDF91CF911F910F91FF909C
:1019C000EF90DF900895CDE5D2E0DEBFCDBF89B7BF
:1019D000816189BF1FBC8CE08EBD81E083BF85E340
:1019E0009CE09BBD8ABD7894E7EACE2EE0E0DE2E37
:1019F00076EEE72E7FEFF72EEC0CFD1C6AE3A62EA9
:101A0000B12CAE0CBF1C5DE3852E912C8E0C9F1C5F
:101A10004DEC642E40E0742E30ED432E30E0532E1A
:101A20002CED222E20E0322E80911101813009F41C
:101A3000C9C01092C4001092C5001092C600109246
:101A4000C1001092C2001092C3009B2D8A2D91D527
:101A5000992D882DB8D5972D862DDFD5952D842DE0
:101A600006D680911701882309F47FC010911801D0
:101A7000409113015091140180911501909116012C
:101A80009A8389839091120180911001813009F429
:101A900095C182E38093E30086E38093E4008CE2C7
:101AA0008093E500ABE9B0E026EE30E014C08EE2B2
:101AB000F32FE22F8083FB2FEA2F828D8A3080F074
:101AC0008EE2F32FE22F878711972F5F3F4FF0E0D1
:101AD000253F3F0739F08C918A3048F7805DE8CF89
:101AE000805DEFCF9A3108F4AFC08EE2809304019D
:101AF00065E071E0932D822D1FD549815A8168E000
:101B000071E0932D822D18D5812F81548A3108F4EC
:101B100092C08EE280930B01E3EEF0E090E08191C1
:101B2000980F81E0EC30F807D1F78CE280930C013C
:101B3000892F82958F708A3008F482C0895C282FA3
:101B4000332720930D01892F8F708A3008F475C0D8
:101B5000895C992780930E0181E080931001109297
:101B60000F018AE38CB91092170180911001813026
:101B700009F450C05F9B07C02CB1222309F041C07B
:101B800080E08093DC0041E06DE483ED90E0A3D43D
:101B9000882349F58091DC008C30F9F09F2D8E2D43
:101BA000AADD8091A100882341F18091BB008823A8
:101BB00009F03ACF9F2D8E2D69D980911101813086
:101BC00009F037CF7D2D6C2D84EC90E0E7DB7F2D85
:101BD0006E2D81EC90E026DB38CF8091DF008335DD
:101BE000E9F61092DC0061E082E098D49F2D8E2D02
:101BF00082DD8091A1008823C1F69D2D8C2DC5D852
:101C0000D4CF3091DC00E32FFF27EE30F105F8F060
:101C10008DE0B7CF5D9BAECF90910F019C3208F065
:101C2000D0C0E92FFF27ED51FF4F80819F5F909338
:101C30000F018CB99FCF812F6DCF805D99278ACFFF
:101C4000805D282F33277DCF892F8F5B4FCFE25EBA
:101C5000FF4F09941092DC002A3309F411C130912E
:101C6000DC009DE03930F0F1892F99278ACF2134AB
:101C700008F4C5C0273408F0C2C04091DE002753E5
:101C8000822F9927295C942F982B9093DE008091C6
:101C9000DD00981709F490C09DE0E4CF213408F4EA
:101CA000C7C0273408F0C4C02753822F99278295D4
:101CB000807F8093DE008BE064CF2C3209F088C0F7
:101CC0008AE05FCF213408F48FC0273408F08CC03D
:101CD0003091E1002753822F9927295C382B3093CC
:101CE000E10099E08091DD00820F8093DD00BCCFA0
:101CF000213408F46BC02B3508F068C02093DF0056
:101D000095E0F0CF2C3209F061C094E0EBCF2134A4
:101D100008F4A0C0273408F09DC03091E20027539A
:101D2000822F9927295C382B3093E20097E0DACF95
:101D3000213408F450C0273408F04DC02753822FB7
:101D40009927295C8295807F8093E20096E0CACF34
:101D5000213408F48BC0273408F088C02753822F21
:101D60009927295C8295807F8093E10098E0BACF23
:101D7000213408F450C0273408F04DC04091E000F1
:101D80002753822F9927295C842B8093E00085308C
:101D900009F082CF93E066CF213408F452C0273493
:101DA00008F04FC02753822F9927295C8295807FA6
:101DB0008093E00092E096CF8CE0E3CE5D9B69CE0D
:101DC000D4CE82E0809310011CB8D4CE9DE08ACF9F
:101DD0008DE090E0D6CE822F80538A30B8F72A3338
:101DE00008F0ACCF9927AECF822F80538A3070F79E
:101DF0003091E1002A3308F06DCF99276FCF822F01
:101E000080538A3008F048CF4091DE002A3308F032
:101E100036CF992738CF922F90539A3008F03CCF85
:101E20004091E0002A3308F0ABCF892F9927ACCF3F
:101E3000822F80538A3060F62A3308F035CF9927F5
:101E400036CF822F80538A3008F62A3308F0AACF83
:101E50009927ACCF822F80538A3008F0B7CF3091CA
:101E6000E2002A3308F05BCF99275DCF822F8053A1
:101E70008A3008F0ABCF2A3308F070CF992772CFA1
:101E80001092E2001092E1001092DD0081E079CE24
:101E90005527002480FF02C0060E571F660F771FCC
:101EA0006115710521F096958795009799F7952F03
:101EB000802D0895991B79E004C0991F961708F0AA
:101EC000961B881F7A95C9F780950895AA1BBB1B9E
:101ED00051E107C0AA1FBB1FA617B70710F0A61B2A
:101EE000B70B881F991F5A95A9F780959095682F71
:101EF000792F8A2F9B2F089597FB092E07260AD04A
:101F000077FD04D0E3DF06D000201AF470956195C8
:101F10007F4F0895F6F7909581959F4F0895EE0FA6
:101F2000FF1FC89531960F92C8950F920895FFCF65
:101F30000F5F4237766A7C7D467F7E6F791D733DE9
:101F40002D0020015F4237766A7C7D467F7E6F7967
:081F50001D733D2D002001006E
:00000001FF
