:100000002CC013CA58CA50C04FC04EC01DC44CC0EB
:100010004BC04BC0D7C648C047C046C045C044C00F
:1000200043C0C0C0CEC0D5C0E3C0F1C0FFC00DC149
:100030001BC129C137C145C152C15FC16FCDE2CDDE
:10004000CDCDC7CDBCCD0FCEEDCDFDCDA2CD9CCDC0
:100050008CCD75CD63CD5FCD0F0A11241FBECFE5CA
:10006000D2E0DEBFCDBF10E0A0E6B0E0E8EEFDE1FB
:1000700003C0C89531960D92A838B107D1F711E0A9
:10008000A8E8B0E001C01D92A331B107E1F710E08C
:10009000CAE5D0E004C02297FD2FEC2F9EDEC835C4
:1000A000D107C9F7D1DB9FCEABCF1F920F920FB60E
:1000B0000F9211248F938091C100882319F08150F1
:1000C0008093C1008091C400882319F081508093EF
:1000D000C4008091C700882329F08091C700815017
:1000E0008093C7008091CA00882329F08091CA00BC
:1000F00081508093CA008091CD00882329F080919F
:10010000CD0081508093CD008091D000882329F0CC
:100110008091D00081508093D0008091D8008F3F93
:1001200029F08091D8008F5F8093D8008F910F9035
:100130000FBE0F901F901895F92FE82FFE96818122
:10014000FE978823B1F4EF5BFF4F8181E154F040CB
:10015000882379F4F8968181F897882351F4EC5B31
:10016000FF4F868120E030E0853031F0932F822FE1
:10017000089581E090E0089521E030E0F7CFB92FB5
:10018000A82FF92FE82F8085E82FFF27ED30F10504
:1001900030F080E0FB2FEA2F1086992702C1EF5E36
:1001A000FF4F0994662309F0F6C0FB2FEA2F8281E6
:1001B0008F7B828381E0FB2FEA2F808780E090E0B5
:1001C000F0C0FB2FEA2F638382E0808780E090E01D
:1001D000E8C0662309F0D9C0FB2FEA2F81818F7E0A
:1001E000818383E0FB2FEA2F808780E090E0D9C0F5
:1001F000662309F0C4C0FB2FEA2F8181877F8183AA
:1002000084E0FB2FEA2F808780E090E0CAC066235D
:1002100009F0AFC0FB2FEA2F81818B7F818385E0BE
:10022000FB2FEA2F808780E090E0BBC0662309F0B7
:100230009AC0FB2FEA2F81818D7F818386E0FB2F7F
:10024000EA2F808780E090E0ACC0662309F085C08B
:10025000FB2FEA2F81818E7F818387E0FB2FEA2F9E
:10026000808780E090E09DC0662309F070C0FB2F7E
:10027000EA2F82818F7D828388E0FB2FEA2F80879F
:1002800080E090E08EC0662309F05BC0FB2FEA2F70
:1002900082818F7E828389E0FB2FEA2F808780E036
:1002A00090E07FC0662309F046C0FB2FEA2F8281D1
:1002B000877F82838AE0FB2FEA2F808780E090E0AF
:1002C00070C0662391F5FB2FEA2F82818B7F82839A
:1002D0008BE0FB2FEA2F808780E090E062C06623EE
:1002E000F1F4FB2FEA2F82818D7F82838CE0FB2F3C
:1002F000EA2F808780E090E054C0662351F4FB2F02
:10030000EA2F82818E7F82838C918F5F8C9381E034
:1003100041CFFB2FEA2F828181608283F5CFFB2FB3
:10032000EA2F828182608283E1CFFB2FEA2F8281D4
:1003300084608283CDCFFB2FEA2F82818860828305
:10034000B9CFFB2FEA2F828180618283A4CFFB2F5C
:10035000EA2F8281806282838FCFFB2FEA2F8181F7
:10036000816081837ACFFB2FEA2F81818260818334
:1003700065CFFB2FEA2F81818460818350CFFB2FD3
:10038000EA2F8181886081833BCFFB2FEA2F818117
:100390008061818326CFFB2FEA2F82818064828354
:1003A00009CF0895CF93DF93D92FC82F8F8188303D
:1003B00010F46F3620F01E82188681E03DC06F3247
:1003C000B0F46E3020F190E08E81833081F1843082
:1003D00080F4813031F1823000F19923E1F461E061
:1003E0008C2F9D2FCCDE8823D1F085E025C091E0B5
:1003F000EBCF8530D1F3853060F4992361F460E070
:100400008C2F9D2FBCDE882381F783E015C086E00A
:1004100013C08630E1F386E00FC080E00DC081E0BC
:100420000BC0913061F39923B1F782E005C09130A0
:10043000B1F2992381F784E08E831F82DF91CF91FF
:1004400008952CB53DB540918B0050918C0042171A
:10045000530778F4732F622F641B750B30938C0055
:1004600020938B006F3F710569F060F06FEF70E0D3
:1004700009C02B5C334F732F622F641B750B255300
:100480003C40ECCF8C5B9F4F8DDF0895F92FE82F18
:100490008681853019F080E090E008958281992767
:1004A000262F332782179307B1F7442349F082811F
:1004B0008483838185831682108681E090E008958D
:1004C00094818281981799F795818381981779F79C
:1004D000E2CFF92FE82F90819130A1F0913030F0E8
:1004E0009230B1F0933049F010820895B099FDCF69
:1004F0008EE1828381E08083089582818823A9F739
:100500001082F3CF8281882351F482E0808391832B
:10051000B09BEBCF8EE1828383E080830895B09B14
:10052000E4CF10820895F92FE82F90819130A1F047
:10053000913030F09230B1F0933049F0108208954C
:100540008499FDCF8EE1828381E08083089582814A
:100550008823A9F71082F3CF8281882351F482E0A7
:1005600080839183849BEBCF8EE1828383E08083C1
:100570000895849BE4CF10820895F92FE82F90818D
:100580009130A1F0913030F09230B1F0933049F0D9
:10059000108208958599FDCF8EE1828381E080836A
:1005A000089582818823A9F71082F3CF828188235E
:1005B00051F482E080839183859BEBCF8EE182832F
:1005C00083E080830895859BE4CF10820895F92FFE
:1005D000E82F90819130A1F0913030F09230B1F05D
:1005E000933049F0108208958699FDCF8EE1828381
:1005F00081E08083089582818823A9F71082F3CF58
:100600008281882351F482E080839183869BEBCFA3
:100610008EE1828383E080830895869BE4CF1082FD
:100620000895EF92FF920F931F93CF93DF93D92FEB
:10063000C82F262FE42EF52E952F842F6AE070E028
:10064000B7DB3327022F132F000F111F020F131FC9
:10065000F12FE02F3296EC0FFD1F80839F2D8E2D02
:100660006AE070E0A5DB262F372F972F862F6AE0F0
:1006700070E09EDBF12FE02F3196EC0FFD1F8083A1
:10068000932F822F6AE070E093DB262F372F972F6E
:10069000862F6AE070E08CDBFD2FEC2FE00FF11F5E
:1006A0008083882321F437FF02C081E1808381E0C9
:1006B0008A8BDF91CF911F910F91FF90EF9008955A
:1006C000EF92FF920F931F93CF93DF93D92FC82FF1
:1006D000262FE42EF52E952F842F6AE070E068DB3C
:1006E0003327022F132F000F111F020F131FF12F9B
:1006F000E02F3296EC0FFD1F80839F2D8E2D6AE038
:1007000070E056DB262F372F972F862F6AE070E098
:100710004FDBF12FE02F3196EC0FFD1F8083932FDD
:10072000822F6AE070E044DB262F372F972F862F29
:100730006AE070E03DDBFD2FEC2FE00FF11F8083BE
:10074000882321F437FF02C081E1808381E08A8B16
:10075000DF91CF911F910F91FF90EF900895CF936C
:10076000DF93D92FC82F7727B72FA62FAA0FBB1F2C
:10077000A60FB71F1296F92FE82FEA0FFB1F12974B
:1007800080818F5F808380818A3004F11082FB2F0B
:10079000EA2F3196EC0FFD1F80818F5F808380816F
:1007A000992787FD9095242F332727FD309528170B
:1007B000390764F41082FB2FEA2FEC0FFD1F8081B4
:1007C0008F5F808380818A300CF0108281E08A8B79
:1007D000DF91CF910895B92FA82F7727262F372F94
:1007E000220F331F260F371F2E5F3F4FF92FE82FA1
:1007F000E20FF31F2250304080818150808380813E
:1008000087FF1DC099E09083F32FE22F3196EA0F06
:10081000FB1F808181508083808187FF10C04083CF
:10082000F32FE22FEA0FFB1F8081815080838081AC
:1008300087FF05C0908381E0FB2FEA2F838B81E047
:10084000FB2FEA2F828B08951F920F920FB60F9203
:1008500011241F932F933F934F935F936F937F9335
:100860008F939F93AF93BF93EF93FF9310911201D8
:10087000112321F490910C01913061F18091880055
:10088000882359F480918A00882389F485B5887F6C
:1008900085BD193048F080E057C0809188008150B4
:1008A000809388001930B8F7812F8F5F4DC08091F9
:1008B0008A00815080938A0080918A0080FFE6CF71
:1008C000809189008093880085B5836085BD8DE720
:1008D00083BDE8CF80911001882329F49093100103
:1008E00084E58093110180910E0190910F01019791
:1008F00090930F0180930E0145E065E08DE890E054
:100900002EDF45E065E086EA90E065DF80910D012D
:10091000813009F0B3CF80910E0190910F016EE10B
:1009200070E030DA892B09F0A9CF93E0909388002A
:10093000809188008093890090938A0085B58360B8
:1009400085BD8DE783BD9ACF80931201FF91EF9112
:10095000BF91AF919F918F917F916F915F914F91D7
:100960003F912F911F910F900FBE0F901F901895E0
:10097000B92FA82F7727F72FE62FEE0FFF1FE60FCF
:10098000F71FEA0FFB1F80818F5F808380818A3091
:100990000CF0108281E0FB2FEA2F828B0895B92F93
:1009A000A82F7727F72FE62FEE0FFF1FE60FF71F71
:1009B000EA0FFB1F808181508083808187FF02C006
:1009C00089E0808381E0FB2FEA2F828B08957727CF
:1009D000F72FE62FEE0FFF1FE60FF71FB92FA82FF7
:1009E000AE0FBF1F6C913196B92FA82FAE0FBF1F4E
:1009F000AC913196E80FF91F2081332727FD309500
:100A00005527862F992787FD9095752F642F9CD9A0
:100A1000280F391FBB27A7FDB0958A2F9B2F880F62
:100A2000991F880F991F8A0F9B1F880F991F820F8C
:100A3000931F08958F929F92AF92BF92CF92DF92B1
:100A4000EF92FF920F931F93E82EF92E44E660E099
:100A5000BEDF882E992E44E661E09F2D8E2DB7DFF4
:100A6000082F192F44E662E09F2D8E2DB0DFA82EAF
:100A7000B92E44E663E09F2D8E2DA9DFC82ED92E16
:100A800044E664E09F2D8E2DA2DF080D191D0A0D8E
:100A90001B1D0C0D1D1D800F911F1F910F91FF90AD
:100AA000EF90DF90CF90BF90AF909F908F90089580
:100AB000282F392F7727F72FE62FEE0FFF1FE60F8E
:100AC000F71FB92FA82FAE0FBF1F1C923196B92F59
:100AD000A82FAE0FBF1F1C923196E80FF91F10828E
:100AE00081E0F32FE22F828B08957727F72FE62FEF
:100AF000EE0FFF1FE60FF71FB92FA82FAE0FBF1F76
:100B00006C913196B92FA82FAE0FBF1FAC913196C3
:100B1000E80FF91F2081332727FD30955527862FB1
:100B2000992787FD9095752F642F0ED9280F391FAF
:100B3000BB27A7FDB0958A2F9B2F880F991F880F81
:100B4000991F8A0F9B1F880F991F820F931F08956B
:100B50008F929F92AF92BF92CF92DF92EF92FF92CD
:100B60000F931F93E82EF92E44E660E0BEDF882E37
:100B7000992E44E661E09F2D8E2DB7DF082F192FA7
:100B800044E662E09F2D8E2DB0DFA82EB92E44E6FC
:100B900063E09F2D8E2DA9DFC82ED92E44E664E098
:100BA0009F2D8E2DA2DF080D191D0A0D1B1D0C0D8A
:100BB0001D1D800F911F1F910F91FF90EF90DF90EF
:100BC000CF90BF90AF909F908F900895F92FE82F0E
:100BD0008489882349F0148A6E98C29A128A81E027
:100BE000828B128AC298C3980895CF93DF93B92F4E
:100BF000A82FD92FC82F8C89882309F44DC08D893F
:100C00008823A9F5FB2FEA2F2689E20FF11DE08149
:100C1000DB2FCA2F388D80917300882311F0EE23CB
:100C200051F19E2F10927300FF27DB2FCA2F8F895F
:100C3000853039F1EF59FF4F808180958FB9822F30
:100C40008F5FFB2FEA2F868B823110F081E0858B3E
:100C5000DB2FCA2F888D8F5F888F8330E8F0188E46
:100C600081E0809373008F898F5F8F8B15C08A2FEF
:100C70009B2FACDF11C03230A0F690E1E0E1F0E054
:100C8000D4CF3323B9F69A30A8F6EF59FF4F8FE748
:100C90009081891B8FB9D3CFDF91CF910895F92F20
:100CA000E82F8289882311F08489811108956E9A32
:100CB0006C9AC39A81E0848B158A168A178A108EE3
:100CC0008E2F9F2F92DF0895F92FE82F8489882394
:100CD00049F0148A6E98C49A128A81E0828B128A33
:100CE000C498C3980895CF93DF93B92FA82FD92F15
:100CF000C82F8C89882309F44DC08D898823A9F5D4
:100D0000FB2FEA2F2689E20FF11DE081DB2FCA2F8E
:100D1000388D80918600882311F0EE2351F19E2FAB
:100D200010928600FF27DB2FCA2F8F89853039F17B
:100D3000EC58FF4F808180958FB9822F8F5FFB2FFA
:100D4000EA2F868B823110F081E0858BDB2FCA2F52
:100D5000888D8F5F888F8330E8F0188E81E08093D4
:100D600086008F898F5F8F8B15C08A2F9B2FACDFFA
:100D700011C03230A0F690E1E0E1F0E0D4CF3323AF
:100D8000B9F69A30A8F6EC58FF4F8FE79081891B8F
:100D90008FB9D3CFDF91CF910895F92FE82F8289B2
:100DA000882311F08489811108956E9A6C9AC39AF0
:100DB00081E0848B158A168A178A108E8E2F9F2FBA
:100DC00092DF08951F920F920FB60F9211240F9386
:100DD0001F932F933F934F935F936F937F938F93C3
:100DE0009F93AF93BF93EF93FF9306EA10E0912F89
:100DF000802FFBDE912F802F499775DFFF91EF91B8
:100E0000BF91AF919F918F917F916F915F914F9122
:100E10003F912F911F910F910F900FBE0F901F9038
:100E20001895282F392F7727F72FE62FEE0FFF1F62
:100E3000E60FF71FB92FA82FAE0FBF1F81E18C93CC
:100E40003196B32FA22FAE0FBF1F4C933196E20FF6
:100E5000F31F808381E0F32FE22F828B08950F939D
:100E60001F93CF93DF93D92FC82FF92FE82FEF5B74
:100E7000FF4F8181882309F4D8C011820C2F1D2FC8
:100E80000C5B1F4F65E08C2F9D2F72DDFD2FEC2F2B
:100E9000ED57FF4F8081882309F477C040E061E17E
:100EA000912F802FF3DA882309F07FC0FD2FEC2FDC
:100EB000E35BFF4F80818C3009F4ADC0FD2FEC2F38
:100EC000FE968181882309F48CC01182FD2FEC2FBE
:100ED000E058FF4F8081882309F454C080E080836C
:100EE0004081465F65E08C2F9D2F49969ADFFD2F4C
:100EF000EC2FED57FF4F8081882341F481E0808300
:100F0000CC57DF4F8DE48883C458D040FD2FEC2FA1
:100F1000F8968181882309F4A6C011824CE365E02C
:100F20008C2F9D2F54DDFD2FEC2FEF57FF4F91831A
:100F3000808380819181892B21F484EB90E09183DF
:100F400080838081918164E670E0FED66CE370E07E
:100F50002FD7462F572F65E08C2F9D2F62DB44E65D
:100F600065E08C2F9D2F33DD482F592F65E08C2FA6
:100F70009D2F4996A5DB65E08C2F9D2F99DD81E0A3
:100F800090E08CC080818F5FAACF81E08083CC57B6
:100F9000DF4F89E48883C458D04040E061E1912F5D
:100FA000802F74DA882309F481CF45E065E08C2F27
:100FB0009D2FF5DCFD2FEC2FED57FF4F808188230F
:100FC00009F07CCF81E08083CC57DF4F84E48883B5
:100FD000C458D040FD2FEC2FFE968181882309F064
:100FE00074CF40E066E5912F802F50DA882309F016
:100FF0006DCFFD2FEC2FE35BFF4F80818C3009F02C
:1010000085CFC05BDF4F8881C055D0408D3409F05B
:101010007DCF10825BCFC05BDF4F8881C055D04051
:10102000843409F04BCF1082C0CF0C2F1D2F0C5BE6
:101030001F4F40E060E1912F802F28DA882309F0CC
:1010400021CFFD2FEC2FE35BFF4F80818C3009F027
:1010500025CFC05BDF4F8881C055D040893409F06F
:101060001DCF10820FCF40E062E1912F802F0EDA6A
:10107000882309F053CFFD2FEC2FE35BFF4F8081D6
:101080008C3019F080E090E009C0C05BDF4F8881B0
:10109000C055D0408234B1F7108240CFDF91CF915C
:1010A0001F910F910895CF93DF93D92FC82F7727E2
:1010B000B72FA62FAA0FBB1FA60FB71F1296FD2F83
:1010C000EC2FEA0FFB1F129780818F5F8083808156
:1010D0008A3004F11082FB2FEA2F3196EC0FFD1FAE
:1010E00080818F5F80838081992787FD9095242F51
:1010F000332727FD30952817390764F41082FB2F1A
:10110000EA2FEC0FFD1F80818F5F808380818A3002
:101110000CF0108281E08A8BDF91CF9108950F93BC
:101120001F93CF93DF93D92FC82F062F172F8881B6
:101130008130C9F0813030F08230D1F0833079F0E5
:10114000188279C083B39927887F907084FD38C056
:1011500080E1898383E08A8381E088836CC08A810F
:10116000882371F368C08A81882301F582E088832F
:1011700083B34981887F9927242F332782239323A0
:10118000892B09F458C0932F822F24FD33C086FD8C
:101190002AC047FD3DC0842F992785FD1CC083FDD3
:1011A00014C086E98A8383E0888345C083B3887F3F
:1011B00099272981332782239323892B09F63BC062
:1011C00086FD21C080E48983C5CF49E064E0912F8A
:1011D000802FC5DAE6CF49E063E0912F802FBFDA98
:1011E00089819927DCCF49E061E0912F802FB7DA20
:1011F0004981CFCF49E060E0912F802FB0DA49815B
:10120000842F9927C4CF87FD0AC080E88983A2CFA5
:1012100049E062E0912F802FA2DA4981BCCF85FDA1
:1012200003C080E2898396CF83FF02C0198203C086
:1012300088E089838FCFDF91CF911F910F9108951F
:101240000F931F93CF93DF93D92FC82F062F172FFC
:1012500088818130C1F0813030F08230C9F0833034
:1012600071F0188278C089B38F71992783FD33C0DC
:1012700088E0898383E08A8381E088836CC08A81E7
:10128000882379F368C08A818823D9F482E088832F
:1012900089B329818F719927332782239323892B3F
:1012A00009F459C023FD3DC021FD32C020FD27C0F7
:1012B00022FD1CC024FD14C086E98A8383E0888354
:1012C0004AC089B38F7199272981332782239323B9
:1012D000892B39F640C081FD2DC082E08983CACFB9
:1012E00049E064E0912F802FDEDEE6CF49E063E045
:1012F000912F802FD8DE8981282F3327DBCF49E03B
:1013000062E0912F802FCFDE8981282F3327D0CF25
:1013100049E061E0912F802FC6DE8981282F332795
:10132000C5CF49E060E0912F802FBDDE8981282F55
:101330003327BACF80FF05C082FD06C084E08983D1
:1013400099CF81E0898396CF84FF02C0198203C0C0
:1013500080E189838FCFDF91CF911F910F91089505
:10136000019709F008956F5F7F4FE1F781E0809367
:101370009F001092A0001092A100BC9AC498BB9A42
:10138000C3988093B8001092B9001092BA00BA9A2C
:10139000C298BB9AC3981092BF0084B3877084BB75
:1013A00085B3886F85BB1092C2008AB3807E8ABBEA
:1013B0008BB38F618BBB1092C500B898C09A109206
:1013C000C8008C98949A1092CB008D98959A1092A0
:1013D000CE008E98969A1092D7001092D700109255
:1013E000D9001092D5001092D60080EC8BBF8EE011
:1013F00085BF1092DA0010920B018CE089B998E158
:101400009AB910920C0110920D01BF9ABE98BD9A24
:1014100082ED8DB91092880095BD8F9A08956FEF77
:101420007FEF81E090E09CDF08951F920F920FB64E
:101430000F9211242F933F934F935F936F937F935A
:101440008F939F93AF93BF93EF93FF938CB59DB50D
:1014500020918B0030918C002817390778F4682F81
:10146000792F621B730B90938C0080938B006F3FDE
:10147000710569F060F06FEF70E009C08B5C934F0D
:10148000682F792F621B730B85539C40ECCF81ED45
:1014900090E088D7FF91EF91BF91AF919F918F918D
:1014A0007F916F915F914F913F912F910F900FBE60
:1014B0000F901F9018951F920F920FB60F92112444
:1014C0002F933F934F935F936F937F938F939F934C
:1014D000AF93BF93EF93FF938CB59DB520918B0095
:1014E00030918C002817390778F4682F792F621B08
:1014F000730B90938C0080938B006F3F710569F0A4
:1015000060F06FEF70E009C08B5C934F682F792F0C
:10151000621B730B85539C40ECCF81ED90E042D76A
:10152000FF91EF91BF91AF919F918F917F916F91BB
:101530005F914F913F912F910F900FBE0F901F9091
:101540001895DF92EF92FF920F931F93CF93DF9343
:10155000D92FC82F9FE7E92EF12CEC0EFD1EFF2D91
:10156000EE2DD080FD2FEC2FFB968181882309F48E
:10157000E3C01182FF2DEE2D10821092880088E1C9
:1015800085BD8F9AAC2FBD2F5996198E81E090E0C2
:10159000FB2FEA2FE80FF91F108201968231910587
:1015A000B9F7FB2FEA2F138A81E0828B148A6E9899
:1015B000188281E090E0FD2FEC2FE80FF91F1082D8
:1015C000019682319105B9F71B8A81E08A8B1C8ACA
:1015D0006E98E8961982E89718AEFD2FEC2FFE96CC
:1015E00011821082FD2FEC2FEF5BFF4F11821082D2
:1015F000CF57DF4F198218822296899388E4888317
:10160000C458D040FF2DEE2D8081823009F4C2C035
:10161000833008F1833091F1843009F45FC0FF2DED
:10162000EE2D1082FF2DEE2D80812D2D3327992751
:101630002817390709F400C1FD2FEC2FED57FF4F94
:101640008081882309F0F8C081E08083CC57DF4F88
:1016500085E48883F1C0882309F48AC08130F9F6D3
:10166000CF57DF4F88819981C158D040892B09F02D
:1016700099C083E0FF2DEE2D8083D4CF8C2F9D2F3A
:10168000D9D9482F592F65E08C2F9D2FCAD70C2F01
:101690001D2F075E1F4F912F802F5ADA482F592F89
:1016A00065E0912F802F0CD8CD57DF4F91E09993B3
:1016B00082E58883C458D0408AE080938800809176
:1016C00088008093890090938A0085B5836085BDEA
:1016D0008DE783BD84E0FF2DEE2D80838C2F9D2F21
:1016E0002BD5882309F49ECF188281E090E0FD2F4E
:1016F000EC2FE80FF91F1082019682319105B9F79E
:101700001B8A81E08A8B1C8A6E98AC2FBD2F59965C
:10171000198E81E090E0FB2FEA2FE80FF91F10826D
:10172000019682319105B9F7FB2FEA2F138A81E0E8
:10173000828B148A6E9873CF40E06CE48C2F9D2FBF
:101740008C5B9F4FA3D6882309F014CFFD2FEC2F7D
:10175000E35BFF4F80818C3009F054CFC05BDF4FDB
:101760008881C055D040883409F04CCF108202CF18
:101770008C2F9D2F74DB882309F454CF81E0FF2D3B
:10178000EE2D8083CD57DF4F899382E48883C45840
:10179000D04048CFFD2FEC2FF89681818823B1F0FF
:1017A0001182ECCFFD2FEC2FF8968181882349F12F
:1017B000118282E0FF2DEE2D8083CD57DF4F81E037
:1017C000899380E58883C458D0402CCF40E062E103
:1017D0008C2F9D2F8C5B9F4F59D6882379F6FD2F38
:1017E000EC2FE35BFF4F80818C3009F01BCFC05B97
:1017F000DF4F8881C055D040823409F013CF10826A
:10180000BDCF40E062E18C2F9D2F8C5B9F4F3ED679
:10181000882379F6FD2FEC2FE35BFF4F80818C301E
:1018200009F000CFC05BDF4F8881C055D0408234C3
:1018300009F0F8CE1082BDCFDF91CF911F910F91AB
:10184000FF90EF90DF900895CFE5D2E0DEBFCDBFEF
:1018500089B7816189BF1FBC8CE08EBD82E083BFE8
:1018600085E39CE09BBD8ABD789406EA10E0ECE13C
:101870004E2E512C400E511E72E3272E312C8DE836
:1018800090E0280E391E68E3E62EF12CE80EF91ED2
:101890005BE3C52ED12CC80ED91E4EE3A42EB12C6D
:1018A000A80EB91E3EEC832E30E0932E21ED622E61
:1018B00020E0722E80910C01813009F4D8C0109282
:1018C000C2001092C3001092C4001092BF00109288
:1018D000C0001092C1009F2D8E2DFBD59D2D8C2D0B
:1018E00022D69B2D8A2D49D6992D882D70D6809190
:1018F0001001882309F48EC04091110120910E013E
:1019000030910F0190910D0180910B01813009F40C
:10191000BAC182E38093E10083E38093E2008CE22A
:101920008093E300ABE9B0E0E4EEF0E00FC08EE2BC
:101930008083DB2FCA2F898D8A3090F08EE28787D3
:101940001197319680E0E33FF80791F08C918A304F
:1019500070F7805D8083DB2FCA2F898D8A3070F706
:10196000805D87871197319680E0E33FF80771F734
:101970009A3108F4C3C08EE280930201932F822F24
:101980006AE070E0FFD1805D80930501932F822F84
:101990006AE070E0F7D1262F372F862F6AE0E6D174
:1019A000905D90930401822FE1D1E0D1905D9093FE
:1019B0000301842F81548A3108F49EC08EE2809303
:1019C0000601E1EEF0E090E08191980F81E0E730D0
:1019D000F807D1F78CE280930701892F82958F70E9
:1019E0008A3008F491C0895C282F3327209308019E
:1019F000892F8F708A3008F484C0895C992780937E
:101A0000090181E080930B0110920A018AE38CB9ED
:101A10001092100180910B01813009F45CC05F9B32
:101A200007C02CB1222309F04DC080E08093DA007A
:101A300041E06DE4972D862D29D5882349F58091C5
:101A4000DA008C30F9F08DE890E07BDD8091A10028
:101A50008823A1F18091BA00882309F02BCF8DE86B
:101A600090E09BD980910C01813009F028CF712F33
:101A7000602F952D842DE4DB6DE870E0932D822D91
:101A80004EDB29CF8091DD008335E9F61092DA0034
:101A900082E080938800809188008093890081E0B3
:101AA00080938A0085B5836085BD8DE783BD8DE811
:101AB00090E047DD8091A100882361F6912F802F6F
:101AC000EED8C8CF3091DA00E32FFF27EE30F105D2
:101AD000F8F08DE0ABCF5D9BA2CF90910A019932D7
:101AE00008F0D4C0E92FFF27EF51FF4F80819F5F9F
:101AF00090930A018CB993CF842F61CF892F8F5B8C
:101B00003BCF805D99277BCF805D282F33276ECF19
:101B1000E25EFF4F099430E01092DA002A3339F088
:101B20009DE0393008F445C0892F99277FCF109266
:101B3000E0001092DF001092DB0091E0F2CF213440
:101B400008F4AEC0273408F0ABC04091DC00275346
:101B5000822F9927295C942F982B9093DC008091F9
:101B6000DB009817E9F68CE061CF213408F4CCC093
:101B7000273408F0C9C02753822F99278295807F88
:101B80008093DC008BE052CF2C3209F086C08AE0D3
:101B90004DCF213408F4ADC0273408F0AAC03091ED
:101BA000DF002753822F9927295C382B3093DF00E1
:101BB00099E08091DB00820F8093DB00B5CF213468
:101BC00008F469C02B3508F066C02093DD0095E06D
:101BD000F0CF2C3209F05FC094E0EBCF213408F451
:101BE0009CC0273408F099C04091DE002753822F13
:101BF0009927295C842B8093DE00853009F090CFF3
:101C000093E08FCF213408F462C0273408F05FC01E
:101C10002753822F9927295C8295807F8093DE004D
:101C200092E0C7CF213408F447C0273408F044C0FD
:101C30003091E0002753822F9927295C382B30936D
:101C4000E00097E0B6CF213408F44AC0273408F00A
:101C500047C02753822F9927295C8295807F8093E4
:101C6000DF0098E0A6CF213408F464C0273408F0E0
:101C700061C02753822F9927295C8295807F8093AA
:101C8000E00096E096CF5D9B44CEC4CE82E0809388
:101C90000B011CB8C4CE9DE08CCF8DE090E0C6CE89
:101CA000822F80538A3008F03BCF4091DC002A33EA
:101CB00008F04DCF99274FCF822F80538A3058F7A5
:101CC0003091E0002A3308F0B5CF9927B7CF822FA3
:101CD00080538A3000F72A3308F09ACF99279CCF97
:101CE000822F80538A30B8F62A3308F0B2CF992772
:101CF000B4CF822F80538A3070F63091DF002A33C0
:101D000008F04FCF992751CF822F80538A3028F681
:101D10002A3308F030CF992731CF922F90539A3041
:101D200008F0FECE4091DE002A3308F05FCF892F05
:101D3000992760CF822F80538A3008F0ACCF2A33A6
:101D400008F097CF992799CF5527002480FF02C02C
:101D5000060E571F660F771F6115710521F09695C6
:101D60008795009799F7952F802D0895991B79E015
:101D700004C0991F961708F0961B881F7A95C9F71B
:101D800080950895AA1BBB1B51E107C0AA1FBB1F6A
:101D9000A617B70710F0A61BB70B881F991F5A95F7
:101DA000A9F780959095682F792F8A2F9B2F0895FA
:101DB00097FB092E07260AD077FD04D0E3DF06D073
:101DC00000201AF4709561957F4F0895F6F790956D
:101DD00081959F4F0895EE0FFF1FC89531960F9282
:081DE000C8950F920895FFCF92
:101DE8000F5F4237766A7C7D467F7E6F791D733D33
:101DF8002D0020015F4237766A7C7D467F7E6F79B1
:081E08001D733D2D00200100B7
:00000001FF
