:100000001EC0F8C21CC342C041C040C035C53EC07E
:100010003DC088C18ECC3AC07BC138C037C036C025
:1000200035C00BC2D3C1D5C1E0C1E9C1F2C1FBC12A
:100030000EC217C220C229C232C23BC2140D112403
:100040001FBECFE5D2E0DEBFCDBF10E0A0E6B0E03E
:10005000E0EFFAE103C0C89531960D92A638B107DA
:10006000D1F710E0A6E8B0E001C01D92A33EB107B1
:10007000E1F710E0CEE3D0E004C02297FD2FEC2F93
:1000800030DDCC33D107C9F7D5DC31CDB9CF809184
:1000900086008823D9F480918800882399F0809184
:1000A00088008150809388008091880080FF0AC07A
:1000B000809187008093860085B5836085BD8DE73C
:1000C00083BD089585B5887F85BD0895809186009C
:1000D00081508093860008958093860080918600E9
:1000E000809387006093880085B5836085BD8DE728
:1000F00083BD0895F92FE82F168216821086148288
:10010000158280EC8BBF8EE085BF0895F92FE82F14
:100110008681853019F080E090E00895662319F417
:1001200081E090E008951682108681E090E00895C5
:100130000F931F93CF93DF93D92FC82F162F042F20
:1001400060E0E4DF882389F08A819927212F332713
:100150008217930751F4002359F49C818A819817E0
:1001600039F49D818B81981719F480E090E008C0E4
:100170008A818C838B818D831E82188681E090E03A
:10018000DF91CF911F910F91089540E062E1D0DFA0
:100190009927089540E06CE4CBDF9927089540E06B
:1001A00060E1C6DF9927089540E061E1C1DF99274A
:1001B000089541E06DE4BCDF9927089540E066E5CD
:1001C000B7DF99270895B92FA82FF92FE82F84A911
:1001D000882311F0815084ABFB2FEA2F87A9882355
:1001E00011F0815087ABFB2FEA2FF896828188238C
:1001F00019F0828181508283FB2FEA2FFB96828146
:10020000882319F0828181508283FB2FEA2FFE968A
:100210008281882319F0828181508283FB2FEA2F0B
:10022000EF5BFF4F8281882319F0828181508283A6
:10023000FB2FEA2FEC5BFF4F87818F3F19F08781FF
:100240008F5F8783089523DF0895282F392FF92F93
:10025000E82FF8968181882321F0118281E090E0D7
:100260000895932F822F8C5B9F4F8FDF8823B1F7E8
:1002700080E090E00895282F392FF92FE82FFB9682
:100280008181882321F0118281E090E00895932FED
:10029000822F8C5B9F4F7EDF8823B1F780E090E058
:1002A0000895282F392FF92FE82FEF5BFF4F818119
:1002B000882321F0118281E090E00895932F822F0E
:1002C0008C5B9F4F6CDF8823B1F780E090E008954E
:1002D0008C5B9F4F69DF992708958C5B9F4F69DF87
:1002E00099270895282F392FF92FE82FFE9681811D
:1002F000882321F0118281E090E00895932F822FCE
:100300008C5B9F4F5BDF8823B1F780E090E008951E
:100310001F920F920FB60F9211240F900FBE0F90E5
:100320001F9018951F920F920FB60F9211242F93C2
:100330003F934F935F936F937F938F939F93AF936D
:10034000BF93EF93FF938DE890E03DDFFF91EF9136
:10035000BF91AF919F918F917F916F915F914F91DD
:100360003F912F910F900FBE0F901F901895F92F6E
:10037000E82FFE968181FE97882319F081E090E0B6
:100380000895EF5BFF4F8181E154F0408823B1F77E
:10039000F8968181F897882389F760E08E2F9F2F48
:1003A0008C5B9F4FB3DE882349F780E090E008958F
:1003B000F92FE82F808599278D30910528F48F5EDD
:1003C0009F4F8F939F93089580E07FC0638382E067
:1003D00009C0662319F08181806102C081818F7E0E
:1003E000818383E0808780E071C0662319F081817A
:1003F000886002C08181877F818384E0F3CF662398
:1004000019F08181846002C081818B7F818385E0C6
:10041000E9CF662319F08181826002C081818D7FDE
:10042000818386E0DFCF662319F08181816002C07D
:1004300081818E7F818387E0D5CF662319F0828109
:10044000806402C082818F7B828381E0CBCF662370
:1004500019F08281806202C082818F7D828388E070
:10046000C1CF662319F08281806102C082818F7EB4
:10047000828389E0B7CF662319F08281886002C049
:100480008281877F82838AE0ADCF662319F08281E3
:10049000846002C082818B7F82838BE0A3CF66233E
:1004A00019F08281826002C082818D7F82838CE01C
:1004B00099CF662319F08281816002C082818E7F8C
:1004C000828380818F5F808381E0108699270895E1
:1004D000F92FE82F623029F41682108681E090E02F
:1004E00008956330D1F18681882319F480E090E08B
:1004F000089586818530A1F18681863071F18681EB
:10050000813049F4613011F460E021C0662329F59F
:1005100082E090E008958681823021F46623E9F438
:1005200061E005C08681833069F4613031F48E2F3B
:100530009F2F3EDF8823A1F419C0662371F484E065
:1005400090E008958681843041F4662331F48E2F43
:100550009F2F2EDF882321F406C086E090E00895C7
:1005600085E090E0089583E090E0089581E090E0D8
:100570000895CF93DF93D92FC82F8F81883048F407
:100580006F3648F006C06E3010F060E007C063E0E0
:1005900005C062E003C06F32B0F361E08C2F9D2F85
:1005A00097DF8E831F82DF91CF9108952CB53DB5E3
:1005B00040918B0050918C004217530728F4732F01
:1005C000622F641B750B08C02B5C334F732F622F97
:1005D000641B750B25533C4030938C0020938B009B
:1005E0006F3F710519F010F06FEF70E08C5B9F4F5B
:1005F000C0DF08951F920F920FB60F9211242F9310
:100600003F934F935F936F937F938F939F93AF939A
:10061000BF93EF93FF938DE890E0C8DFFF91EF91D8
:10062000BF91AF919F918F917F916F915F914F910A
:100630003F912F910F900FBE0F901F9018951F9212
:100640000F920FB60F9211242F933F934F935F9306
:100650006F937F938F939F93AF93BF93EF93FF938A
:100660008DE890E0A3DFFF91EF91BF91AF919F9153
:100670008F917F916F915F914F913F912F910F904B
:100680000FBE0F901F90189589B988E28AB9089516
:100690006E980895FDDF0895F92FE82F908191302D
:1006A00069F0913028F0923099F09330D9F417C066
:1006B000B09919C08EE1828381E00FC082818823C6
:1006C00021F0B09B10C01082089582E08083918356
:1006D000B09B09C08EE1828383E08083089582818C
:1006E000882309F410820895F92FE82F9081913022
:1006F00069F0913028F0923099F09330D9F417C016
:10070000849919C08EE1828381E00FC082818823A1
:1007100021F0849B10C01082089582E08083918331
:10072000849B09C08EE1828383E080830895828167
:10073000882309F410820895F92FE82F90819130D1
:1007400069F0913028F0923099F09330D9F417C0C5
:10075000859919C08EE1828381E00FC08281882350
:1007600021F0859B10C01082089582E080839183E0
:10077000859B09C08EE1828383E080830895828116
:10078000882309F410820895F92FE82F9081913081
:1007900069F0913028F0923099F09330D9F417C075
:1007A000869919C08EE1828381E00FC082818823FF
:1007B00021F0869B10C01082089582E0808391838F
:1007C000869B09C08EE1828383E0808308958281C5
:1007D000882309F410820895EF92FF920F931F93DC
:1007E000CF93DF93D92FC82FE62FE42EF52E952F28
:1007F000842F6AE070E060D9282F392F8E2F992737
:1008000063E070E031D9082F192FF92FE82F3296C5
:10081000EC0FFD1F20839F2D8E2D6AE070E04CD9D8
:10082000262F372F972F862F6AE070E045D9F12FBA
:10083000E02F3196EC0FFD1F8083932F822F6AE00B
:1008400070E03AD9262F372F972F862F6AE070E075
:1008500033D9FD2FEC2FE00FF11F8083882321F483
:1008600037FF02C081E1808381E08A8BDF91CF91E5
:100870001F910F91FF90EF900895EF92FF920F93C9
:100880001F93CF93DF93D92FC82FE62FE42EF52E99
:10089000952F842F6AE070E00FD9282F392F8E2FE3
:1008A000992763E070E0E0D8082F192FF92FE82F7F
:1008B0003296EC0FFD1F20839F2D8E2D6AE070E095
:1008C000FBD8262F372F972F862F6AE070E0F4D8B9
:1008D000F12FE02F3196EC0FFD1F8083932F822F95
:1008E0006AE070E0E9D8262F372F972F862F6AE02D
:1008F00070E0E2D8FD2FEC2FE00FF11F80838823FA
:1009000021F437FF02C081E1808381E08A8BDF918F
:10091000CF911F910F91FF90EF900895B92FA82FBD
:10092000862F992763E070E09FD8682F792F6E5F3C
:100930007F4FFB2FEA2FE60FF71F62507040808138
:100940008F5F808380818A3004F11082F72FE62F39
:100950003196EA0FFB1F80818F5F8083808199270A
:1009600087FD9095242F332727FD309528173907C9
:1009700064F41082F72FE62FEA0FFB1F80818F5F50
:10098000808380818A300CF0108281E0FB2FEA2F77
:10099000828B0895B92FA82F862F992763E070E0E6
:1009A00063D8282F392F2E5F3F4FFB2FEA2FE20FFE
:1009B000F31F22503040808181508083808187FFE7
:1009C0001DC099E09083F32FE22F3196EA0FFB1FB1
:1009D000808181508083808187FF10C04083F32F06
:1009E000E22FEA0FFB1F808181508083808187FF87
:1009F00005C0908381E0FB2FEA2F838B81E0FB2FE2
:100A0000EA2F828B08950F931F93CF93DF93D92FF3
:100A1000C82FC35BDF4F8881CD54D040813039F57A
:100A20000C2F1D2F015B1F4FF12FE02F8081918133
:100A300001979183808345E065E08C2F9D2F6EDFC9
:100A400045E065E08C2F9D2F4996A4DFC25BDF4F08
:100A50008881813061F4F12FE02F808191816EE1F6
:100A600070E014D8892B19F463E083E035DBDF9163
:100A7000CF911F910F9108951F920F920FB60F9271
:100A800011241F932F933F934F935F936F937F9303
:100A90008F939F93AF93BF93EF93FF931091E200D7
:100AA000112319F48DE890E0AEDF8DE890E0CBDB08
:100AB000193010F080E002C0812F8F5F8093E20038
:100AC000FF91EF91BF91AF919F918F917F916F9126
:100AD0005F914F913F912F911F910F900FBE0F90FB
:100AE0001F901895B92FA82F80E090E0FB2FEA2FD8
:100AF000E80FF91F1082019682319105B9F7FB2F9B
:100B0000EA2F138A81E0828B148AC4DD0895B92FFD
:100B1000A82F80E090E0FB2FEA2FE80FF91F10824A
:100B2000019682319105B9F7FB2FEA2F138A81E0F4
:100B3000828B148AAFDD0895EF92FF920F931F937B
:100B4000082F192FE4DF89E1E82EF12CE00EF11EC9
:100B50009F2D8E2DC7DF0F5A1F4FF12FE02F4081A1
:100B6000518165E09F2D8E2D88DE1F910F91FF90A2
:100B7000EF9008950F931F93082F192F035B1F4FBA
:100B8000F12FE02F10820D5410401092860088E162
:100B900085BD8F9A912F802F4996A4DF912F802FAA
:100BA000B6DF085C1F4FF12FE02F11820853104071
:100BB000F12FE02F10AEFE9611821082F12FE02F60
:100BC000EF5BFF4F11821082015B1F4FF12FE02F6F
:100BD000118210821F910F910895B92FA82F862F8F
:100BE000992763E070E040D7FB2FEA2FE80FF91F49
:100BF00080818F5F808380818A300CF0108281E059
:100C0000FB2FEA2F828B0895B92FA82F862F9927C3
:100C100063E070E029D7FB2FEA2FE80FF91F8081EE
:100C200081508083808187FF02C089E0808381E0DA
:100C3000FB2FEA2F828B0895282F392F972F862F8D
:100C400064E670E011D76CE370E036D7462F572F7B
:100C500065E0932F822FC0DD08950F931F93B92F66
:100C6000A82F862F042F992763E070E0FDD6FB2F75
:100C7000EA2FE80FF91F40810196FB2FEA2FE80FBA
:100C8000F91FE0810196A80FB91F2C91332727FD8A
:100C900030951127842F992787FD9095712F602F0C
:100CA000E3D6280F391F8E2F992787FD90956AE08C
:100CB00070E0DAD6820F931F1F910F9108954CE3D5
:100CC00065E0CBDF08958F929F92AF92BF92CF9253
:100CD000DF92EF92FF920F931F93E82EF92E44E6D6
:100CE00060E0BBDF882E992E44E661E09F2D8E2DBB
:100CF000B4DF082F192F44E662E09F2D8E2DADDF63
:100D0000A82EB92E44E663E09F2D8E2DA6DFC82EB7
:100D1000D92E44E664E09F2D8E2D9FDF080D191D0E
:100D20000A0D1B1D0C0D1D1D800F911F1F910F9192
:100D3000FF90EF90DF90CF90BF90AF909F908F90FB
:100D40000895282F392F862F992763E070E08CD6DD
:100D5000F92FE82FB32FA22FA80FB91F1C9231969D
:100D6000B32FA22FAE0FBF1F1C923196E20FF31FBD
:100D7000108281E0F32FE22F828B0895882311F0F7
:100D8000BF9A0895BF980895882311F080E001C0AC
:100D900081E0F4DF0895882311F0BE9A0895BE988B
:100DA0000895811181E0F7DF0895882311F0BD9A3D
:100DB0000895BD980895882311F080E001C081E076
:100DC000F4DF0895CF92DF92EF92FF920F931F937B
:100DD000182FC62ED42EF22E813031F480E0D4DFCD
:100DE00080E0DFDF80E005C081E0CEDF81E0D9DF99
:100DF00081E0E1DF1295107F8C2D8170182B10643B
:100E0000D794DD24D794D12AFF0CFF0CFF0CFD28CA
:100E1000C6948C2D992781709070880F991FF82A9D
:100E2000000F000F0F29EE0CEE0CEE0CEE0CEE0C8A
:100E3000E02AEDB81F910F91FF90EF90DF90CF90D7
:100E40000895EF920F93EE2400E020E041E062E08D
:100E500081E0B8DF0F91EF9008956C980895882392
:100E600011F06C9A0895F9DF08956E9A90E081115F
:100E700091E0892FF4DF089589B38F71992783FD5D
:100E800003C088E090E0089581FD03C082E090E017
:100E9000089580FD03C081E090E0089582FD03C0C5
:100EA00084E090E0089584FD03C080E190E008951F
:100EB00080E090E0089583B39927887F907084FD47
:100EC00003C080E190E0089586FD03C080E490E0D7
:100ED000089587FD03C080E890E0089585FD03C074
:100EE00080E290E0089583FD03C088E090E00895DB
:100EF00080E090E0089549E011DD08950F931F937D
:100F0000CF93DF93D92FC82F062F172F88818130D9
:100F100099F0813030F08230F1F0833009F04EC02A
:100F20004AC08C2F9D2FC7DF8983882309F447C0CF
:100F300083E08A8381E03DC08A81882351F083B3B6
:100F4000887F99272981332782239323892BB9F11D
:100F500035C082E0888383B32981887F992733272E
:100F600082239323892B59F124FF04C060E0912F41
:100F7000802FC1DF898186FF04C061E0912F802F1F
:100F8000BADF898187FF04C062E0912F802FB3DF31
:100F9000898185FF04C063E0912F802FACDF8981B8
:100FA00083FF04C064E0912F802FA5DF86E98A8348
:100FB00083E0888304C08A81882309F41882DF9142
:100FC000CF911F910F9108950F931F93B92FA82FC1
:100FD000862F042F992763E070E046D5FB2FEA2F78
:100FE000E80FF91F40810196FB2FEA2FE80FF91F48
:100FF000E0810196A80FB91F2C91332727FD30956A
:101000001127842F992787FD9095712F602F2CD55C
:10101000280F391F8E2F992787FD90956AE070E081
:1010200023D5820F931F1F910F9108958F929F9246
:10103000AF92BF92CF92DF92EF92FF920F931F93E6
:10104000E82EF92E44E660E0BFDF882E992E44E6B4
:1010500061E09F2D8E2DB8DF082F192F44E662E046
:101060009F2D8E2DB1DFA82EB92E44E663E09F2D73
:101070008E2DAADFC82ED92E44E664E09F2D8E2D3A
:10108000A3DF080D191D0A0D1B1D0C0D1D1D800F62
:10109000911F1F910F91FF90EF90DF90CF90BF9025
:1010A000AF909F908F9008958F929F92AF92BF9232
:1010B000CF92DF92EF92FF920F931F93CF93DF9324
:1010C000D92FC82F00DEE82EF92E59E1C52ED12CDC
:1010D000CC0EDD1E9D2D8C2DA9DF082F192F41E58B
:1010E000A42EB12CAC0EBD1E33E5832E912C8C0E9C
:1010F0009D1EE816F906BCF05F2D4E2D65E08C2F85
:101100009D2F6ADB5F2D4E2D401B510B65E09D2D01
:101110008C2DB3DBFB2DEA2DF182E082F92DE82D39
:101120001183008316C0482F592F4E195F0965E0BF
:101130008C2F9D2F51DB512F402F65E09D2D8C2D45
:101140009CDBFB2DEA2D11830083F92DE82DF18224
:10115000E082DF91CF911F910F91FF90EF90DF9090
:10116000CF90BF90AF909F908F900895282F392FE8
:10117000862F992763E070E077D4F92FE82FB32FFB
:10118000A22FA80FB91F81E18C933196B32FA22F04
:10119000AE0FBF1F4C933196E20FF31F808381E0A7
:1011A000F32FE22F828B0895462F465F65E0DEDF46
:1011B0000895CF93DF93D92FC82F73D8882321F0B8
:1011C00065E08C2F9D2F09DD8C2F9D2F81D88823E2
:1011D00029F045E065E08C2F9D2F16DD8C2F9D2F8B
:1011E00081D88823A9F0FD2FEC2FE25BFF4F80818F
:1011F000882311F080E002C080818F5FFD2FEC2FEB
:10120000E25BFF4F808360818C2F9D2F4996CCDF5E
:101210008C2F9D2F1AD8882319F480E090E028C0E5
:101220008C2F9D2F4CDDFD2FEC2FE15BFF4F918329
:10123000808380819181892B21F484EB90E09183DC
:101240008083608171818C2F9D2FF6DC44E665E000
:101250008C2F9D2F02DD482F592F65E08C2F9D2F5D
:1012600049960BDB65E08C2F9D2F6BDD81E090E0D4
:10127000DF91CF9108950F931F93CF93DF93D92FD1
:10128000C82FF9D7882319F08C2F9D2F73DC0C2FD2
:101290001D2F035B1F4FF12FE02F8081823031F132
:1012A000833028F4882341F08130C9F50BC08330A6
:1012B00021F18430A1F52BC08C2F9D2F7ADF88235C
:1012C00089F119C0C15BDF4F88819981CF54D0402B
:1012D000892B29F483E0F12FE02F808323C08C2F0A
:1012E0009D2FB3D78823F1F082E0F5CF8C2F9D2F6F
:1012F000ACD78823B9F081E0EECF8C2F9D2FD4DEC0
:1013000061E08AE0E9D684E0F12FE02F80838C2F22
:101310009D2F2DD8882331F08C2F9D2F0DDCC35BA2
:10132000DF4F1882DF91CF911F910F91089588238D
:1013300011F0BC9A0895BC980895882311F0BB9AC7
:101340000895BB980895882311F0BA9A0895BA9821
:101350000895882319F084B3886F02C084B387701E
:1013600084BB08951F93182F80E0F3DF112319F039
:1013700085B3886F02C085B3877085BB1F910895C0
:10138000F92FE82F108281E0EDDF0895882319F00E
:101390008AB38F6102C08AB3807E8ABB08951F938F
:1013A000182F80E0F3DF112319F08BB38F6102C097
:1013B0008BB3807E8BBB1F910895F92FE82F10828D
:1013C00081E0EDDF0895882311F0B89A0895B89868
:1013D0000895C09808951F93182F80E0F4DF11231B
:1013E00011F0C09A01C0F5DF1F910895F92FE82F81
:1013F000862F1082F0DF0895882311F08C9A0895CB
:101400008C980895949808951F93182F80E0F4DF26
:10141000112311F0949A01C0F5DF1F910895F92F5F
:10142000E82F862F1082F0DF0895882311F08D9A1F
:1014300008958D980895959808951F93182F80E02A
:10144000F4DF112311F0959A01C0F5DF1F91089583
:10145000F92FE82F862F1082F0DF0895882311F0EE
:101460008E9A08958E980895969808951F93182F30
:1014700080E0F4DF112311F0969A01C0F5DF1F918F
:101480000895F92FE82F862F1082F0DF0895B92FE5
:10149000A82F862F992763E070E0E6D2682F792F76
:1014A0006E5F7F4FFB2FEA2FE60FF71F62507040F1
:1014B00080818F5F808380818A3004F11082F72FD2
:1014C000E62F3196EA0FFB1F80818F5F808380813A
:1014D000992787FD9095242F332727FD30952817CE
:1014E000390764F41082F72FE62FEA0FFB1F808183
:1014F0008F5F808380818A300CF0108281E0FB2F27
:10150000EA2F828B089549E0C2DF08950F931F935D
:10151000CF93DF93D92FC82F062F172F88818130C3
:1015200099F0813030F08230F1F0833009F04EC014
:101530004AC08C2F9D2FA0DC8983882309F447C0E3
:1015400083E08A8381E03DC08A81882351F089B39A
:101550008F7199272981332782239323892BB9F10E
:1015600035C082E0888389B329818F719927332719
:1015700082239323892B59F123FF04C060E0912F2C
:10158000802FC1DF898181FF04C061E0912F802F0E
:10159000BADF898180FF04C062E0912F802FB3DF22
:1015A000898182FF04C063E0912F802FACDF8981A5
:1015B00084FF04C064E0912F802FA5DF86E98A8331
:1015C00083E0888304C08A81882309F41882DF912C
:1015D000CF911F910F910895CF93DF93D92FC82FEB
:1015E000C35BDF4F8881CD54D040813079F46C2FBC
:1015F0007D2F675E7F4F8C2F9D2FC59687DF6C2FC9
:101600007D2F8C2F9D2FC29679DC06C01DAA1EAAA5
:101610001FAA1AAA1BAA1CAA8C2F9D2FC8963CD8B9
:101620008C2F9D2FCB9660D88C2F9D2FCE9684D853
:101630008C2F9D2F8F5B9F4FA7D8DF91CF9108955F
:10164000C3980895882311F0C39A0895F9DF089587
:101650001F93182F81E071DE812FF4DF1F91089511
:10166000C4980895882311F0C49A0895F9DF089565
:10167000CF93DF93D92FC82F8C89882361F01C8AE0
:1016800009D881E0EFDF1A8A81E08A8B1A8A80E02C
:10169000E9DF80E0D7DFDF91CF910895CF93DF932B
:1016A000B92FA82FD92FC82F8C89882309F44AC0B5
:1016B0008D89882321F08A2F9B2FDADF43C0FB2FEF
:1016C000EA2F2689E20FF11DE081809185008823B1
:1016D00049F0EE2339F4DB2FCA2F888D823010F4C5
:1016E000E0E102C010928500DB2FCA2F8F89853080
:1016F00061F4888D882349F4EA3038F4FF27ED58E7
:10170000FF4F8FE79081891B05C0FF27ED58FF4FE2
:10171000808180958FB9822F8F5FFB2FEA2F868B78
:10172000823110F081E0858BDB2FCA2F888D8F5F8F
:10173000888F833038F0188E81E0809385008F8900
:101740008F5F8F8BDF91CF910895CF93DF93D92F48
:10175000C82F8A89882381F08C89882369F481E0E5
:1017600084DB81E06FDF81E08C8B1D8A1E8A1F8AFB
:10177000188E8C2F9D2F92DFDF91CF9108951F93AC
:10178000182F81E0D4DD812F6DDF1F910895F92F8F
:10179000E82F81E0828B138A148A80E0F0DF80E0FA
:1017A00057DF0895C2980895882311F0C29A0895CA
:1017B000F9DF0895CF93DF93D92FC82F8C89882321
:1017C00061F01C8A67D781E0EFDF1A8A81E08A8B9B
:1017D0001A8A80E0E9DF80E035DFDF91CF9108955C
:1017E000CF93DF93B92FA82FD92FC82F8C898823A7
:1017F00009F44AC08D89882321F08A2F9B2FDADFD4
:1018000043C0FB2FEA2F2689E20FF11DE081809172
:101810007200882349F0EE2339F4DB2FCA2F888D1C
:10182000823010F4E0E102C010927200DB2FCA2F68
:101830008F89853061F4888D882349F4EA3038F443
:10184000FF27E05AFF4F8FE79081891B05C0FF27D4
:10185000E05AFF4F808180958FB9822F8F5FFB2FD9
:10186000EA2F868B823110F081E0858BDB2FCA2F27
:10187000888D8F5F888F833038F0188E81E0809359
:1018800072008F898F5F8F8BDF91CF910895CF93F7
:10189000DF93D92FC82F8A89882381F08C898823E8
:1018A00069F481E0E2DA81E0CDDE81E08C8B1D8A93
:1018B0001E8A1F8A188E8C2F9D2F92DFDF91CF9169
:1018C0000895CF93DF93D92FC82F8C89882321F4D3
:1018D0008C2F9D2F4996DBDF69968C896997882329
:1018E00019F48C2F9D2F31DFDF91CF910895CF9385
:1018F000DF93D92FC82F70DE8C2F9D2FEED4882335
:1019000019F061E082E0E8D38C2F9D2FB4DC8C2F9E
:101910009D2FD7DFDF91CF9108950F931F93082F4D
:10192000192F49965DDF912F802FB8DE1F910F91FF
:1019300008951F920F920FB60F9211242F933F9389
:101940004F935F936F937F938F939F93AF93BF93C7
:10195000EF93FF938DE890E0E0DFFF91EF91BF916F
:10196000AF919F918F917F916F915F914F913F9137
:101970002F910F900FBE0F901F9018951F93182F47
:1019800081E0E1DC812F10DF1F910895F92FE82F0E
:1019900081E0828B138A148A80E0F0DF80E058DED9
:1019A00008950F931F93082F192FF1DE912F802F89
:1019B0004996ECDF912F802FC296E2DC912F802F89
:1019C000C596FBDC61E0912F802FC8960FDD61E0AA
:1019D000912F802FCB9623DD61E0912F802FCE9623
:1019E00037DD61E0912F802F8F5B9F4F4ADD912F74
:1019F000802F8C5B9F4F7ED3035B1F4FF12FE02F17
:101A0000119210821EDA1092860088E185BD8F9AAD
:101A10001F910F910895019731F46F5F7F4F19F473
:101A20008DE890E0BEDF08956FEF7FEF81E090E0FA
:101A3000F2DF0895CFE5D2E0DEBFCDBF89B7816187
:101A400089BF1FBC2CE02EBD82E083BF85E39CE0F4
:101A50009BBD8ABD29B988E28AB97894CDE8D0E0E7
:101A60008C2F9D2F44DFFCCF5527002480FF02C020
:101A7000060E571F660F771F6115710521F09695A9
:101A80008795009799F7952F802D0895AA1BBB1B6A
:101A900051E107C0AA1FBB1FA617B70710F0A61B6E
:101AA000B70B881F991F5A95A9F780959095682FB5
:101AB000792F8A2F9B2F089597FB092E07260AD08E
:101AC00077FD04D0E3DF06D000201AF4709561950D
:101AD0007F4F0895F6F7909581959F4F0895EE0FEB
:101AE000FF1FC89531960F92C8950F920895FFCFAA
:101AF0005F4237766A7C7D467F7E6F791D733D2D10
:101B00000020015F4237766A7C7D467F7E6F791DBB
:061B1000733D2D002001D1
:00000001FF
