:100000002CC075CABACA50C04FC04EC048C44CC0FC
:100010004BC04BC02BC748C047C046C045C044C0BA
:1000200043C0C2C0D0C0D7C0E5C0F3C001C10FC13A
:100030001DC12BC139C147C154C161C1F2CDACCE84
:10004000C3CE76CE99CE80CE5DCE44CE2DCE27CEF9
:1000500012CEF4CDE6CDE2CD710A11241FBECFE55C
:10006000D2E0DEBFCDBF10E0A0E6B0E0ECECFFE1F7
:1000700003C0C89531960D92A838B107D1F711E0A9
:10008000A8E8B0E001C01D92AA31B107E1F710E085
:10009000CAE5D0E004C02297FD2FEC2F90DFC835D1
:1000A000D107C9F72CDF91CFABCF1F920F920FB6BC
:1000B0000F9211248F938091C300882319F08150EF
:1000C0008093C3008091C600882319F081508093EB
:1000D000C6008091C900882329F08091C900815011
:1000E0008093C9008091CC00882329F08091CC00B6
:1000F00081508093CC008091CF00882329F080919B
:10010000CF0081508093CF008091D200882329F0C6
:100110008091D20081508093D2008091DA008F3F8D
:1001200029F08091DA008F5F8093DA008F910F9031
:100130000FBE0F901F901895F92FE82FE05CFF4F2E
:100140008181E054F0408823B1F4ED5BFF4F818161
:10015000E354F040882379F4FA968181FA97882352
:1001600051F4EA5BFF4F868120E030E0853031F0CA
:10017000932F822F089581E090E0089521E030E0F0
:10018000F7CFB92FA82FF92FE82F8085E82FFF2769
:10019000ED30F10530F080E0FB2FEA2F1086992733
:1001A00002C1EF5EFF4F0994662309F0F6C0FB2FF2
:1001B000EA2F82818F7B828381E0FB2FEA2F808769
:1001C00080E090E0F0C0FB2FEA2F638382E080871D
:1001D00080E090E0E8C0662309F0D9C0FB2FEA2F49
:1001E00081818F7E818383E0FB2FEA2F808780E0EF
:1001F00090E0D9C0662309F0C4C0FB2FEA2F8181AB
:10020000877F818384E0FB2FEA2F808780E090E066
:10021000CAC0662309F0AFC0FB2FEA2F81818B7F14
:10022000818385E0FB2FEA2F808780E090E0BBC0D0
:10023000662309F09AC0FB2FEA2F81818D7F81838D
:1002400086E0FB2FEA2F808780E090E0ACC0662339
:1002500009F085C0FB2FEA2F81818E7F818387E0A3
:10026000FB2FEA2F808780E090E09DC0662309F095
:1002700070C0FB2FEA2F82818F7D828388E0FB2F65
:10028000EA2F808780E090E08EC0662309F05BC093
:10029000FB2FEA2F82818F7E828389E0FB2FEA2F5A
:1002A000808780E090E07FC0662309F046C0FB2F86
:1002B000EA2F8281877F82838AE0FB2FEA2F808763
:1002C00080E090E070C0662391F5FB2FEA2F8281D9
:1002D0008B7F82838BE0FB2FEA2F808780E090E08A
:1002E00062C06623F1F4FB2FEA2F82818D7F828327
:1002F0008CE0FB2FEA2F808780E090E054C06623DB
:1003000051F4FB2FEA2F82818E7F82838C918F5F45
:100310008C9381E041CFFB2FEA2F82818160828321
:10032000F5CFFB2FEA2F828182608283E1CFFB2F02
:10033000EA2F828184608283CDCFFB2FEA2F8281D6
:1003400088608283B9CFFB2FEA2F8281806182830C
:10035000A4CFFB2FEA2F8281806282838FCFFB2F75
:10036000EA2F8181816081837ACFFB2FEA2F8181FF
:100370008260818365CFFB2FEA2F81818460818336
:1003800050CFFB2FEA2F8181886081833BCFFB2FE9
:10039000EA2F81818061818326CFFB2FEA2F828122
:1003A0008064828309CF0895CF93DF93D92FC82F1C
:1003B0008F81883010F46F3620F01E82188681E01D
:1003C0003BC06F3290F46E30C0F090E08E8182308E
:1003D00051F1833060F4882391F0813071F49130D1
:1003E000D1F0992351F482E027C091E0EFCF84301F
:1003F00081F0843030F0853051F086E01DC080E01F
:100400001BC0913091F09923C1F784E015C085E0BD
:1004100013C0992391F760E08C2F9D2FB2DE8823C3
:10042000B1F783E009C0992341F761E08C2F9D2F3C
:10043000A8DE882361F781E08E831F82DF91CF9150
:1004400008952CB53DB540918B0050918C0042171A
:10045000530778F4732F622F641B750B30938C0055
:1004600020938B006F3F710569F060F06FEF70E0D3
:1004700009C02B5C334F732F622F641B750B255300
:100480003C40ECCF8A5B9F4F8FDF0895F92FE82F18
:100490008681853019F080E090E008958281992767
:1004A000262F332782179307B1F7442349F082811F
:1004B0008483838185831682108681E090E008958D
:1004C00094818281981799F795818381981779F79C
:1004D000E2CF8093880080918800809389006093A8
:1004E0008A0085B5836085BD8DE783BD0895F72FAC
:1004F000E62F242F352F952F842F6AE070E034DD0E
:10050000805D8283932F822F6AE070E02DDD262F9D
:10051000372F862F6AE01CDD905D9183822F18DDD6
:1005200017DD905D90830895F92FE82F9081913029
:10053000A1F0913030F09230B1F0933049F0108258
:100540000895B099FDCF8EE1828381E08083089584
:1005500082818823A9F71082F3CF8281882351F406
:1005600082E080839183B09BEBCF8EE1828383E036
:1005700080830895B09BE4CF10820895F92FE82F6F
:1005800090819130A1F0913030F09230B1F0933001
:1005900049F0108208958499FDCF8EE1828381E035
:1005A0008083089582818823A9F71082F3CF828106
:1005B000882351F482E080839183849BEBCF8EE18A
:1005C000828383E080830895849BE4CF1082089522
:1005D000F92FE82F90819130A1F0913030F09230D6
:1005E000B1F0933049F0108208958599FDCF8EE1E6
:1005F000828381E08083089582818823A9F7108215
:10060000F3CF8281882351F482E080839183859B9C
:10061000EBCF8EE1828383E080830895859BE4CFD6
:1006200010820895F92FE82F90819130A1F0913038
:1006300030F09230B1F0933049F0108208958699ED
:10064000FDCF8EE1828381E08083089582818823BB
:10065000A9F71082F3CF8281882351F482E080834E
:100660009183869BEBCF8EE1828383E08083089524
:10067000869BE4CF10820895EF92FF920F931F9311
:10068000CF93DF93D92FC82F262FE42EF52E952F49
:10069000842F6AE070E07EDC3327022F132F000FD7
:1006A000111F020F131FF12FE02F3296EC0FFD1FC9
:1006B00080839F2D8E2D6AE070E06CDC262F372F13
:1006C000972F862F6AE070E065DCF12FE02F3196DE
:1006D000EC0FFD1F8083932F822F6AE070E05ADCBD
:1006E000262F372F972F862F6AE070E053DCFD2FDF
:1006F000EC2FE00FF11F8083882321F437FF02C025
:1007000081E1808381E08A8BDF91CF911F910F91EE
:10071000FF90EF900895EF92FF920F931F93CF9366
:10072000DF93D92FC82F262FE42EF52E952F842F57
:100730006AE070E02FDC3327022F132F000F111F08
:10074000020F131FF12FE02F3296EC0FFD1F808355
:100750009F2D8E2D6AE070E01DDC262F372F972FFE
:10076000862F6AE070E016DCF12FE02F3196EC0F57
:10077000FD1F8083932F822F6AE070E00BDC262F11
:10078000372F972F862F6AE070E004DCFD2FEC2FC7
:10079000E00FF11F8083882321F437FF02C081E13D
:1007A000808381E08A8BDF91CF911F910F91FF9021
:1007B000EF900895CF93DF93D92FC82F7727B72FC6
:1007C000A62FAA0FBB1FA60FB71F1296F92FE82F4F
:1007D000EA0FFB1F129780818F5F808380818A30B0
:1007E00004F11082FB2FEA2F3196EC0FFD1F808160
:1007F0008F5F80838081992787FD9095242F3327F1
:1008000027FD30952817390764F41082FB2FEA2F53
:10081000EC0FFD1F80818F5F808380818A300CF018
:10082000108281E08A8BDF91CF910895B92FA82F94
:100830007727262F372F220F331F260F371F2E5FC4
:100840003F4FF92FE82FE20FF31F225030408081F5
:1008500081508083808187FF1DC099E09083F32FB2
:10086000E22F3196EA0FFB1F8081815080838081C7
:1008700087FF10C04083F32FE22FEA0FFB1F808118
:1008800081508083808187FF05C0908381E0FB2FAA
:10089000EA2F838B81E0FB2FEA2F828B08951F9232
:1008A0000F920FB60F9211241F932F933F934F93E4
:1008B0005F936F937F938F939F93AF93BF93EF93C8
:1008C000FF9310911901112321F49091110191309E
:1008D00061F180918800882359F480918A008823EF
:1008E00089F485B5887F85BD193048F080E04CC01B
:1008F000809188008150809388001930B8F7812F4B
:100900008F5F42C080918A00815080938A008091DD
:100910008A0080FFE6CF809189008093880085B5AA
:10092000836085BD8DE783BDE8CF80911701882363
:1009300029F49093170184E58093180180911301A5
:10094000909114010197909314018093130145E055
:1009500065E08DE890E02EDF45E065E087EA90E015
:1009600065DF80911201813009F0B3CF80911301CE
:10097000909114016EE170E0F7DA892B09F0A9CFAC
:1009800063E083E0A6DDA5CF80931901FF91EF918D
:10099000BF91AF919F918F917F916F915F914F9197
:1009A0003F912F911F910F900FBE0F901F901895A0
:1009B000B92FA82F1C9281E090E0FB2FEA2FE80FBF
:1009C000F91F1082019682319105B9F7FB2FEA2FAA
:1009D000138A81E0828B148A818F6E980895B92FD3
:1009E000A82F1C9281E090E0FB2FEA2FE80FF91F5F
:1009F0001082019682319105B9F7FB2FEA2F138AF5
:100A000081E0828B148A818F6E980895B92FA82F68
:100A10007727F72FE62FEE0FFF1FE60FF71FEA0FDE
:100A2000FB1F80818F5F808380818A300CF0108271
:100A300081E0FB2FEA2F828B0895B92FA82F77270B
:100A4000F72FE62FEE0FFF1FE60FF71FEA0FFB1F32
:100A5000808181508083808187FF02C089E080830C
:100A600081E0FB2FEA2F828B08957727F72FE62F5F
:100A7000EE0FFF1FE60FF71FB92FA82FAE0FBF1FF6
:100A80006C913196B92FA82FAE0FBF1FAC91319644
:100A9000E80FF91F2081332727FD30955527862F32
:100AA000992787FD9095752F642F40DA280F391FFD
:100AB000BB27A7FDB0958A2F9B2F880F991F880F02
:100AC000991F8A0F9B1F880F991F820F931F0895EC
:100AD0008F929F92AF92BF92CF92DF92EF92FF924E
:100AE0000F931F93E82EF92E44E660E0BEDF882EB8
:100AF000992E44E661E09F2D8E2DB7DF082F192F28
:100B000044E662E09F2D8E2DB0DFA82EB92E44E67C
:100B100063E09F2D8E2DA9DFC82ED92E44E664E018
:100B20009F2D8E2DA2DF080D191D0A0D1B1D0C0D0A
:100B30001D1D800F911F1F910F91FF90EF90DF906F
:100B4000CF90BF90AF909F908F900895282F392F0E
:100B50007727F72FE62FEE0FFF1FE60FF71FB92FAE
:100B6000A82FAE0FBF1F1C923196B92FA82FAE0F22
:100B7000BF1F1C923196E80FF91F108281E0F32FFE
:100B8000E22F828B08957727F72FE62FEE0FFF1FB6
:100B9000E60FF71FB92FA82FAE0FBF1F6C9131962C
:100BA000B92FA82FAE0FBF1FAC913196E80FF91FD8
:100BB0002081332727FD30955527862F992787FDDC
:100BC0009095752F642FB2D9280F391FBB27A7FD29
:100BD000B0958A2F9B2F880F991F880F991F8A0F16
:100BE0009B1F880F991F820F931F08958F929F92CA
:100BF000AF92BF92CF92DF92EF92FF920F931F932B
:100C0000E82EF92E44E660E0BEDF882E992E44E6F9
:100C100061E09F2D8E2DB7DF082F192F44E662E08B
:100C20009F2D8E2DB0DFA82EB92E44E663E09F2DB8
:100C30008E2DA9DFC82ED92E44E664E09F2D8E2D7F
:100C4000A2DF080D191D0A0D1B1D0C0D1D1D800FA7
:100C5000911F1F910F91FF90EF90DF90CF90BF9069
:100C6000AF909F908F900895F92FE82F8489882363
:100C700049F0148A6E98C29A128A81E0828B128A95
:100C8000C298C3980895CF93DF93B92FA82FD92F77
:100C9000C82F8C89882309F450C08D898823A9F531
:100CA000FB2FEA2F3689E30FF11DE081DB2FCA2FDE
:100CB000288D80917300882311F0EE2351F19E2F2F
:100CC00010927300FF27DB2FCA2F8F89853039F1EF
:100CD000EF59FF4F808180958FB9832F8F5FFB2F56
:100CE000EA2F868B823110F081E0858BDB2FCA2FB3
:100CF000888D8F5F888F833000F1188E81E080931C
:100D000073008F898F5F8F8B18C08A2F9B2FACDF6A
:100D100014C02230A0F690E1E0E1F0E0D4CF22232D
:100D2000B9F69A30A8F6898D882391F2EF59FF4FD2
:100D30008FE79081891B8FB9D0CFDF91CF91089534
:100D4000F92FE82F8289882311F084898111089571
:100D50006E9A6C9AC39A81E0848B158A168A178AD8
:100D6000108E8E2F9F2F8FDF0895F92FE82F848903
:100D7000882349F0148A6E98C49A128A81E0828B83
:100D8000128AC498C3980895CF93DF93B92FA82FE0
:100D9000D92FC82F8C89882309F450C08D898823C6
:100DA000A9F5FB2FEA2F3689E30FF11DE081DB2F38
:100DB000CA2F288D80918600882311F0EE2351F1EF
:100DC0009E2F10928600FF27DB2FCA2F8F89853038
:100DD00039F1EC58FF4F808180958FB9832F8F5F59
:100DE000FB2FEA2F868B823110F081E0858BDB2F81
:100DF000CA2F888D8F5F888F833000F1188E81E035
:100E0000809386008F898F5F8F8B18C08A2F9B2FCE
:100E1000ACDF14C02230A0F690E1E0E1F0E0D4CFE6
:100E20002223B9F69A30A8F6898D882391F2EC58DE
:100E3000FF4F8FE79081891B8FB9D0CFDF91CF9182
:100E40000895F92FE82F8289882311F08489811170
:100E500008956E9A6C9AC39A81E0848B158A168ADB
:100E6000178A108E8E2F9F2F8FDF08951F920F925B
:100E70000FB60F9211240F931F932F933F934F930D
:100E80005F936F937F938F939F93AF93BF93EF93F2
:100E9000FF9307EA10E0912F802FF5DE912F802F2E
:100EA0004A9772DFFF91EF91BF91AF919F918F9120
:100EB0007F916F915F914F913F912F911F910F9172
:100EC0000F900FBE0F901F901895282F392F77275E
:100ED000F72FE62FEE0FFF1FE60FF71FB92FA82FF2
:100EE000AE0FBF1F81E18C933196B32FA22FAE0FAF
:100EF000BF1F4C933196E20FF31F808381E0F32FE5
:100F0000E22F828B08950F931F93CF93DF93D92FF6
:100F1000C82FF92FE82FED5BFF4F8181882309F45B
:100F2000E2C011820C2F1D2F0A5B1F4F65E08C2F32
:100F30009D2F6CDDFD2FEC2FE657FF4F808188231E
:100F400009F480C040E061E1912F802F9FDA88236F
:100F500009F088C0FD2FEC2FE15BFF4F80818C30C2
:100F600009F4B7C0FD2FEC2FE05CFF4F818188238F
:100F700009F495C01182FD2FEC2FEB57FF4F8081B4
:100F8000882309F45CC080E080834081465F65E08F
:100F90008C2F9D2F4A9699DFFD2FEC2FE657FF4FA0
:100FA0008081882341F481E08083C557DF4F8DE441
:100FB0008883CB58D040FD2FEC2FFA96818188236F
:100FC00009F4AFC011824CE365E08C2F9D2F4DDDFD
:100FD000FD2FEC2FEA57FF4F918380838081918111
:100FE000892B21F484EB90E091838083808191812F
:100FF000C857DF4F99838883C858D040808191813A
:1010000064E670E093D76CE370E0C4D7462F572FA7
:1010100065E08C2F9D2F30DB44E665E08C2F9D2F03
:1010200024DD482F592F65E08C2F9D2F4A9673DBC6
:1010300065E08C2F9D2F8ADD81E090E08DC080815E
:101040008F5FA2CF81E08083C557DF4F89E488831B
:10105000CB58D04040E061E1912F802F17DA8823F0
:1010600009F478CF45E065E08C2F9D2FE6DCFD2F5D
:10107000EC2FE657FF4F8081882309F073CF81E082
:101080008083C557DF4F84E48883CB58D040FD2F41
:10109000EC2FE05CFF4F8181882309F06BCF40E0AB
:1010A00066E5912F802FF2D9882309F064CFFD2FB8
:1010B000EC2FE15BFF4F80818C3009F07CCFCE5A62
:1010C000DF4F8881C255D0408D3409F074CF108233
:1010D00052CFCE5ADF4F8881C255D040843409F0B8
:1010E00041CF1082BFCF0C2F1D2F0A5B1F4F40E056
:1010F00060E1912F802FCAD9882309F017CFFD2FE7
:10110000EC2FE15BFF4F80818C3009F01BCFCE5A72
:10111000DF4F8881C255D040893409F013CF108247
:1011200005CF40E062E1912F802FB0D9882309F0EC
:101130004ACFFD2FEC2FE15BFF4F80818C3019F0FF
:1011400080E090E009C0CE5ADF4F8881C255D04080
:101150008234B1F7108237CFDF91CF911F910F9179
:101160000895CF93DF93D92FC82F7727B72FA62FB6
:10117000AA0FBB1FA60FB71F1296FD2FEC2FEA0F69
:10118000FB1F129780818F5F808380818A3004F1FA
:101190001082FB2FEA2F3196EC0FFD1F80818F5FAD
:1011A00080838081992787FD9095242F332727FD01
:1011B00030952817390764F41082FB2FEA2FEC0FC3
:1011C000FD1F80818F5F808380818A300CF01082C8
:1011D00081E08A8BDF91CF9108950F931F93CF9376
:1011E000DF93D92FC82F062F172F88818130C1F0A8
:1011F000813030F08230C9F0833071F0188278C0CD
:1012000089B38F71992783FD33C088E0898383E098
:101210008A8381E088836CC08A81882379F368C0DF
:101220008A818823D9F482E0888389B329818F71E8
:101230009927332782239323892B09F459C023FD4F
:101240003DC021FD32C020FD27C022FD1CC024FD71
:1012500014C086E98A8383E088834AC089B38F718A
:1012600099272981332782239323892B39F640C07C
:1012700081FD2DC082E08983CACF49E064E0912FCF
:10128000802F6FDFE6CF49E063E0912F802F69DF89
:101290008981282F3327DBCF49E062E0912F802F0F
:1012A00060DF8981282F3327D0CF49E061E0912F7B
:1012B000802F57DF8981282F3327C5CF49E060E091
:1012C000912F802F4EDF8981282F3327BACF80FFBF
:1012D00005C082FD06C084E0898399CF81E08983BF
:1012E00096CF84FF02C0198203C080E189838FCF2B
:1012F000DF91CF911F910F9108950F931F93CF937B
:10130000DF93D92FC82F062F172F88818130C9F07E
:10131000813030F08230D1F0833079F0188279C09A
:1013200083B39927887F907084FD38C080E18983DA
:1013300083E08A8381E088836CC08A81882371F38B
:1013400068C08A81882301F582E0888383B349815C
:10135000887F9927242F332782239323892B09F40D
:1013600058C0932F822F24FD33C086FD2AC047FD2D
:101370003DC0842F992785FD1CC083FD14C086E9DC
:101380008A8383E0888345C083B3887F9927298136
:10139000332782239323892B09F63BC086FD21C086
:1013A00080E48983C5CF49E064E0912F802F02DA81
:1013B000E6CF49E063E0912F802FFCD989819927FE
:1013C000DCCF49E061E0912F802FF4D94981CFCF64
:1013D00049E060E0912F802FEDD94981842F992732
:1013E000C4CF87FD0AC080E88983A2CF49E062E0CC
:1013F000912F802FDFD94981BCCF85FD03C080E2CA
:10140000898396CF83FF02C0198203C088E0898355
:101410008FCFDF91CF911F910F910895019709F020
:1014200008956F5F7F4FE1F781E080939F001092F6
:10143000A0001092A1008093A600BC9AC498BB9A09
:10144000C3988093B9001092BA001092BB008093A9
:10145000C000BA9AC298BB9AC3981092C10084B3D4
:10146000877084BB85B3886F85BB1092C4008AB334
:10147000807E8ABB8BB38F618BBB1092C700B898FC
:10148000C09A1092CA008C98949A1092CD008D98B0
:10149000959A1092D0008E98969A1092D900109238
:1014A000D9001092DB001092D7001092D80080EC87
:1014B0008BBF8EE085BF1092DC00109210018CE093
:1014C00089B998E19AB91092110110921201BF9A4C
:1014D000BE98BD9A82ED8DB91092880095BD8F9A05
:1014E00008956FEF7FEF81E090E098DF08951F92FD
:1014F0000F920FB60F9211242F933F934F935F9348
:101500006F937F938F939F93AF93BF93EF93FF93CB
:101510008CB59DB520918B0030918C002817390730
:1015200078F4682F792F621B730B90938C00809353
:101530008B006F3F710569F060F06FEF70E009C0DC
:101540008B5C934F682F792F621B730B85539C40E4
:10155000ECCF83ED90E028D7FF91EF91BF91AF9151
:101560009F918F917F916F915F914F913F912F91BB
:101570000F900FBE0F901F9018951F920F920FB6ED
:101580000F9211242F933F934F935F936F937F9309
:101590008F939F93AF93BF93EF93FF938CB59DB5BC
:1015A00020918B0030918C002817390778F4682F30
:1015B000792F621B730B90938C0080938B006F3F8D
:1015C000710569F060F06FEF70E009C08B5C934FBC
:1015D000682F792F621B730B85539C40ECCF83EDF2
:1015E00090E0E2D6FF91EF91BF91AF919F918F91E3
:1015F0007F916F915F914F913F912F910F900FBE0F
:101600000F901F901895DF92EF92FF920F931F9308
:10161000CF93DF93D92FC82F082F192F0C571F4FA7
:10162000F12FE02FD080F92FE82FFD9681818823BC
:1016300009F4B7C01182F12FE02F108210928800B8
:1016400088E185BD8F9A8C2F9D2F4A96B1D98C2F1A
:101650009D2FC5D9EA961982EA971AAEFD2FEC2F75
:10166000E05CFF4F11821082FD2FEC2FED5BFF4FEE
:1016700011821082CA57DF4F19821882249681E0A6
:10168000899388E48883CB58D040F12FE02F808164
:10169000823009F4B7C0833008F1833091F184308F
:1016A00009F471C0F12FE02F1082F12FE02F80811B
:1016B0002D2D332799272817390709F404C1FD2F49
:1016C000EC2FE657FF4F8081882309F0FCC081E0B2
:1016D0008083C557DF4F85E48883F5C0882309F4EC
:1016E0007CC08130F9F6CA57DF4F88819981C6588E
:1016F000D040892B09F099C083E0F12FE02F80833F
:10170000D4CFFD2FEC2FEA5BFF4F168210868C2F73
:101710009D2FDED9482F592FF3E0883E9F0708F40C
:101720009AC06AE070E020D4462F572F65E08C2FD6
:101730009D2FA2D79AE1E92EF12CEC0EFD1E9F2DD4
:101740008E2D54DA482F592F83E0483E580708F46D
:1017500080C0952F842F6AE070E006D4462F572F63
:1017600065E09F2D8E2DD7D7C657DF4F81E0899337
:1017700082E58883CB58D04061E08AE0AAD684E035
:10178000F12FE02F80838C2F9D2FD6D4882309F44E
:101790008CCF8C2F9D2F23D98C2F9D2F4A9608D923
:1017A00081CF40E06CE48C2F9D2F8A5B9F4F6ED6DB
:1017B000882309F040CFFD2FEC2FE15BFF4F8081A4
:1017C0008C3009F062CFCE5ADF4F8881C255D040AD
:1017D000883409F05ACF10822ECF8C2F9D2F93DBA7
:1017E000882309F462CF81E0F12FE02F8083C65770
:1017F000DF4F899382E48883CB58D04061E086E054
:1018000068D653CFFD2FEC2FFA968181882329F1DA
:10181000118281E0F12FE02F8083C657DF4F89933B
:1018200082E48883CB58D04040CFFD2FEC2FFA962E
:101830008181882369F1118282E0F12FE02F80837A
:10184000C657DF4F81E0899380E58883CB58D0402D
:101850002CCF1BAA85CF198E69CF40E062E18C2F77
:101860009D2F8A5B9F4F12D6882399F6FD2FEC2F70
:10187000E15BFF4F80818C3009F017CFCE5ADF4FEC
:101880008881C255D040823409F00FCF1082C1CF79
:1018900040E062E18C2F9D2F8A5B9F4FF7D5882314
:1018A00059F6FD2FEC2FE15BFF4F80818C3009F062
:1018B000FCCECE5ADF4F8881C255D040823409F029
:1018C000F4CE1082B9CFDF91CF911F910F91FF908D
:1018D000EF90DF9008955F926F927F928F929F9228
:1018E000AF92BF92CF92DF92EF92FF920F931F932E
:1018F000CF93DF93082F192F0C571F4FF12FE02F95
:10190000808104581040813009F470C1F12FE02F1C
:1019100017AA10AE11AE14AA15AA16AAEAE16E2EE5
:10192000712C600E711E912F802FCA96FDD5912FBC
:10193000802FCD9623D6912F802F805C9F4F48D645
:10194000912F802F8D5B9F4F6DD67AE8A72EB12CFB
:10195000A00EB11EFB2DEA2D8081882309F4DDC085
:1019600005571F4FF12FE02F508005501040F12FE9
:10197000E02F419151910E2F1F2F808091800350B5
:101980001040F12FE02F2081055810406FE4C62E43
:10199000D12CC00ED11EFD2DEC2D84A9813009F46F
:1019A0001FC136E5E32EF12CE00EF11E82E3FF2D80
:1019B000EE2D8083095A1F4F86E3F12FE02F81938C
:1019C0000E2F1F2F8CE2808308551040D12FC02F7F
:1019D0002E96F12FE02FE75AFF4FB72DA62D1E961A
:1019E00090E00DC08EE280838C918A3080F08EE290
:1019F00087879F5F2197319611979F3081F088816B
:101A00008A3080F7805D80838C918A3080F7805D9A
:101A100087879F5F2197319611979F3081F72A31F1
:101A200008F4D5C08EE209581F4FF12FE02F8083B4
:101A300007571040712F602F68587F4F9D2D8C2DB8
:101A400056D5712F602F65587F4F592D482D9D2DEC
:101A50008C2D4DD5852D81548A3108F4B6C08EE287
:101A600002581F4FF12FE02F80830E571040FF2D9B
:101A7000EE2D219191E08191280F9F5F9932D9F746
:101A800001581F4F8CE2F12FE02F80830F57104039
:101A9000822F82958F708A3008F49FC0895C9927C5
:101AA00000581F4FF12FE02F808300581040822FE5
:101AB0008F708A3008F48EC0895C99270F571F4FAA
:101AC000F12FE02F81930E2F1F2F81E0FD2DEC2DA4
:101AD00084ABF12FE02F1082025810408AE38CB9BA
:101AE000FB2DEA2D1082FD2DEC2D84A98130F9F417
:101AF0005D9B1DC0B12FA02FAE57BF4F9C919C3254
:101B000008F086C0F12FE02FE90FF11DEA5AFF4FD0
:101B100080819F5F9C938CB90AC04FE4C42ED12C66
:101B2000C00ED11EFD2DEC2D84A9813009F35F9BE1
:101B300007C02CB1222321F580E0FD2DEC2D808300
:101B400041E06DE4912F802F8A5B9F4F9FD48823C3
:101B500069F5FD2DEC2D80818C30E1F0912F802FE7
:101B600052DDF12FE02F8489882359F1F72DE62DDE
:101B70008489882309F0B3C1912F802F62D9AFC126
:101B8000FD2DEC2D9081E92FFF27EE30F10558F166
:101B90008DE0D3CF0E5A1F4FF12FE02F80810255D9
:101BA00010408335D9F6FD2DEC2D108261E082E0E6
:101BB00090D4912F802F27DDF12FE02F8489882367
:101BC000A9F6972D862DBCD8D1CF852D49CF822F50
:101BD0008F5B29CF805D992771CF805D992760CF7A
:101BE0005D9BDFCE9FCFE25EFF4F0994FAE16F2E3F
:101BF000712C600E711E772D662D912F802FC79648
:101C0000ECDA712F602F912F802FC49676DB8BCE6C
:101C100082E0FD2DEC2D84AB1CB889CFFD2DEC2D81
:101C200010822A3309F44CC1FD2DEC2D90813DE04A
:101C3000993008F481C0832F99277FCF213408F48D
:101C4000E8C0273408F0E5C0F12FE02FEF5AFF4F2E
:101C500030812753822F9927295C932F982B9083CB
:101C6000005B1F4FF12FE02F808100551040981727
:101C7000D9F68CE062CF213408F4C2C0273408F0D2
:101C8000BFC02753822F99270F5A1F4F8295807FFD
:101C9000F12FE02F8083015510408BE04ECF2C3286
:101CA00009F0ABC08AE049CF213408F4E3C02734FF
:101CB00008F0E0C0F12FE02FEC5AFF4F308127539E
:101CC000822F9927295C382B3083FD2DEC2D9081B4
:101CD00039E0AECF213408F4ACC0273408F0A9C0F5
:101CE0002753822F9927295C0C5A1F4F8295807F9A
:101CF000F12FE02F808304551040FD2DEC2D9081B5
:101D000038E096CF213408F4C3C0273408F0C0C0AF
:101D1000F12FE02FEB5AFF4F30812753822F992765
:101D2000295C382B3083FD2DEC2D908137E080CF5E
:101D30002C3209F060C034E0F12FE02FE05BFF4F60
:101D40008081820F808377CF213408F48AC02734C2
:101D500008F087C02753822F9927295C0B5A1F4F01
:101D60008295807FF12FE02F808305551040FD2D57
:101D7000EC2D908136E05CCF2134E8F12B35D8F59D
:101D80000E5A1F4FF12FE02F208302551040FD2DDA
:101D9000EC2D908135E04CCF213408F487C02734F6
:101DA00008F084C02753822F9927295C0D5A1F4FB2
:101DB0008295807FF12FE02F808303551040FD2D09
:101DC000EC2D908132E034CF2134E0F12734D0F58E
:101DD000F12FE02FED5AFF4F40812753822F992793
:101DE000295C842B8083853009F01ECFFD2DEC2DDE
:101DF000908133E01DCF3DE09FCF8DE090E09DCE00
:101E0000822F80538A30C8F72A3308F03ACF9927B7
:101E10003BCF822F80538A3050F4F12FE02FEF5ABE
:101E2000FF4F30812A3308F014CF992716CF3DE0B9
:101E3000FFCE822F80538A30D0F72A3308F050CF5C
:101E4000992752CF322F30533A3088F7F12FE02FB5
:101E5000ED5AFF4F40812A3308F0BFCF832F9927D7
:101E6000C0CF822F80538A3010F72A3308F072CF08
:101E7000992774CF822F80538A30C8F6F12FE02F34
:101E8000EC5AFF4F30812A3308F019CF99271BCF26
:101E9000822F80538A3058F6F12FE02FEB5AFF4FF4
:101EA00030812A3308F039CF99273BCF822F8053D6
:101EB0008A3008F0BCCF2A3308F074CF992776CF48
:101EC0000C5A1F4FF12FE02F118210820450104046
:101ED000F12FE02F10820055104081E02ECEDF91CF
:101EE000CF911F910F91FF90EF90DF90CF90BF9017
:101EF000AF909F908F907F906F905F900895CFE507
:101F0000D2E0DEBFCDBF89B7816189BF1FBC8CE045
:101F10008EBD82E083BF85E39CE09BBD8ABD789443
:101F2000CDE8D0E08C2F9D2FD6DCFCCF55270024A8
:101F300080FF02C0060E571F660F771F61157105DF
:101F400021F096958795009799F7952F802D089504
:101F5000991B79E004C0991F961708F0961B881FFB
:101F60007A95C9F780950895AA1BBB1B51E107C05C
:101F7000AA1FBB1FA617B70710F0A61BB70B881F19
:101F8000991F5A95A9F780959095682F792F8A2FD8
:101F90009B2F089597FB092E07260AD077FD04D0C2
:101FA000E3DF06D000201AF4709561957F4F089505
:101FB000F6F7909581959F4F0895EE0FFF1FC895F6
:0C1FC00031960F92C8950F920895FFCF44
:101FCC000F5F4237766A7C7D467F7E6F791D733D4D
:101FDC002D0020015F4237766A7C7D467F7E6F79CB
:081FEC001D733D2D00200100D2
:00000001FF
