:100000002CC038CA7DCA50C04FC04EC03AC44CC084
:100010004BC04BC0F4C648C047C046C045C044C0F2
:1000200043C0C0C0CEC0D5C0E3C0F1C0FFC00DC149
:100030001BC129C137C145C152C15FC1DCCDB1CEA1
:100040005CCEA4CE73CE41CE2ACE11CEFACDF4CD65
:10005000DFCD7ECED0CDCCCD340A11241FBECFE56E
:10006000D2E0DEBFCDBF10E0A0E6B0E0EAEAFFE1FB
:1000700003C0C89531960D92A838B107D1F711E0A9
:10008000A8E8B0E001C01D92A831B107E1F710E087
:10009000CAE5D0E004C02297FD2FEC2F7FDFC835E2
:1000A000D107C9F71BDF80CFABCF1F920F920FB6DE
:1000B0000F9211248F938091C100882319F08150F1
:1000C0008093C1008091C400882319F081508093EF
:1000D000C4008091C700882329F08091C700815017
:1000E0008093C7008091CA00882329F08091CA00BC
:1000F00081508093CA008091CD00882329F080919F
:10010000CD0081508093CD008091D000882329F0CC
:100110008091D00081508093D0008091D8008F3F93
:1001200029F08091D8008F5F8093D8008F910F9035
:100130000FBE0F901F901895F92FE82FFE96818122
:10014000FE978823B1F4EF5BFF4F8181E154F040CB
:10015000882379F4F8968181F897882351F4EC5B31
:10016000FF4F868120E030E0853031F0932F822FE1
:10017000089581E090E0089521E030E0F7CFB92FB5
:10018000A82FF92FE82F8085E82FFF27ED30F10504
:1001900030F080E0FB2FEA2F1086992702C1EF5E36
:1001A000FF4F0994662309F0F6C0FB2FEA2F8281E6
:1001B0008F7B828381E0FB2FEA2F808780E090E0B5
:1001C000F0C0FB2FEA2F638382E0808780E090E01D
:1001D000E8C0662309F0D9C0FB2FEA2F81818F7E0A
:1001E000818383E0FB2FEA2F808780E090E0D9C0F5
:1001F000662309F0C4C0FB2FEA2F8181877F8183AA
:1002000084E0FB2FEA2F808780E090E0CAC066235D
:1002100009F0AFC0FB2FEA2F81818B7F818385E0BE
:10022000FB2FEA2F808780E090E0BBC0662309F0B7
:100230009AC0FB2FEA2F81818D7F818386E0FB2F7F
:10024000EA2F808780E090E0ACC0662309F085C08B
:10025000FB2FEA2F81818E7F818387E0FB2FEA2F9E
:10026000808780E090E09DC0662309F070C0FB2F7E
:10027000EA2F82818F7D828388E0FB2FEA2F80879F
:1002800080E090E08EC0662309F05BC0FB2FEA2F70
:1002900082818F7E828389E0FB2FEA2F808780E036
:1002A00090E07FC0662309F046C0FB2FEA2F8281D1
:1002B000877F82838AE0FB2FEA2F808780E090E0AF
:1002C00070C0662391F5FB2FEA2F82818B7F82839A
:1002D0008BE0FB2FEA2F808780E090E062C06623EE
:1002E000F1F4FB2FEA2F82818D7F82838CE0FB2F3C
:1002F000EA2F808780E090E054C0662351F4FB2F02
:10030000EA2F82818E7F82838C918F5F8C9381E034
:1003100041CFFB2FEA2F828181608283F5CFFB2FB3
:10032000EA2F828182608283E1CFFB2FEA2F8281D4
:1003300084608283CDCFFB2FEA2F82818860828305
:10034000B9CFFB2FEA2F828180618283A4CFFB2F5C
:10035000EA2F8281806282838FCFFB2FEA2F8181F7
:10036000816081837ACFFB2FEA2F81818260818334
:1003700065CFFB2FEA2F81818460818350CFFB2FD3
:10038000EA2F8181886081833BCFFB2FEA2F818117
:100390008061818326CFFB2FEA2F82818064828354
:1003A00009CF0895CF93DF93D92FC82F8F8188303D
:1003B00010F46F3620F01E82188681E03DC06F3247
:1003C000B0F46E3020F190E08E81833081F1843082
:1003D00080F4813031F1823000F19923E1F461E061
:1003E0008C2F9D2FCCDE8823D1F085E025C091E0B5
:1003F000EBCF8530D1F3853060F4992361F460E070
:100400008C2F9D2FBCDE882381F783E015C086E00A
:1004100013C08630E1F386E00FC080E00DC081E0BC
:100420000BC0913061F39923B1F782E005C09130A0
:10043000B1F2992381F784E08E831F82DF91CF91FF
:1004400008952CB53DB540918B0050918C0042171A
:10045000530778F4732F622F641B750B30938C0055
:1004600020938B006F3F710569F060F06FEF70E0D3
:1004700009C02B5C334F732F622F641B750B255300
:100480003C40ECCF8C5B9F4F8DDF0895F92FE82F18
:100490008681853019F080E090E008958281992767
:1004A000262F332782179307B1F7442349F082811F
:1004B0008483838185831682108681E090E008958D
:1004C00094818281981799F795818381981779F79C
:1004D000E2CFF72FE62F242F352F952F842F6AE0B8
:1004E00070E031DD805D8283932F822F6AE070E0BF
:1004F0002ADD262F372F862F6AE019DD905D918344
:10050000822F15DD14DD905D90830895F92FE82F7B
:1005100090819130A1F0913030F09230B1F0933071
:1005200049F010820895B099FDCF8EE1828381E079
:100530008083089582818823A9F71082F3CF828176
:10054000882351F482E080839183B09BEBCF8EE1CE
:10055000828383E080830895B09BE4CF1082089566
:10056000F92FE82F90819130A1F0913030F0923046
:10057000B1F0933049F0108208958499FDCF8EE157
:10058000828381E08083089582818823A9F7108285
:10059000F3CF8281882351F482E080839183849B0E
:1005A000EBCF8EE1828383E080830895849BE4CF48
:1005B00010820895F92FE82F90819130A1F09130A9
:1005C00030F09230B1F0933049F01082089585995F
:1005D000FDCF8EE1828381E080830895828188232C
:1005E000A9F71082F3CF8281882351F482E08083BF
:1005F0009183859BEBCF8EE1828383E08083089596
:10060000859BE4CF10820895F92FE82F90819130D7
:10061000A1F0913030F09230B1F0933049F0108277
:1006200008958699FDCF8EE1828381E080830895CD
:1006300082818823A9F71082F3CF8281882351F425
:1006400082E080839183869BEBCF8EE1828383E07F
:1006500080830895869BE4CF10820895EF92FF92E5
:100660000F931F93CF93DF93D92FC82F262FE42EFC
:10067000F52E952F842F6AE070E07BDC3327022F64
:10068000132F000F111F020F131FF12FE02F3296AF
:10069000EC0FFD1F80839F2D8E2D6AE070E069DCDA
:1006A000262F372F972F862F6AE070E062DCF12F1C
:1006B000E02F3196EC0FFD1F8083932F822F6AE08D
:1006C00070E057DC262F372F972F862F6AE070E0D7
:1006D00050DCFD2FEC2FE00FF11F8083882321F4E5
:1006E00037FF02C081E1808381E08A8BDF91CF9167
:1006F0001F910F91FF90EF900895EF92FF920F934B
:100700001F93CF93DF93D92FC82F262FE42EF52EDA
:10071000952F842F6AE070E02CDC3327022F132FF3
:10072000000F111F020F131FF12FE02F3296EC0F55
:10073000FD1F80839F2D8E2D6AE070E01ADC262F2E
:10074000372F972F862F6AE070E013DCF12FE02F10
:100750003196EC0FFD1F8083932F822F6AE070E0AB
:1007600008DC262F372F972F862F6AE070E001DCF8
:10077000FD2FEC2FE00FF11F8083882321F437FF3A
:1007800002C081E1808381E08A8BDF91CF911F914C
:100790000F91FF90EF900895CF93DF93D92FC82F3B
:1007A0007727B72FA62FAA0FBB1FA60FB71F12962A
:1007B000F92FE82FEA0FFB1F129780818F5F80834C
:1007C00080818A3004F11082FB2FEA2F3196EC0FE2
:1007D000FD1F80818F5F80838081992787FD9095A1
:1007E000242F332727FD30952817390764F410820A
:1007F000FB2FEA2FEC0FFD1F80818F5F80838081AC
:100800008A300CF0108281E08A8BDF91CF910895BD
:10081000B92FA82F7727262F372F220F331F260F08
:10082000371F2E5F3F4FF92FE82FE20FF31F2250A3
:100830003040808181508083808187FF1DC099E096
:100840009083F32FE22F3196EA0FFB1F80818150B6
:100850008083808187FF10C04083F32FE22FEA0F4F
:10086000FB1F808181508083808187FF05C090833A
:1008700081E0FB2FEA2F838B81E0FB2FEA2F828B15
:1008800008951F920F920FB60F9211241F932F936A
:100890003F934F935F936F937F938F939F93AF9308
:1008A000BF93EF93FF9310911701112321F49091BF
:1008B0000F01913061F180918800882359F4809173
:1008C0008A00882389F485B5887F85BD193048F072
:1008D00080E057C080918800815080938800193053
:1008E000B8F7812F8F5F4DC080918A00815080932F
:1008F0008A0080918A0080FFE6CF809189008093F2
:10090000880085B5836085BD8DE783BDE8CF809184
:100910001501882329F49093150184E5809316012D
:10092000809111019091120101979093120180938F
:10093000110145E065E08DE890E02EDF45E065E0DF
:1009400086EA90E065DF80911001813009F0B3CF35
:1009500080911101909112016EE170E0F4DA892B1F
:1009600009F0A9CF93E0909388008091880080934C
:10097000890090938A0085B5836085BD8DE783BD2E
:100980009ACF80931701FF91EF91BF91AF919F9103
:100990008F917F916F915F914F913F912F911F9117
:1009A0000F900FBE0F901F901895B92FA82F772783
:1009B000F72FE62FEE0FFF1FE60FF71FEA0FFB1FC3
:1009C00080818F5F808380818A300CF0108281E08B
:1009D000FB2FEA2F828B0895B92FA82F7727F72FA7
:1009E000E62FEE0FFF1FE60FF71FEA0FFB1F8081B8
:1009F00081508083808187FF02C089E0808381E00D
:100A0000FB2FEA2F828B08957727F72FE62FEE0F23
:100A1000FF1FE60FF71FB92FA82FAE0FBF1F6C9156
:100A20003196B92FA82FAE0FBF1FAC913196E80FAA
:100A3000F91F2081332727FD30955527862F9927C9
:100A400087FD9095752F642F60DA280F391FBB271B
:100A5000A7FDB0958A2F9B2F880F991F880F991F8C
:100A60008A0F9B1F880F991F820F931F08958F92E3
:100A70009F92AF92BF92CF92DF92EF92FF920F932D
:100A80001F93E82EF92E44E660E0BEDF882E992EF3
:100A900044E661E09F2D8E2DB7DF082F192F44E625
:100AA00062E09F2D8E2DB0DFA82EB92E44E663E0C4
:100AB0009F2D8E2DA9DFC82ED92E44E664E09F2DF0
:100AC0008E2DA2DF080D191D0A0D1B1D0C0D1D1DFD
:100AD000800F911F1F910F91FF90EF90DF90CF90AB
:100AE000BF90AF909F908F900895282F392F772730
:100AF000F72FE62FEE0FFF1FE60FF71FB92FA82FD6
:100B0000AE0FBF1F1C923196B92FA82FAE0FBF1F7B
:100B10001C923196E80FF91F108281E0F32FE22F2B
:100B2000828B08957727F72FE62FEE0FFF1FE60F32
:100B3000F71FB92FA82FAE0FBF1F6C913196B92F99
:100B4000A82FAE0FBF1FAC913196E80FF91F20817F
:100B5000332727FD30955527862F992787FD9095B8
:100B6000752F642FD2D9280F391FBB27A7FDB09549
:100B70008A2F9B2F880F991F880F991F8A0F9B1F01
:100B8000880F991F820F931F08958F929F92AF92A3
:100B9000BF92CF92DF92EF92FF920F931F93E82EB6
:100BA000F92E44E660E0BEDF882E992E44E661E02F
:100BB0009F2D8E2DB7DF082F192F44E662E09F2D61
:100BC0008E2DB0DFA82EB92E44E663E09F2D8E2D2A
:100BD000A9DFC82ED92E44E664E09F2D8E2DA2DF1A
:100BE000080D191D0A0D1B1D0C0D1D1D800F911FD9
:100BF0001F910F91FF90EF90DF90CF90BF90AF903B
:100C00009F908F900895F92FE82F8489882349F0C9
:100C1000148A6E98C29A128A81E0828B128AC298D4
:100C2000C3980895CF93DF93B92FA82FD92FC82F3A
:100C30008C89882309F44DC08D898823A9F5FB2F61
:100C4000EA2F2689E20FF11DE081DB2FCA2F388DB4
:100C500080917300882311F0EE2351F19E2F1092A2
:100C60007300FF27DB2FCA2F8F89853039F1EF59A9
:100C7000FF4F808180958FB9822F8F5FFB2FEA2FE6
:100C8000868B823110F081E0858BDB2FCA2F888D17
:100C90008F5F888F8330E8F0188E81E08093730037
:100CA0008F898F5F8F8B15C08A2F9B2FACDF11C070
:100CB0003230A0F690E1E0E1F0E0D4CF3323B9F692
:100CC0009A30A8F6EF59FF4F8FE79081891B8FB9B3
:100CD000D3CFDF91CF910895F92FE82F8289882310
:100CE00011F08489811108956E9A6C9AC39A81E0FB
:100CF000848B158A168A178A108E8E2F9F2F92DF6B
:100D00000895F92FE82F8489882349F0148A6E9872
:100D1000C49A128A81E0828B128AC498C39808957B
:100D2000CF93DF93B92FA82FD92FC82F8C89882371
:100D300009F44DC08D898823A9F5FB2FEA2F268958
:100D4000E20FF11DE081DB2FCA2F388D80918600E4
:100D5000882311F0EE2351F19E2F10928600FF2779
:100D6000DB2FCA2F8F89853039F1EC58FF4F8081F6
:100D700080958FB9822F8F5FFB2FEA2F868B823170
:100D800010F081E0858BDB2FCA2F888D8F5F888FD5
:100D90008330E8F0188E81E0809386008F898F5F22
:100DA0008F8B15C08A2F9B2FACDF11C03230A0F67D
:100DB00090E1E0E1F0E0D4CF3323B9F69A30A8F621
:100DC000EC58FF4F8FE79081891B8FB9D3CFDF910C
:100DD000CF910895F92FE82F8289882311F0848913
:100DE000811108956E9A6C9AC39A81E0848B158A5A
:100DF000168A178A108E8E2F9F2F92DF08951F92CA
:100E00000F920FB60F9211240F931F932F933F93BE
:100E10004F935F936F937F938F939F93AF93BF9302
:100E2000EF93FF9306EA10E0912F802FFBDE912FC6
:100E3000802F499775DFFF91EF91BF91AF919F91FF
:100E40008F917F916F915F914F913F912F911F9162
:100E50000F910F900FBE0F901F901895282F392FCC
:100E60007727F72FE62FEE0FFF1FE60FF71FB92F9B
:100E7000A82FAE0FBF1F81E18C933196B32FA22F05
:100E8000AE0FBF1F4C933196E20FF31F808381E0BA
:100E9000F32FE22F828B08950F931F93CF93DF934D
:100EA000D92FC82FF92FE82FEF5BFF4F81818823BF
:100EB00009F4E0C011820C2F1D2F0C5B1F4F65E061
:100EC0008C2F9D2F72DDFD2FEC2FE857FF4F808177
:100ED000882309F47FC040E061E1912F802FD6DAAA
:100EE000882309F087C0FD2FEC2FE35BFF4F808143
:100EF0008C3009F4B5C0FD2FEC2FFE96818188233C
:100F000009F494C01182FD2FEC2FED57FF4F808123
:100F1000882309F45CC080E080834081465F65E0FF
:100F20008C2F9D2F49969ADFFD2FEC2FE857FF4F0E
:100F30008081882341F481E08083C757DF4F8DE4AF
:100F40008883C958D040FD2FEC2FF89681818823E3
:100F500009F4AEC011824CE365E08C2F9D2F54DD67
:100F6000FD2FEC2FEC57FF4F91838083808191817F
:100F7000892B21F484EB90E091838083808191819F
:100F8000CA57DF4F99838883C658D04080819181AA
:100F900064E670E0BAD76CE370E0EBD7462F572FCA
:100FA00065E08C2F9D2F5ADB44E665E08C2F9D2F4A
:100FB0002BDD482F592F65E08C2F9D2F49969DDB07
:100FC00065E08C2F9D2F91DD81E090E08CC08081C9
:100FD0008F5FA2CF81E08083C757DF4F89E488838A
:100FE000C958D04040E061E1912F802F4FDA88232B
:100FF00009F479CF45E065E08C2F9D2FEDDCFD2FC6
:10100000EC2FE857FF4F8081882309F074CF81E0EF
:101010008083C757DF4F84E48883C958D040FD2FB1
:10102000EC2FFE968181882309F06CCF40E066E5C5
:10103000912F802F2BDA882309F065CFFD2FEC2F1D
:10104000E35BFF4F80818C3009F07DCFC05BDF4FC9
:101050008881C055D0408D3409F075CF108253CFB0
:10106000C05BDF4F8881C055D040843409F043CF46
:101070001082C0CF0C2F1D2F0C5B1F4F40E060E192
:10108000912F802F03DA882309F019CFFD2FEC2F41
:10109000E35BFF4F80818C3009F01DCFC05BDF4FD9
:1010A0008881C055D040893409F015CF108207CF10
:1010B00040E062E1912F802FE9D9882309F04BCFDE
:1010C000FD2FEC2FE35BFF4F80818C3019F080E027
:1010D00090E009C0C05BDF4F8881C055D0408234AA
:1010E000B1F7108238CFDF91CF911F910F91089502
:1010F000CF93DF93D92FC82F7727B72FA62FAA0F0B
:10110000BB1FA60FB71F1296FD2FEC2FEA0FFB1F78
:10111000129780818F5F808380818A3004F11082F2
:10112000FB2FEA2F3196EC0FFD1F80818F5F8083AC
:101130008081992787FD9095242F332727FD3095AF
:101140002817390764F41082FB2FEA2FEC0FFD1FDC
:1011500080818F5F808380818A300CF0108281E0F3
:101160008A8BDF91CF9108950F931F93CF93DF93D5
:10117000D92FC82F062F172F88818130C1F08130D9
:1011800030F08230C9F0833071F0188278C089B3B2
:101190008F71992783FD33C088E0898383E08A8338
:1011A00081E088836CC08A81882379F368C08A8152
:1011B0008823D9F482E0888389B329818F719927A4
:1011C000332782239323892B09F459C023FD3DC083
:1011D00021FD32C020FD27C022FD1CC024FD14C00B
:1011E00086E98A8383E088834AC089B38F7199270F
:1011F0002981332782239323892B39F640C081FD2F
:101200002DC082E08983CACF49E064E0912F802F0E
:101210006FDFE6CF49E063E0912F802F69DF89819E
:10122000282F3327DBCF49E062E0912F802F60DF4A
:101230008981282F3327D0CF49E061E0912F802F7B
:1012400057DF8981282F3327C5CF49E060E0912FF0
:10125000802F4EDF8981282F3327BACF80FF05C02A
:1012600082FD06C084E0898399CF81E0898396CF8F
:1012700084FF02C0198203C080E189838FCFDF9190
:10128000CF911F910F9108950F931F93CF93DF93E9
:10129000D92FC82F062F172F88818130C9F08130B0
:1012A00030F08230D1F0833079F0188279C083B386
:1012B0009927887F907084FD38C080E1898383E01E
:1012C0008A8381E088836CC08A81882371F368C037
:1012D0008A81882301F582E0888383B34981887FEE
:1012E0009927242F332782239323892B09F458C06D
:1012F000932F822F24FD33C086FD2AC047FD3DC0B9
:10130000842F992785FD1CC083FD14C086E98A833C
:1013100083E0888345C083B3887F99272981332759
:1013200082239323892B09F63BC086FD21C080E4EC
:101330008983C5CF49E064E0912F802F2DDAE6CF75
:1013400049E063E0912F802F27DA89819927DCCF4C
:1013500049E061E0912F802F1FDA4981CFCF49E02A
:1013600060E0912F802F18DA4981842F9927C4CF0C
:1013700087FD0AC080E88983A2CF49E062E0912F0F
:10138000802F0ADA4981BCCF85FD03C080E28983C2
:1013900096CF83FF02C0198203C088E089838FCF74
:1013A000DF91CF911F910F910895019709F0089552
:1013B0006F5F7F4FE1F781E080939F001092A00064
:1013C0001092A100BC9AC498BB9AC3988093B800AD
:1013D0001092B9001092BA00BA9AC298BB9AC398F8
:1013E0001092BF0084B3877084BB85B3886F85BBC0
:1013F0001092C2008AB3807E8ABB8BB38F618BBB95
:101400001092C500B898C09A1092C8008C98949A0F
:101410001092CB008D98959A1092CE008E98969A45
:101420001092D7001092D7001092D9001092D500D8
:101430001092D60080EC8BBF8EE085BF1092DA0050
:1014400010920E018CE089B998E19AB910920F01BF
:1014500010921001BF9ABE98BD9A82ED8DB910927C
:10146000880095BD8F9A08956FEF7FEF81E090E03F
:101470009CDF08951F920F920FB60F9211242F93A5
:101480003F934F935F936F937F938F939F93AF930C
:10149000BF93EF93FF938CB59DB520918B00309156
:1014A0008C002817390778F4682F792F621B730B8B
:1014B00090938C0080938B006F3F710569F060F012
:1014C0006FEF70E009C08B5C934F682F792F621B20
:1014D000730B85539C40ECCF81ED90E063D7FF9177
:1014E000EF91BF91AF919F918F917F916F915F919C
:1014F0004F913F912F910F900FBE0F901F90189515
:101500001F920F920FB60F9211242F933F934F9378
:101510005F936F937F938F939F93AF93BF93EF935B
:10152000FF938CB59DB520918B0030918C002817CE
:10153000390778F4682F792F621B730B90938C0016
:1015400080938B006F3F710569F060F06FEF70E082
:1015500009C08B5C934F682F792F621B730B8553E7
:101560009C40ECCF81ED90E01DD7FF91EF91BF91B2
:10157000AF919F918F917F916F915F914F913F912B
:101580002F910F900FBE0F901F901895DF92EF9242
:10159000FF920F931F93CF93DF93D92FC82F92E819
:1015A000E92EF12CEC0EFD1EFF2DEE2DD080FD2F2F
:1015B000EC2FFB968181882309F4E3C01182FF2D73
:1015C000EE2D10821092880088E185BD8F9AAC2F95
:1015D000BD2F5996198E81E090E0FB2FEA2FE80F7E
:1015E000F91F1082019682319105B9F7FB2FEA2F7E
:1015F000138A81E0828B148A6E98188281E090E0D1
:10160000FD2FEC2FE80FF91F108201968231910512
:10161000B9F71B8A81E08A8B1C8A6E98E89619823A
:10162000E89718AEFD2FEC2FFE9611821082FD2F49
:10163000EC2FEF5BFF4F11821082CC57DF4F1982E6
:1016400018822496899388E48883C958D040FF2D56
:10165000EE2D8081823009F4C2C0833008F18330DE
:1016600091F1843009F45FC0FF2DEE2D1082FF2D23
:10167000EE2D80812D2D332799272817390709F45E
:1016800000C1FD2FEC2FE857FF4F8081882309F020
:10169000F8C081E08083C757DF4F85E48883F1C0BD
:1016A000882309F48AC08130F9F6CC57DF4F88814E
:1016B0009981C458D040892B09F099C083E0FF2D4F
:1016C000EE2D8083D4CF8C2F9D2FD1D9482F592F29
:1016D00065E08C2F9D2FC2D70C2F1D2F075E1F4F4B
:1016E000912F802F52DA482F592F65E0912F802FAC
:1016F00004D8C857DF4F91E0999382E58883C95891
:10170000D0408AE08093880080918800809389008F
:1017100090938A0085B5836085BD8DE783BD84E0A5
:10172000FF2DEE2D80838C2F9D2F06D5882309F465
:101730009ECF188281E090E0FD2FEC2FE80FF91F7B
:101740001082019682319105B9F71B8A81E08A8B5C
:101750001C8A6E98AC2FBD2F5996198E81E090E0AF
:10176000FB2FEA2FE80FF91F1082019682319105B5
:10177000B9F7FB2FEA2F138A81E0828B148A6E98C7
:1017800073CF40E06CE48C2F9D2F8C5B9F4F7ED6F7
:10179000882309F014CFFD2FEC2FE35BFF4F8081EE
:1017A0008C3009F054CFC05BDF4F8881C055D040EA
:1017B000883409F04CCF108202CF8C2F9D2F6CDB28
:1017C000882309F454CF81E0FF2DEE2D8083C85784
:1017D000DF4F899382E48883C958D04048CFFD2FDA
:1017E000EC2FF89681818823B1F01182ECCFFD2F88
:1017F000EC2FF8968181882349F1118282E0FF2D38
:10180000EE2D8083C857DF4F81E0899380E5888380
:10181000C958D0402CCF40E062E18C2F9D2F8C5BCB
:101820009F4F34D6882379F6FD2FEC2FE35BFF4FD3
:1018300080818C3009F01BCFC05BDF4F8881C055A1
:10184000D040823409F013CF1082BDCF40E062E176
:101850008C2F9D2F8C5B9F4F19D6882379F6FD2FF7
:10186000EC2FE35BFF4F80818C3009F000CFC05B31
:10187000DF4F8881C055D040823409F0F8CE108205
:10188000BDCFDF91CF911F910F91FF90EF90DF902F
:1018900008955F926F927F928F929F92AF92BF92C4
:1018A000CF92DF92EF92FF920F931F93CF93DF932C
:1018B000082F192F0E571F4FF12FE02F808102584C
:1018C0001040813009F47CC1F12FE02F15AA16AA2F
:1018D00017AA12AA13AA14AAE9E16E2E712C600E9F
:1018E000711E912F802FC89611D6912F802FCB96E5
:1018F00037D6912F802FCE965DD6912F802F8F5B7C
:101900009F4F82D678E8A72EB12CA00EB11EFB2DDA
:10191000EA2D8081882309F4DDC007571F4FF12F7E
:10192000E02F508005501040F12FE02F4191519150
:101930000E2F1F2F8080918003501040F12FE02F39
:101940002081035810406DE4C62ED12CC00ED11E4C
:10195000FD2DEC2D84A9813009F42CC134E5E32E52
:10196000F12CE00EF11E82E3FF2DEE2D80830B5A49
:101970001F4F86E3F12FE02F81930E2F1F2F8CE254
:10198000808306551040D12FC02F2E96F12FE02FC7
:10199000E95AFF4FB72DA62D1E9690E00DC08EE29E
:1019A00080838C918A3080F08EE287879F5F2197B9
:1019B000319611979F3081F088818A3080F7805D61
:1019C00080838C918A3080F7805D87879F5F219725
:1019D000319611979F3081F72A3108F4E0C08EE2EA
:1019E0000B581F4FF12FE02F808305571040712FA8
:1019F000602F6A587F4F9D2D8C2D6BD5712F602FD6
:101A000067587F4F592D482D9D2D8C2D62D5852DE2
:101A100081548A3108F4C6C08EE204581F4FF12F5A
:101A2000E02F80830C571040FF2DEE2D219191E087
:101A30008191280F9F5F9932D9F703581F4F8CE28D
:101A4000F12FE02F80830D571040822F82958F70E9
:101A50008A3008F4ACC0895C992702581F4FF12FD7
:101A6000E02F80830E571040822F8F708A3008F449
:101A70009BC0895C992701581F4FF12FE02F81935C
:101A80000E2F1F2F81E0FD2DEC2D84ABF12FE02FC9
:101A90001082005810408AE38CB9FB2DEA2D108289
:101AA000FD2DEC2D84A98130F9F45D9B1DC0B12F73
:101AB000A02FA058BF4F9C919C3208F093C0F12FEB
:101AC000E02FE90FF11DEC5AFF4F80819F5F9C933F
:101AD0008CB90AC04DE4C42ED12CC00ED11EFD2DF0
:101AE000EC2D84A9813009F35F9B08C02CB122231F
:101AF00009F04BC080E0FD2DEC2D808341E06DE4CA
:101B0000912F802F8C5B9F4FC1D4882319F5FD2D19
:101B1000EC2D80818C3091F0912F802F37DDF12FCB
:101B2000E02F8489882369F1F72DE62D84898823A5
:101B300009F0C4C1912F802F4DD9C0C1005B1F4F48
:101B4000F12FE02F808100551040833529F7FD2DBE
:101B5000EC2D108282E08093880080918800809331
:101B6000890081E080938A0085B5836085BD8DE71B
:101B700083BD912F802F0ADDF12FE02F84898823E8
:101B800099F6972D862DA8D8CFCFFD2DEC2D9081DD
:101B9000E92FFF27EE30F10580F08DE0ACCF822FEA
:101BA0008F5B1ECF852D39CF805D992764CF805DF7
:101BB000992753CF5D9BD2CE92CFE25EFF4F09941F
:101BC000F9E16F2E712C600E711E772D662D912F0D
:101BD000802FC596C9DA712F602F912F802FC29662
:101BE00053DB7FCE82E0FD2DEC2D84AB1CB87CCF87
:101BF000FD2DEC2D10822A3309F451C1FD2DEC2D61
:101C000090813DE0993008F4C4C0832F992773CFA9
:101C1000213408F4F3C0273408F0F0C02753822F92
:101C20009927015B1F4F8295807FF12FE02F8083E2
:101C30000F5410408BE05FCF2C3209F0CCC08AE00B
:101C40005ACF213408F4CAC0273408F0C7C0F12F96
:101C5000E02FEE5AFF4F30812753822F9927295CBE
:101C6000382B3083FD2DEC2D908139E0CBCF213402
:101C700008F401C1273408F0FEC02753822F9927AA
:101C8000295C0E5A1F4F8295807FF12FE02F8083B1
:101C900002551040FD2DEC2D908138E0B3CF21345A
:101CA00008F4B5C0273408F0B2C0F12FE02FED5A88
:101CB000FF4F30812753822F9927295C382B30839F
:101CC000FD2DEC2D908137E09DCF213408F4CAC062
:101CD000273408F0C7C02753822F9927295C0D5A53
:101CE0001F4F8295807FF12FE02F80830355104096
:101CF000FD2DEC2D908136E085CF213408F495C080
:101D0000273408F092C0F12FE02FEF5AFF4F4081A7
:101D10002753822F9927295C842B8083853009F0F3
:101D20006DCFFD2DEC2D908133E06CCF213408F484
:101D300050C02B3508F04DC0005B1F4FF12FE02F36
:101D4000208300551040FD2DEC2D908135E05ACFB9
:101D5000213408F479C0273408F076C0F12FE02F41
:101D6000E15BFF4F30812753822F9927295C932F06
:101D7000982B9083025B1F4FF12FE02F80810E5430
:101D80001040981709F03ACF8CE0B5CE2C3209F507
:101D900034E0F12FE02FE25BFF4F8081820F8083E0
:101DA00034CF213408F471C0273408F06EC02753B3
:101DB000822F9927295C0F5A1F4F8295807FF12F20
:101DC000E02F808301551040FD2DEC2D908132E0F5
:101DD00019CF3DE0DECF8DE090E08DCE822F805395
:101DE0008A3050F4F12FE02FEE5AFF4F30812A3322
:101DF00008F032CF992734CF3DE004CF822F8053B3
:101E00008A3048F72A3308F009CF99270ACF822F62
:101E100080538A3088F7F12FE02FED5AFF4F308141
:101E20002A3308F047CF992749CF322F30533A3021
:101E300018F7F12FE02FEF5AFF4F40812A3308F0B7
:101E400067CF832F992768CF822F80538A30A0F6DF
:101E5000F12FE02FE15BFF4F30812A3308F083CF71
:101E6000992785CF822F80538A3030F62A3308F0A5
:101E700032CF992734CF822F80538A3008F0BCCFDD
:101E80002A3308F0FACE9927FCCE822F80538A306D
:101E900008F0B2CF2A3308F08ACF99278CCF0E5A98
:101EA0001F4FF12FE02F1182108204501040F12FAC
:101EB000E02F10820E54104081E01DCEDF91CF91B3
:101EC0001F910F91FF90EF90DF90CF90BF90AF9058
:101ED0009F908F907F906F905F900895CFE5D2E0B4
:101EE000DEBFCDBF89B7816189BF1FBC8CE08EBDCD
:101EF00082E083BF85E39CE09BBD8ABD7894CDE8FA
:101F0000D0E08C2F9D2FC5DCFCCF5527002480FF0F
:101F100002C0060E571F660F771F6115710521F06D
:101F200096958795009799F7952F802D0895991B81
:101F300079E004C0991F961708F0961B881F7A95C0
:101F4000C9F780950895AA1BBB1B51E107C0AA1FC2
:101F5000BB1FA617B70710F0A61BB70B881F991F4A
:101F60005A95A9F780959095682F792F8A2F9B2FE6
:101F7000089597FB092E07260AD077FD04D0E3DFEA
:101F800006D000201AF4709561957F4F0895F6F7FA
:101F9000909581959F4F0895EE0FFF1FC89531963C
:0A1FA0000F92C8950F920895FFCF2D
:101FAA000F5F4237766A7C7D467F7E6F791D733D6F
:101FBA002D0020015F4237766A7C7D467F7E6F79ED
:081FCA001D733D2D00200100F4
:00000001FF
